:020000040800F2
:10000000985E00208102000837330008E12D0008C7
:1000100035330008430A0008E13D000800000000F5
:10002000000000000000000000000000C101000806
:10003000990B0008000000001D020008D1340008E0
:100040009B0200089B0200089B0200089B0200081C
:100050009B0200089B0200089B0200089B0200080C
:100060009B0200089B0200089B0200089B020008FC
:100070009B0200089B020008C50A00089B020008BA
:10008000D10A00089B0200089B020008510A0008E0
:10009000450A00089B0200089B0200089B0200081A
:1000A0009B0200089B0200089B0200089B020008BC
:1000B000AD350008B93500089B0200089B02000816
:1000C0009B0200089B0200089B0200089B0200089C
:1000D0009B0200080D3C0008253C00089B0200081C
:1000E0009B0200089B0200089B0200089B0200087C
:1000F0009B020008C53500089B0200089B0200080F
:100100009B0200089B0200089B0200089B0200085B
:100110009B0200089B0200089B0200089B0200084B
:100120009B020008DD0A0008E90A00089B0200089B
:100130009B0200089B0200089B020008690A000855
:100140005D0A00089B0200089B0200089B02000851
:100150009B0200089B0200089B020008D53D000896
:100160009B0200089B0200089B0200089B020008FB
:100170009B0200089B0200089B0200080000000090
:100180009B0200089B020008053700089B0200083C
:100190009B0200089B0200089B0200089B020008CB
:1001A00000000000000000009B020008DFF80CD0F7
:1001B00000F016FC00480047D56E0008985E00204D
:1001C0002C4B19680868B0E8F04F80F30988BFF33A
:1001D0006F8F4FF0000080F311887047000000001F
:1001E00008480068006880F308884FF0000080F33A
:1001F000148862B661B6BFF34F8FBFF36F8F00DF15
:1002000000BF00BF08ED00E0DFF80C00016841F41A
:1002100070010160704700BF88ED00E0EFF30980D6
:10022000BFF36F8F134B1A681EF0100F08BF20ED3D
:10023000108A20E9F04F106009B44FF0500080F3AD
:100240001188BFF34F8FBFF36F8F07F03DFF4FF063
:10025000000080F3118809BC19680868B0E8F04F05
:100260001EF0100F08BFB0EC108A80F30988BFF3AE
:100270006F8F704754000020EFF305807047000037
:100280000648804706480047FEE7FEE7FEE7FEE730
:10029000FEE7FEE7FEE7FEE7FEE7FEE79D35000826
:1002A000AD0100082DE9F05F0546002092469B460F
:1002B00088460646814640241BE02846414647467C
:1002C000224600F03EFA53465A46C01A914110D3D6
:1002D00011461846224600F025FA2D1A67EB010850
:1002E0004F4622460120002100F01CFA17EB0009BE
:1002F0004E41201EA4F10104DFDC484631462A4667
:100300004346BDE8F09F40EA01039B0703D009E0A4
:1003100008C9121F08C0042AFAD203E011F8013BF1
:1003200000F8013B521EF9D27047D2B201E000F84A
:10033000012B491EFBD270470022F6E710B5134689
:100340000A4604461946FFF7F0FF204610BD2DE986
:10035000FE4F804681EA0300C00F0C46009021F05A
:10036000004123F00045B8EB0200A94105D2404608
:10037000214690461C460B46024623F0004010439F
:1003800047D0270DC7F30A00C3F30A510290401A61
:10039000019040286BDAC3F3130040F4801B0098EF
:1003A000924620B10023D2EB030A63EB0B0B0198BA
:1003B0005946C0F14002504600F0B4F906460D46D9
:1003C00050465946019A00F0CCF910EB0800614103
:1003D000002487EA115284EAE7731A4340D0009A56
:1003E00062B3019A012A4FEA075215DC001B61EB48
:1003F00002014FF0004202EA0752CDE90042001C20
:1004000041F5801132462B4600F003FA03B0BDE8F7
:10041000F08F40462146F9E7001B61EB0201001C0A
:1004200041F5801300185B412018A2F5001747EB37
:10043000030140EAD570B6196D4111E06D084FEA2D
:10044000360645EAC0754FEA0752001B61EB020110
:10045000001C41F5801149084FEA30000019514154
:1004600032462B4603B0BDE8F04F00F0C3B9009808
:10047000012240000023D0EB020263EBE0730098FE
:1004800021464FEAE074B8EB000061EB0401E9E7B4
:1004900083F000435BE781F0004158E72DE9FE4F10
:1004A00081EA030404F0004421F0004100944FF07D
:1004B000000B23F0004350EA01045ED052EA03042B
:1004C0005BD0C3F30A54C1F30A552C44A4F2F334AD
:1004D0000194A0FB0254C1F3130141F48011C3F352
:1004E000130343F4801301FB024400FB034E840A10
:1004F000970A44EA815447EA8357A4FB07680295A8
:100500008D0A05FB07854FEA932C04FB0C54270545
:10051000029D4FEA065847EA1637B5EB08056EEB21
:10052000070C870E920E47EA811742EA8312A7FB57
:100530000201B6EB0B0164EB00042B0D43EA0C3314
:100540005E1844EB1C50DA465146E7FB0201C5F346
:1005500013044FEA0B3343EA14534FEA0432019C6D
:1005600043EA0603A4F10C040294009CCDE900B414
:1005700000F04FF903B0BDE8F08F00200146F9E725
:100580002DE9F04D81EA030404F0004B21F0004511
:1005900014464FF0000A23F0004150EA050220D033
:1005A00054EA01021DD0C5F30A570246C5F31303EE
:1005B000C1F31300C1F30A5640F4801543F48013CD
:1005C000A7EB0608101BD64608F2FD3873EB0500B2
:1005D00002D308F1010801E092185B41B8F1000F65
:1005E00003DA00200146BDE8F08D00204FF48011B1
:1005F000064684460EE0171B73EB050705D3121B56
:1006000063EB050306434CEA010C49084FEA30004E
:1006100092185B4150EA0107EDD152EA030012D073
:1006200082EA040083EA0501084305D0101BAB41B0
:1006300006D20122002306E000224FF0004302E030
:100640006FF0010253101AEB06004CEB085110EB4F
:100650000A0041EB0B01BDE8F04D00F0CBB80EB540
:10066000C10F80EAE0700844CA07002140F233431A
:100670008DE80E000A460B4600F0CBF803B000BD33
:100680000EB540F2334102910021CDE900110A4636
:100690000B4600F0BEF803B000BD00F0004230F0A1
:1006A00000400AD0C10D01F56071C0F3160042EAA6
:1006B0000151C208400711437047002001467047AE
:1006C00001F0004330B421F0004150EA010206D0AD
:1006D0000A0DA2F56072C1F31301002A02DC30BCDE
:1006E00000207047440F44EAC104C100E01830BC48
:1006F00000EBC25000F047B830B50B460146002071
:100700002022012409E021FA02F59D4205D303FAD3
:1007100002F5491B04FA02F52844151EA2F1010254
:10072000F1DC30BD202A04DB203A00FA02F100207F
:1007300070479140C2F1200320FA03F3194390401F
:100740007047202A04DB203A21FA02F0002170478A
:1007500021FA02F3D040C2F1200291400843194629
:100760007047202A06DBCB17203A41FA02F043EA11
:10077000E07306E041FA02F3D040C2F1200291405A
:100780000843194670470029A8BF7047401C49001C
:1007900008BF20F00100704710B4B0FA80FC00FAE6
:1007A0000CF050EA010404BF10BC704749B1CCF111
:1007B000200421FA04F411FA0CF118BF012121439D
:1007C0000843A3EB0C01CB1D4FEA00614FEA102058
:1007D00042BF002010BC704700EBC35010440029FA
:1007E000A4BF10BC7047401C490008BF20F00100A6
:1007F00010BC704710B5141E73F1000408DA401CD9
:1008000041F1000192185B411A4301D120F001002F
:1008100010BD2DE9F04D92469B4611B1B1FA81F21F
:1008200002E0B0FA80F220329046FFF77BFF0446E8
:100830000F4640EA0A0041EA0B0153465A46084374
:1008400013D0114653EA010019D0C8F140025046B6
:10085000FFF777FF05460E46504659464246FFF7DA
:1008600061FF084305D0012004E020463946BDE879
:10087000F08D0020054346EAE0762C4337430A9882
:100880006305E40AA0EB08000022FD0A44EA47548D
:100890000A3002D500200146E9E701051019694137
:1008A000DDE9084500196941BDE8F04DA2E770B5E2
:1008B00021F0004303430CD0C1F30A550024D5EBCB
:1008C000040564EB0403D617AD1AB34102DB002024
:1008D000014670BD201841EB025170BD2DE9F04D6D
:1008E00000231A461B1A8A4103DB00200146BDE89B
:1008F000F08DC1F30A52C1F3130141F480154FF09A
:10090000000BD10702D100186D41521E002704468A
:1009100040F2FF11384601EB620A3E46804602462D
:1009200000204FF48011FFF70CFFC2197141BB1872
:1009300046EB0100B4EB030C75EB000C04D3E41A96
:1009400065EB000517460E46241908F101006D41BC
:1009500080463428E3DDF91946EB0600091BA8415F
:1009600003D24FF0FF32134601E0002213461BEB87
:10097000070046EB0A51BDE8F04DFFF73BBFC1F35E
:100980000A52C1F3130140F2FF3341F480119A423D
:1009900002DA00200146704740F233439A42A2F245
:1009A000334202DC5242FFF7CCBEFFF7BBBE000071
:1009B00030B5041E71F1000404DB4FF000444042E6
:1009C00064EB0101141E73F1000405DB1C464FF0BB
:1009D0000043524263EB0403994208BF904230BD8A
:1009E000064C074D06E0E06840F0010394E807007C
:1009F00098471034AC42F6D3FFF7DCFB5C87000865
:100A00007C87000870B5C1F30A5201F0004500244C
:100A1000C1F3130140F2FF3341F480119A4201DA2D
:100A2000002070BD40F233439A42A2F2334203DC0D
:100A30005242FFF786FE00E090402C43F1D0404246
:100A400070BDFEE7014800F032BA0000200500202A
:100A5000014800F02CBA000020050020014800F0F9
:100A600026BA000048050020014800F020BA000026
:100A700048050020F0B587B000240C9E07462546A7
:100A800049B10420CDE90120CDE903538DF814507C
:100A90004FF6FE7506E002950092F5E7641CA4B2DD
:100AA000AC420CD8384600F0ECF90028F6D006AB82
:100AB00032466946384600F084F8002800D001200C
:100AC00007B0F0BD014800F0D7BC00001C070020B3
:100AD000014800F0D1BC0000DC070020014800F014
:100AE000CBBC00003C080020014800F0C5BC000061
:100AF0007C07002001681823CAB2103AB2FBF3F257
:100B0000054B6FF30901032A9B5CC36500D9091DDE
:100B10008165084670470000C884000810B501468A
:100B200000208B698A6A4FF0C07453B1B3F5005F3F
:100B300015D072B1012A0CD0022A0AD0032A09D199
:100B400004E01AB1012A06D0022A03D1C96AC901F8
:100B500000D5012010BDC96AA142FAD010BD002AFB
:100B6000F7D0012AF2D0022AF3D0032AF3D010BD25
:100B700030B50468256825F4802525600468636025
:100B80008368402B036803D099600068C26030BD61
:100B90009A600068C16030BD704772B6FEE790F899
:100BA0002020012A07D0022A05D0416A41F4802181
:100BB000416201207047006842690A434261002097
:100BC0007047F0B590F820500468A468012D05D056
:100BD000022D03D0416A41F4802153E014F0406FAC
:100BE00001D1E5004BD5C4F30164022C03D9416A5D
:100BF00041F4000146E00125A5401D608D684FF4D9
:100C0000C0739DB1CE6835434E6845EAC605066897
:100C100003EB0417F5514FF4C275076805EB041593
:100C20000E697E51097D012905D009E00E88CD6845
:100C300045EA4655EBE701684E5946F480764E5139
:100C40001179D2F805504FF4C67641EA05250168BE
:100C500006EB04168D511178D2F801204FF4C475BB
:100C600041EA0221026805EB04155151006803EBCB
:100C70000411425842F0010242500020F0BD416A86
:100C800041F4001141620120F0BD000010B590F860
:100C90002020012A07D0022A05D0416A41F4802190
:100CA0004162012010BD3B48D0F8002242F0010211
:100CB000C0F80022D0F8002222F47C52C0F80022B2
:100CC000D0F800224B6A42EA0322C0F800220A7DD3
:100CD00002F01F0301229A40D0F81C329343C0F85F
:100CE0001C32CB69B3B9D0F80C329343C0F80C3244
:100CF0008C894B6864F31F434C6900EBC404C4F84F
:100D000040320C890B6864F31F434C6900EBC40448
:100D1000C4F84432CB69012B16D1D0F80C321343FE
:100D2000C0F80C320C884B6864F31F434C6900EB2D
:100D3000C404C4F840320C89CB6864F31F434C6987
:100D400000EBC404C4F844328B69002BD0F80432A1
:100D50000ED01343C0F804320B69002BD0F81432C4
:100D600008D01343C0F81432096A012904D008E0FE
:100D70009343EFE79343F5E7D0F81C121143C0F813
:100D80001C12D0F8001221F00101C0F8001200205E
:100D900010BD000000640040704730B590F820405E
:100DA000012C05D0022C03D0416A41F480215DE082
:100DB0000468002955D02469A40754D04FF4D8748E
:100DC000056804EB01142D5915F0040595600568BC
:100DD0002D594ED0ED08556005682C5904F00204D9
:100DE000D4604FF4DA74056804EB01142D5905F052
:100DF0000F05156105682D59C5F30725956105682F
:100E00002C59240C54614FF4DC72046802EB01127B
:100E1000A4581C700468A458240A5C700468A45880
:100E2000240C9C700468A258120EDA704FF4DE7223
:100E3000046802EB0112A4581C710468A458240A27
:100E40005C710468A458240C9C710468A258120EAA
:100E5000DA71006881B1016941F02001016100206F
:100E600030BDE468A8E7416A41F400114162012005
:100E700030BD6D0D1560AFE7C16841F02001C16064
:100E8000EDE70246002092F82010012901D0022946
:100E90000CD111688A68520100D501208A681201BC
:100EA00000D5401C8968C90000D5401C70472DE959
:100EB000F05F0546006800244669D0F80490876812
:100EC000D0F80CB0D0F810A0D0F81880F10748D0B6
:100ED000F90714D001218160B80703D5284600F036
:100EE0006AFA0CE0780702D54FF4006407E038078F
:100EF00002D54FF4805402E0284600F05BFAF80572
:100F000016D529684FF480708860B80503D5284647
:100F100000F053FA0CE0780502D544F4005407E0E1
:100F2000380502D544F4804402E0284600F044FA33
:100F3000F80316D529684FF480308860B80303D5CC
:100F4000284600F03CFA0CE0780302D544F4004453
:100F500007E0380302D544F4803402E0284600F06C
:100F60002DFA300707D55FEACB6004D52968102039
:100F700044F40074C86070074FF0080707D55FEAB3
:100F80000B7004D52868C760284600F0A9F9B0079F
:100F900006D52868C068800702D0284600F0A2F96C
:100FA000700607D55FEACA6004D52968102044F4AA
:100FB00080640861B00607D55FEA0A7004D5286826
:100FC0000761284600F0C6F9F00606D528680069D2
:100FD000800702D0284600F0BEF9B00308D55FEACA
:100FE000C96005D5296810204860284600F0B4F98A
:100FF000F00307D55FEA097004D5286847602846E2
:1010000000F0DEF9300446D55FEA497040D5F005BE
:1010100004D55FEAC87001D044F00104B00504D5DE
:101020005FEA887001D544F00204700504D55FEAD8
:10103000487001D544F00404300529D518F0700F2C
:1010400026D008F07000402815D006DC102809D002
:1010500020280AD0302816D10AE050280ED0602867
:1010600011D10EE044F008040DE044F010040AE051
:1010700044F0200407E044F0400404E044F080041D
:1010800001E044F480742868816921F07001816175
:10109000296804204860002C05D0686A20436862F3
:1010A0002846FFF779FEBDE8F09F70B5040003D035
:1010B00094F8200010B104E0012070BD204600F03B
:1010C00081F82068016841F00101016000F08CFCAA
:1010D0000546052604E000F087FC401B0A2811D8CD
:1010E00020684068C007F6D02068016821F002013E
:1010F000016000F079FC05460BE000F075FC401B38
:101100000A2806D9606A40F40030606284F82060E2
:10111000D2E7206840688007EFD4207E012820684D
:1011200001683DD021F080010160607E01282068C7
:10113000016838D021F040010160A07E01282068BC
:10114000016833D021F020010160E07E0128206891
:1011500001682ED041F010010160207F0128206835
:10116000016829D021F008010160607F0128206812
:10117000016824D021F004010160D4E90201084390
:10118000D4E90412114308436168491E08432168E9
:10119000C86100206062012084F82000002070BD3A
:1011A00041F08001C0E741F04001C5E741F0200176
:1011B000CAE721F01001CFE741F00801D4E741F080
:1011C0000401D9E7F0B587B0044614216846FFF75B
:1011D000B3F83E4B3E48DFF8F0E01968D4F800C0A1
:1011E0003B4A03250226092710300024491CF445F8
:1011F0002AD11960012907D1016841F0007101600D
:10120000006800F000700590106840F00800106061
:101210001068CDE9005600F00800CDE90470694679
:101220002C48CDE9024500F0BBFA0022052113202D
:1012300000F078FC132000F067FC00220521142048
:1012400000F070FC14203BE0DFF88CE0F44539D16D
:10125000D0F800C04CF0806CC0F800C0D0F800C0DE
:1012600001290CF0806CCDF814C0196007D1016819
:1012700041F000710160006800F000700590106896
:1012800040F002001060106802AB00F00200059010
:101290004FF44050CDE9000683E8B00069460F489E
:1012A00000F07EFA002205213F2000F03BFC3F20A9
:1012B00000F02AFC00220521402000F033FC4020F1
:1012C00000F022FC07B0F0BD0064004040000020A8
:1012D00030380240000C0240006800400004024028
:1012E0007047000010B58AB004466B4602AA002180
:1012F000FFF753FD1449206888420298A0F20120AC
:1013000013D107280BD8C0B200EB800101EBC0015C
:101310000E4812E0491CC162694605F0A3FD0AB0FF
:1013200010BD694605F078FDF9E70728F7D8C0B287
:1013300000EB800101EBC001054800EB8100C16AB0
:101340003229EED8E6E70000006400407C46002029
:101350001C480020704770477047000070B5044675
:1013600090F82000012804D0606A40F400206062F8
:1013700018E0022084F820002068016821F00101B3
:10138000016000F031FB05460EE000BF00F02CFBD1
:10139000401B0A2808D9606A40F4003060620520CA
:1013A00084F82000012070BD20684068C007EDD19E
:1013B000606270BD704770477047704770477047F4
:1013C00070472DE9F0410446876D00F00DFB06469D
:1013D00094F835000025022806D08020606584F846
:1013E00034500120BDE8F0812068016821F0160129
:1013F00001602068416921F080014161206C08B9D9
:10140000A06C20B12068016821F00801016020680B
:10141000016821F0010101600CE000F0E5FA801B99
:10142000052807D920206065032084F8350084F85A
:101430003450D7E720680068C007EED194F85C10FC
:101440003F208840B860012084F8350084F834508B
:101450000020C7E790F83510022903D080214165AC
:1014600001207047052180F835100068016821F0DF
:1014700001010160002070472DE9F84304464FF058
:101480000009CDF8009063484FF41651A56D00682F
:10149000B0FBF1F72E6894F85C10082000FA01F117
:1014A00031420FD021680A6852070BD50A6822F032
:1014B00004020A6094F85C108840A860606D40F0F7
:1014C0000100606594F85C104FF0010808FA01F023
:1014D000304208D021684969090604D5A860606DCA
:1014E00040F00200606594F85C10042088403042AF
:1014F00008D021680968890704D5A860606D40F0AC
:101500000400606594F85C1010208840304218D0C8
:1015100021680968090714D5A86020680168490393
:1015200004D50068000308D5A16C07E00168C9056F
:1015300003D4016821F008010160216C09B1204643
:10154000884794F85C1020208840304231D02168D0
:101550000968C9062DD5A86094F8350005282068CB
:10156000016806D0490347D5006800031DD4616CAB
:101570001CE021F0160101602068416921F0800122
:101580004161206C08B9A06C20B12068016821F08D
:101590000801016094F85C103F208840A86084F83E
:1015A000358084F83490216D1FE0E16B09B120464D
:1015B0008847606D00282BD0606DC00714D00520CF
:1015C00084F835002068016821F00101016000986D
:1015D000401C0090B84203D820680068C007F6D1CC
:1015E00084F8358084F83490E16C002910D001B083
:1015F0002046BDE8F04308470168C905D5D4016815
:1016000021F01001016084F8358084F83490CCE733
:10161000BDE8F883500000202DE9F041044600F0B9
:10162000E3F906465CB1022084F83500002584F811
:1016300034502068016821F0010101600DE00120B3
:10164000BDE8F08100F0D0F9801B052805D92020E5
:101650006065032084F83500F2E720680068C00761
:10166000F0D12268116820480140D4E901031843F1
:10167000D4E903363343184363691843A369184315
:10168000E3691843236A18430843616A042903D1B4
:10169000D4E90B1319430843106020684069666A57
:1016A00020F0070130460E43012704280CD1A06A20
:1016B0000643E06A40B12046FFF730FA20B14020EF
:1016C000606584F83570BAE7206846612046FFF708
:1016D00011FA94F85C203F2191408160656584F89F
:1016E00035700020ACE700003F8010F070B5044674
:1016F00090F83400002501280CD0012084F8340033
:1017000094F835600020012E06D084F834000225BC
:10171000284670BD022070BD022684F835606065E1
:101720002046FFF725FA2068016841F001010160B9
:10173000EEE72DE9F0410446866D90F8340000256F
:1017400001280DD0012084F8340094F83570002071
:10175000012F07D084F8340002252846BDE8F08127
:101760000220FBE7022784F8357060652046FFF70A
:10177000FFF994F85C103F208840B0602068016851
:1017800041F016010160206C20B12068016841F031
:10179000080101602068016841F001010160DCE797
:1017A0002DE9F84FDFF8F8A10022012403254FF0BE
:1017B0000F090AF1040BAAF1040E00BF0B6804FA2A
:1017C00002F63340B34270D10F7907F00307012FBF
:1017D00001D0022F16D187684FEA420805FA08FCAB
:1017E00027EA0C07D1F80CC00CFA08FC4CEA070CED
:1017F000C0F808C04768B7430E79C6F30016964094
:101800003E4346600E79F643B6070AD0C7684FEAF2
:10181000420C05FA0CF6B7438E6806FA0CF63E4306
:10182000C6600E7906F00306022E10D1D60800EB32
:101830008608D8F8206057074FEAD76C09FA0CF7EA
:10184000BE430F6907FA0CF73743C8F820700668E3
:101850004FEA420C05FA0CF7BE430F7907F0030775
:1018600007FA0CF7374307604E6816F4403F1CD068
:101870004C4E376847F480473760366822F00307DC
:1018800006F480460096484E07EB060CDCF8086824
:1018900097073F0F09FA07F826EA0806DFF80C81D8
:1018A000404503D14FF0000841E072E0DFF80081CD
:1018B000404502D14FF0010839E0DFF8F88040459B
:1018C00002D14FF0020832E0DFF8EC80404502D14F
:1018D0004FF003082BE0DFF8E480404502D14FF0E1
:1018E000040824E0DFF8D880404502D14FF0050815
:1018F0001DE0DFF8D080404502D14FF0060816E029
:10190000DFF8C480404502D14FF007080FE0DFF850
:10191000BC80404502D14FF0080808E0DFF8B080F5
:10192000404502D14FF0090801E04FF00A0808FADB
:1019300007F848EA0608CCF80888DAF80060574645
:10194000D1F804C09E435FEACC2C00D51E433E6014
:10195000DBF800605F46D1F804C09E435FEA8C2C40
:1019600000D51E433E60DEF800607746D1F804C023
:101970009E435FEA8C3C00D51E433E60084F083F03
:101980003E68D1F804C09E435FEACC3C00D51E43BC
:101990003E60521C102AFFF411AFBDE8F88F000022
:1019A000083C014044380240003001400000024041
:1019B0000004024000080240000C024000100240F7
:1019C0000014024000180240001C024000200240A7
:1019D000002402400069084000D0012070470AB18D
:1019E000816170470904FBE7014880687047000087
:1019F00044000020024881680278114481607047E9
:101A0000440000200B4810B5016841F400710160EA
:101A1000016841F480610160016841F480710160F6
:101A2000032000F09FF80F2000F006F800F050F8B7
:101A3000002010BD003C024030B505461F4887B06D
:101A40000024016841F480710160006806A900F477
:101A50008070009001A800F069F90498A8B100F026
:101A600085F940001649174AB0FBF1F11648491EA6
:101A7000026040F2E732C0E90324C0E90114846146
:101A800000F05AFC040003D015E000F06FF9E9E71C
:101A90000D4800F0AFFC04000DD12D2000F034F80B
:101AA000102D07D2002229462D2000F03BF80748D0
:101AB000056000E0012407B0204630BD40380240F8
:101AC00040420F0000200040B408002048000020E1
:101AD0000C4882B0016841F480410160006800F464
:101AE000804000900748001F016841F0805101606C
:101AF0000068002200F0805000900F21901E02B07C
:101B000000F010B844380240002809DB00F01F0242
:101B1000012191404009800000F1E020C0F800114F
:101B200070470000F0B40E4B1B680C46C3F3022351
:101B3000C3F10705042D00D90425191D072901D279
:101B4000002300E0DB1E012606FA05F1491E2140B4
:101B500099409E40761E16403143F0BC02F094B985
:101B60000CED00E0064900F0070208684FF6FF039D
:101B7000184040EA0220034A104308607047000002
:101B80000CED00E00000FA052DE9F8431748016864
:101B900041F0805101600068154F00F0805001262F
:101BA00000903E64FFF720FF05464FF47A78114C11
:101BB00005E000BFFFF718FF401B40450DD86068E7
:101BC000C003F7D57E64FFF70FFF0546464607E0E2
:101BD000FFF70AFF401BB04202D90320BDE8F8839B
:101BE00060688003F4D50020F8E700004038024028
:101BF00000000E42007000402DE9F0470E4605003F
:101C000065D0DFF81481D8F80000F7B200F00F00BB
:101C1000B04207D288F80070D8F8000000F00F003A
:101C2000B04254D128683D4C810712D5400703D5F6
:101C3000206840F4E05020602878000703D5206831
:101C400040F4604020602068A96820F0F00008435C
:101C500020602878C0072DD03049686808390128ED
:101C600012D0022813D0032811D00968890700294F
:101C70002DDA216821F0030101432160FFF7B4FE52
:101C8000814641F2883A0EE009688903EFE7096866
:101C90008901ECE7FFF7A8FEA0EB0901514502D945
:101CA0000320BDE8F0872068696800F00C00B0EB05
:101CB000810FEFD1D8F80010404601F00F01B1427A
:101CC00007D90770006800F00F00B04201D0012072
:101CD000E7E72878400705D52068E96820F4E05058
:101CE000084320602878000706D52068296920F479
:101CF000604040EAC100206000F058F82168084ABE
:101D0000C1F30311515CC8400649086006480068E9
:101D1000FFF792FE0020C4E7003C02400838024072
:101D2000D084000850000020480000200F220260EC
:101D30000C4A136803F003034360136803F0F003D5
:101D40008360136803F4E053C36012684FF4E053F8
:101D500003EAD20202610448006800F00F00086044
:101D60007047000008380240003C02400448054922
:101D700000680968044AC1F38221515CC840704779
:101D80005000002008380240E0840008044805495B
:101D900000680968044AC1F34231515CC840704789
:101DA0005000002008380240E0840008154810B5B3
:101DB000006810F00C02144813D01449042A0FD004
:101DC000082A0ED10F4C241F2268236802F03F021C
:101DD0005B0207D52068C0F38810A0FB010106E074
:101DE000084610BD2168C1F38811A1FB0001002342
:101DF000FEF758FA2168C1F30141491C4900B0FBC4
:101E0000F1F010BD083802400024F40040787D0154
:101E10002DE9F84F04006ED02078DFF84C93C0070E
:101E2000A9F104054AD009F104000168C1F3810158
:101E3000012908D00068C0F3810002280AD1D9F82E
:101E40000000400206D52868800337D56068002866
:101E5000E1D033E06068B0F5803F10D0B0F5A02F3E
:101E6000286810D020F480302860286820F4802072
:101E700028606068A8B1FFF7B7FD06460DE0286846
:101E800040F48030F4E740F480202860F7E700BF9A
:101E9000FFF7AAFD801B642873D828688003F7D554
:101EA0000CE0FFF7A1FD064605E000BFFFF79CFD33
:101EB000801B6428F0D828688003F7D42078DFF8E6
:101EC000AC8280074FF0000A3ED5A748001D01688C
:101ED00011F00C0F08D00068C0F3810002280BD16C
:101EE000D9F80000400207D42868800716D5E068BA
:101EF000012800D112E033E1E068B8B10120C8F850
:101F00000000FFF771FD064605E000BFFFF76CFD1E
:101F1000801B0228C0D828688007F7D52868216967
:101F200020F0F80040EAC10028600DE0C8F800A0E9
:101F3000FFF75AFD064604E0FFF756FD801B022816
:101F40001FD828688007F7D42078000722D5864F4D
:101F500087486169703771B101210160FFF744FD65
:101F6000064604E0FFF740FD801B022809D83868C8
:101F70008007F7D50EE0C0F800A0FFF735FD064654
:101F800005E082E0FFF730FD801B02287DD838682D
:101F90008007F7D42078400768D5DFF8CCB1002758
:101FA0000BF13C0BDBF80000C0000BD4DBF8001099
:101FB00041F08051CBF80010DBF80000012700F061
:101FC000805000906B4E3068C00510D4306840F4EB
:101FD00080703060FFF708FD009005E0FFF704FD1A
:101FE0000099401A022850D83068C005F6D55E4ED8
:101FF000A0686C3601280FD00528306810D020F07A
:1020000001003060306820F004003060A068B8B192
:10201000FFF7EAFC00900FE0306840F00100F4E7C1
:1020200040F004003060F7E7FFF7DEFC0099411A4A
:1020300041F28830814266D830688007F4D50EE0DE
:10204000FFF7D2FC009007E0FFF7CEFC0099411AA1
:1020500041F28830814256D830688007F4D42FB1DD
:10206000DBF8001021F08051CBF80010A069C8B354
:102070003D49091D0968C1F3810102294AD002289E
:10208000504607D0C8F8600000E03CE0FFF7ACFC29
:1020900004463BE04746C8F86000FFF7A5FC06464B
:1020A00005E000BFFFF7A0FC801B02282BD82868A2
:1020B0008001F7D4D4E907010843A16A2E4A4908F0
:1020C00002EB0141626A41EA8211084394F82C1044
:1020D00040EA0161C9F8001001203866FFF784FC6E
:1020E000044606E03EE000BFFFF77EFC001B02282E
:1020F00009D828688001F7D534E000BFFFF774FCE9
:10210000001B022802D90320BDE8F88F286880014F
:10211000F4D427E00128F7D0D9F80000E26900F4F0
:10212000800191421CD1226A00F03F01914217D1F7
:1021300047F6C071626A0140B1EB821F10D1A26AFA
:102140004FF0FF3300F4403103EB5202B1EB024F8A
:1021500006D194F82C1000F07060B0EB016F01D044
:102160000120D1E70020CFE70438024000004742B9
:10217000800E4742007000400000FFFF70B5040071
:1021800009D0606A002540B125616561A56294F8B7
:10219000510040B10CE0012070BD6068B0F5827F55
:1021A000F4D0E561F2E784F85050204600F044F89E
:1021B000022084F851002068016821F0400101608C
:1021C000A088218900F4827001F404410843A189A8
:1021D00001F400610843217C01F002010843217DE4
:1021E00001F001010843218B01F400710843217FB4
:1021F00001F03801084394F8201001F080010843F1
:10220000218D01F40051084321680860A069042170
:1022100001EA104094F8241001F0100108432168ED
:1022200048602068C16921F40061C16165650120D1
:1022300084F85100002070BD10B586B0044614210A
:102240006846FEF779F814492068884221D113487E
:102250000021026842F400520260006800F400505D
:1022600005900E481438026842F0100202600068BF
:1022700000F0100005904FF4835000900220CDE94B
:102280000101032003900520049069460448FFF7EC
:1022900087FA06B010BD0000003401404438024007
:1022A000001002407047704770B590F83C20012A3A
:1022B00032D0012480F83C40022280F83D2003689F
:1022C0005A689D6822F070060A6832435A60134BC0
:1022D00002689A4214D0B2F1804F11D0104B9A424A
:1022E0000ED0104B9A420BD00F4B9A4208D00F4B96
:1022F0009A4205D00E4B9A4202D00E4B9A4204D11C
:10230000496825F080031943916080F83D40002121
:1023100080F83C10084670BD022070BD00000140EE
:102320000004004000080040000C00400004014090
:10233000004001400018004010B5040003D094F89C
:102340003D0010B107E0012010BD002084F83C00E2
:10235000204600F01FF8022084F83D00211D20686F
:1023600001F036F9012084F8460084F83E0084F834
:102370003F0084F8400084F8410084F8420084F86B
:10238000430084F8440084F8450084F83D000020B0
:1023900010BD000008B501681448B1F1804F14D099
:1023A000134A914220D1016841F0020101600068A6
:1023B000002200F00200009005211D20FFF7B2FB73
:1023C0001D20BDE80840FFF79FBB016841F00101F7
:1023D00001600068002200F00100009005211C202F
:1023E000FFF7A0FB1C20ECE708BD000040380240CE
:1023F0000004004090F83D10012901D001207047F1
:10240000022180F83D100168CA6842F00102CA60EA
:1024100000681149884214D0B0F1804F11D00F49A3
:1024200088420ED00E4988420BD00E49884208D00F
:102430000D49884205D00D49884202D00C49884296
:1024400004D1816801F00701062903D0016841F039
:1024500001010160002070470000014000040040BD
:1024600000080040000C0040000401400040014012
:102470000018004070B5044690F83C000025012883
:1024800017D0012684F83C60022084F83D002068C3
:10249000826822F0770222F47F4282600868502826
:1024A00038D00DDC20284FD005DC90B3102811D196
:1024B0004AE0022070BD302846D040280AD13BE0D7
:1024C00060282FD070280DD0B0F5805F03D0B0F514
:1024D000005F12D0012584F83D60002084F83C00A4
:1024E000284670BDCB68D1E90121206801F0D4F8FD
:1024F0002068816841F0770109E0CB68D1E90121CA
:10250000206801F0C9F82068816841F48041816049
:10251000E1E719E0CA684968206801F0CFF8502166
:10252000206806E0CA684968206801F0D8F8602190
:10253000206801F0BBF8CEE7CA684968206801F05E
:10254000BDF840212068F4E7226801461046F0E714
:10255000704770B50446006801694FF00005C94333
:10256000890715D4C168C943890711D4E91E0161DF
:1025700001202077206880698007204602D0FFF77D
:10258000E7FF04E000F098F8204600F096F8257781
:1025900020680169C943490717D4C168C94349077D
:1025A00013D46FF004010161022020772068806954
:1025B00010F4407F204602D0FFF7CAFF04E000F08D
:1025C0007BF8204600F079F8257720680169C94337
:1025D000090716D4C168C943090712D46FF008016E
:1025E0000161042020772068C0698007204602D05E
:1025F000FFF7AEFF04E000F05FF8204600F05DF862
:10260000257720680169C943C90617D4C168C94341
:10261000C90613D46FF010010161082020772068EB
:10262000C06910F4407F204602D0FFF791FF04E01C
:1026300000F042F8204600F040F825772068016954
:10264000C943C90708D1C168C943C90704D1891E54
:102650000161204600F032F820680169C94309068B
:1026600009D4C168C943090605D46FF0800101612E
:102670002046FFF717FE20680169C943490609D4BF
:10268000C168C943490605D46FF040010161204685
:1026900000F02AF820680169C94389060BD4C16893
:1026A000C943890607D46FF0200101612046BDE8C7
:1026B0007040FFF7F8BD70BD7047704710B5044615
:1026C00000680749884201D1FFF794F92068B0F10A
:1026D000804F03D1034800210278017010BD000033
:1026E00000200040180000207047704710B50446D5
:1026F0000068406994F83D10C0F3C010212911D141
:1027000080B12068143050E8001F21F0800140E8BB
:102710000012002AF5D1606B08B1FEF752FE204688
:1027200001F0FAF82068406994F83E10C0F3801078
:10273000222911D180B12068143050E8001F21F007
:10274000400140E80012002AF5D1A06B08B1FEF765
:1027500038FE204601F0B9F8002010BD7047000097
:10276000F8B5016804460868CA684B6910F00F0F95
:102770004FF0000559D003F0010602F4907737437B
:1027800065D0C10705D0D10503D5216C41F0010109
:102790002164410705D5D90703D0216C41F002011E
:1027A0002164810705D5D90703D0216C41F00401CC
:1027B0002164010707D502F02001314303D0216CC9
:1027C00041F008012164216C00293AD0800604D52B
:1027D000900602D5204601F0ADF820684069216CD2
:1027E000C0F38010090700D460B3204601F06DF8F3
:1027F00020684069400621D52068143050E8001F49
:1028000021F0400140E80012002AF5D1A06BA8B1E8
:102810006C490165A06BFEF71DFE002811D0A06B6E
:10282000016D01B0BDE8F040084783060FD593065F
:102830000DD52046BDE8F84001F07CB82046FFF7F2
:102840008DFFF8BD2046FFF789FF2564F8BD266B94
:102850002023012E79D1C60677D5D60675D508680E
:10286000486800904869400640D5A16B08684068F8
:102870000004000CEAD0A28D8242E7D9E085C86945
:10288000B0F5807F2DD020680C3050E8001F21F477
:10289000807140E80012002AF5D12068143050E819
:1028A000001F21F0010140E80012002AF5D1206844
:1028B000143050E8001F21F0400140E80012002AC7
:1028C000F5D184F83E30256320680C3050E8001FB5
:1028D00021F0100140E80012002AF5D1A06BFEF7AC
:1028E00070FDA08DE18D401A81B229E0A08DE18DAF
:1028F000401A81B2E08D0028A8D00029A6D0206817
:102900000C3050E8002F22F4907240E80026002E90
:10291000F5D12068143050E8002F22F0010240E881
:102920000026002EF5D184F83E30256320680C3057
:1029300050E8002F22F0100240E80023002BF5D1D0
:102940002046FFF7D2FEF8BDFFE705062BD515069A
:1029500029D594F83D002128F5D1A068B0F5805F15
:1029600001D12069B0B1206A411C21622168007840
:102970004860E08C401E0004000CE084E3D1206835
:10298000C16821F08001C1602068C16841F0400148
:10299000C160D8E7206A0088C0F308004860206A58
:1029A000801C2062E5E74006CDD55006CBD5CA682D
:1029B000204622F04002CA6084F83D3000F00FFA51
:1029C000C1E70000D537000870B5040004D094F8C2
:1029D0003D00002510B106E0012070BD84F83C5098
:1029E000204600F023F8242084F83D002068C168C8
:1029F00021F40051C160204600F0FCFF206801690D
:102A000021F4904101612068416921F02A0141616E
:102A10002068C16841F40051C1602564202084F819
:102A20003D0084F83E00002070BD00002DE9F04F0D
:102A300087B0054614216846FDF77EFCA148A149F0
:102A40009F4FD5F800C00024103902220323061539
:102A50004FF0080EBC4535D1076847F08047076046
:102A6000006800F080400590086840F02000086091
:102A70000868694600F020000590C0208DE8150028
:102A8000CDE9033E9048FEF78BFE914F8F483860AA
:102A90004FF02060C7E90104C7E903467C61BC61CF
:102AA000FC613C6238467C62FEF7B6FD08B1FEF779
:102AB00074F8AF63002205215220BD63FFF732F89E
:102AC00052205CE0DFF80C82DFF8F8B107270BF149
:102AD000040B4FF480794FF4803AC44554D1DBF8AD
:102AE00000C04CF0100CCBF800C0DBF8000000F088
:102AF00010000590086840F002000860086800F0C7
:102B000002000590086840F0010008600868CDE9FF
:102B1000024300F0010005908020CDE900029346B9
:102B20009846694604976C48FEF73AFE4FF40070E9
:102B3000CDE9000BCDE90248694604976748FEF7E6
:102B40002FFE634F6648603738604FF00060C7E97A
:102B50000104C7E9034607F118007C6180E810060C
:102B600038467C62FEF758FD08B1FEF716F8AF63F1
:102B7000002205212520BD63FEF7D4FF2520FEF7A6
:102B8000C3FF07B0BDE8F08FDFF85881C4453AD1E4
:102B9000D0F800C04CF4003CC0F800C0006800F45D
:102BA00000300590086840F0080008600868694631
:102BB00000F00800059060208DE81500CDE903378E
:102BC0004948FEF7EDFD424F4048C037303038608D
:102BD0004FF00060C7E90104C7E9034607F1180890
:102BE0007C6188E8100638467C62FEF715FD08B166
:102BF000FDF7D3FFAF63002205212620BD63FEF75A
:102C000091FF2620BBE7DFF8E480C4451AD10568B0
:102C100045F480250560006800F480200590086870
:102C200040F0080008600868694600F00800059058
:102C30004FF440708DE81500CDE903372A48FEF7C0
:102C4000AFFD9EE72A4884459BD1DBF8007047F032
:102C50002007CBF80070DBF8000000F020000590A2
:102C6000086840F0400008600868694600F04000CD
:102C700005904FF484408DE81500CDE9033E1D48D2
:102C8000FEF78EFD16481C4F183838608005C7E9DE
:102C90000104C7E9034607F118007C6180E81006CB
:102CA00038467C62FEF7B8FC08B1FDF776FFAF63EB
:102CB000002205214720BD63FEF734FF47205EE771
:102CC0000078004040380240001402405860024042
:102CD0001C070020001001400004024000000240D8
:102CE0004064024000440040000C024000480040A4
:102CF00000140140001802403C08002090F83E30CB
:102D0000202B0ED159B152B190F83C30012B08D094
:102D1000012380F83C300023036300F0F1BE012062
:102D20007047022070477047704700002DE9F84354
:102D3000044690F83D001F4616460D4620284CD10B
:102D4000C5B1BEB194F83C00012846D0012084F8FA
:102D50003C004FF00008C4F84080212084F83D007A
:102D6000FEF742FEA6848146E684A068B0F5805F47
:102D700003D004E00120BDE8F883206928B12E4685
:102D80005FF0000584F83C800EE00026FAE7802121
:102D9000204600F0FFFEA0B9AEB116F8010B216885
:102DA0004860E08C401EE084E08C4B464FF000020F
:102DB00000970028EBD14FF04001204600F0EAFEDA
:102DC00030B10320D7E735F8020BC0F30800E6E77F
:102DD000202084F83D000020CDE70220CBE770479B
:102DE000FEE700000F4810B50D4901600521416064
:102DF00000214FF400328160C0E9031252014261A8
:102E00000176012242768176C17601774177FEF71D
:102E10004CF9002803D0BDE81040FDF7BEBE10BD40
:102E200000640040200500200F4810B50D490160E6
:102E30000521416000214FF400328160C0E9031296
:102E4000520142610176012242768176C176017794
:102E50004177FEF72AF9002803D0BDE81040FDF7BE
:102E60009CBE10BD0068004048050020194808B508
:102E7000016841F480010160016801F48001009162
:102E8000016841F4001101600068002200F40010A4
:102E9000009005210E20FEF745FE0E20FEF734FEC1
:102EA000002205211020FEF73DFE1020FEF72CFE2B
:102EB000002205213920FEF735FE3920FEF724FED9
:102EC000002205213A20FEF72DFEBDE808403A20F9
:102ED000FEF71ABE3038024010B59CB01C221649CD
:102EE0006846FDF710FA0021684604F062F8134CBA
:102EF00011491C2220601C3107A8FDF704FA0021AB
:102F000007A804F056F80C4960601C2238310EA85E
:102F1000FDF7F9F900210EA804F04BF80649A0606E
:102F20001C22543115A8FDF7EEF9002115A804F074
:102F300040F8E0601CB010BD58840008300000204C
:102F40002DE9F04F87B014216846FDF7F5F9634885
:102F50000024016841F040010160016801F0400176
:102F60000591016841F001010160016801F0010172
:102F70000591016841F010010160016801F0100144
:102F80000591016841F002010160016801F0020150
:102F90000591016841F008010160016801F0080134
:102FA0000591016841F020010160016801F02001F4
:102FB0000591016841F480710160016801F480713C
:102FC0000591016841F080010160016801F0800114
:102FD0000591016841F0040101600068002200F0E1
:102FE0000400059044F203013D48FEF7F8FC3D4E15
:102FF000012211463046FEF7F2FCDFF8EC90002289
:10300000FE214846FEF7EBFCDFF8E0A04FF4E05766
:10301000012239465046FEF7E2FCDFF8D4B0002228
:1030200004215846FEF7DBFC4FF4006800224146BD
:103030003048FEF7D4FC002201212F48FEF7CFFCD8
:10304000032000900125CDE90154694624480394EA
:10305000FEF7A6FB0095CDE901546946304603947E
:10306000FEF79EFBFE20022603948DE86100694670
:103070004846FEF795FB0097CDE901546946504656
:103080000394FEF78DFB04200090CDE901546946BE
:1030900058460394FEF784FB30208DE851006946C2
:1030A0005846FEF77DFBCDE90264CDE9008569460F
:1030B0001048FEF775FB0095CDE9015469460E48AE
:1030C0000394FEF76DFBA80303948DE86100694645
:1030D0000348FEF765FB07B0BDE8F08F30380240CB
:1030E000001402400020024000180240001C024070
:1030F000000802400010024000040240114810B5D0
:103100000F4901604FF48271416000214FF4006269
:10311000C0E902120122C0E9041252028261202297
:10312000C0E90721416281620A21C162FFF726F8E6
:10313000002803D0BDE81040FDF72FBD10BD0000F2
:10314000003401407005002010B586B000241648F8
:10315000009401940294039404944FF080410594E8
:10316000016040F20771C0E901141049C0E903147D
:103170008461FFF7E1F808B1FDF70FFD4FF48050CF
:10318000009069460848FFF775F908B1FDF705FD9D
:10319000049404A904480594FFF786F8002801D098
:1031A000FDF7FBFC06B010BDFC0800209F86010067
:1031B00010B586B00024174800940194029403943B
:1031C0000494134905940160B321C0E9011444F645
:1031D0001F61C0E903148461FFF7AEF808B1FDF781
:1031E000DCFC4FF48050009069460A48FFF742F932
:1031F00008B1FDF7D2FC049404A906480594FFF732
:1032000053F8002801D0FDF7C8FC06B010BD00003F
:1032100000040040440900200C4810B50A49016030
:103220004FF4E1314160002181600C22C160C0E9AE
:1032300004128161C161FFF7C7FB002803D0BDE81C
:103240001040FDF7AABC10BD00780040C805002062
:103250000C4810B50A4901600B49416000218160AA
:103260000C22C160C0E904128161C161FFF7ACFBAF
:10327000002803D0BDE81040FDF78FBC10BD000052
:10328000001001400C060020A08601000C4810B57B
:103290000A4901604FF4E1314160002181600C2254
:1032A000C160C0E904128161C161FFF78DFB002894
:1032B00003D0BDE81040FDF770BC10BD00440040D5
:1032C000500600200C4810B50A4901604FF4E13166
:1032D0004160002181600C22C160C0E9041281615B
:1032E000C161FFF771FB002803D0BDE81040FDF776
:1032F00054BC10BD00480040940600200C4810B596
:103300000A4901604FF4E1314160002181600C22E3
:10331000C160C0E904128161C161FFF755FB00285B
:1033200003D0BDE81040FDF738BC10BD00140140CB
:10333000D8060020FEE7FEE730B40B4C44660B4C89
:10334000DFED0B1A8466C0ED0E1AC0ED0D1AC0ED4C
:103350000F1AC0ED101AC0ED111AC0ED121AC0ED0F
:10336000131A30BC03F032BFCD710008DB710008C6
:103370000000000002461048012A09D0022A04D0A9
:10338000032A0DD0042A15D10C4889B1012205E089
:1033900009B1012200E00022022107E0012105E03D
:1033A000074809B1012200E000220421FEF717BB03
:1033B0000022F3E7704700000014024000040240BE
:1033C00000080240F0B503F502601C4690EC030AC9
:1033D00085B00025204603F013FC00BF05EB8500F7
:1033E000C0EB851004EB8000D0ED420A90ED410A5D
:1033F000983003F009FE6D1CEDB2042DEED30026CB
:1034000006EB4600C0EB861004EB800505F58067EF
:1034100005F57770D7ED300A97ED2F0A03F0F4FD2C
:10342000D7ED060A97ED2D0A05F5896003F0ECFD4E
:10343000761CF6B2042EE3D35FF0000000EB8001AF
:10344000C1EB801104EB810191ED350ABDEEC00A9C
:1034500010EE102AA1F80C2100EB4001C1EB801105
:1034600004EB810101F58062401C92ED210AC0B29B
:103470000428BDEEC00A10EE102AA1F8C424DDD342
:1034800094F82400C0B1B4F9C40401ADB4F9A03774
:10349000B4F9AC26B4F9B81585E80F00B4F9D00337
:1034A0000090B4F9E432B4F9F821B4F90C110748EA
:1034B00004F0FEF905B0F0BD0020019002900390E9
:1034C00004900346024601460090F0E720050020E4
:1034D00010B5502080F31188BFF34F8FBFF36F8F6B
:1034E00004F0F2FE18B104494FF08050086000204B
:1034F00080F3118810BD000004ED00E030B593B0FA
:1035000030216846FCF718FF14210CA8FCF714FFC3
:1035100020480025016841F080510160006800F0FA
:10352000805011901C48016841F4404101600068DE
:10353000022400F4404011900120039010200490D8
:10354000009406940820CDE90750B420CDE9090481
:1035500004200B906846FEF75BFC08B172B6FEE7EC
:10356000FEF712FB08B172B6FEE70CA90F2081E846
:1035700031004FF4A0500F904FF48050109005216F
:103580000CA8FEF739FB002801D072B6FEE713B095
:1035900030BD000040380240007000400248016821
:1035A00041F470010160704788ED00E00148FEF7CA
:1035B000D0BF0000FC0800200148FEF7CABF000091
:1035C000440900200148FEF7C4BF0000B4080020F1
:1035D000F0B50268254C264D264E274F274B4FF05D
:1035E000804CA04209D0604507D0A84205D0B04227
:1035F00003D0B84201D0984204D122F0700E4A683C
:1036000042EA0E02A0421BD0604519D0A84217D052
:10361000B04215D0B84213D0984211D0184DA842EC
:103620000ED0184DA8420BD0174DA84208D0174D08
:10363000A84205D0164DA84202D0164DA84203D18B
:1036400022F44075CA682A434D6922F080022A4359
:1036500002608A68C2620A688262A04201D098420F
:1036600001D10969016301214161F0BD0000014000
:103670000004004000080040000C0040000401402D
:103680000040014000440140004801400018004053
:10369000001C00400020004010B5846842EA03226C
:1036A00024F47F440A432243826010BD826822F0E2
:1036B00070020A4342F007018160704710B5036A47
:1036C000046A24F001040462846924F0F00444EAEA
:1036D000021423F00A020A438461026210BD10B58D
:1036E000036A23F0100303628369046A23F47043BE
:1036F00043EA023224F0A00343EA0111826101622D
:1037000010BD000038B52748FFF72AF8254826499C
:103710000068884245D10168C943C90641D401689F
:103720000024406800901F48FEF7E0FF1F48006833
:1037300040681F4AC0F1FF00C0B210701C2828D199
:103740001C4B1D4800215D18AD784554491C1829B3
:10375000F9DB90ED000A1949B1EE400A81ED000A4B
:10376000174990ED010A81ED000A164990ED020A11
:1037700081ED000A144990ED030A81ED000A134916
:1037800090ED040A81ED000A90ED050A104880EDE5
:10379000000A1470BDE83840FF2206490148FFF7CF
:1037A000ADBA38BDC8050020007800401C070020D5
:1037B00019000020CC0000209C08002008000020F8
:1037C0000C00002010000020000000200400002059
:1037D0001400002010B5806B0021C185C184FEF764
:1037E000BDFF10BD70B5846B2068406994F83D1032
:1037F000C0F3C0100025212904D118B1E58420466A
:1038000000F08AF82068406994F83E10C0F38010F8
:10381000222904D118B1E585204600F056F8206C25
:1038200040F0100020642046FEF798FF70BD10B5F0
:103830000146806B09680968C9052FD40021C1853C
:1038400001680C3151E8002F22F4807241E8002316
:10385000002BF5D10168143151E8002F22F001024C
:1038600041E80023002BF5D10168143151E8002F05
:1038700022F0400241E80023002BF5D1202180F8FE
:103880003E10016B012909D101680C3151E8002F6C
:1038900022F0100241E80023002BF5D1016B012931
:1038A00002D0FFF740FA10BD818DFEF71EFF10BD5C
:1038B00010B5806B016B012902D0FFF735FA10BDFE
:1038C000818D4908FEF711FF10BD01680C3151E8E8
:1038D000002F22F4907241E80023002BF5D10168FB
:1038E000143151E8002F22F0010241E80023002B9F
:1038F000F5D1016B012909D101680C3151E8002F84
:1039000022F0100241E80023002BF5D1202180F89D
:103910003E1000210163704701680C3151E8002F0F
:1039200022F0C00241E80023002BF5D1202180F8CD
:103930003D10704708B590F83E10222901D00220B2
:1039400008BD82684FF480539A4201D1016921B1C8
:10395000816A9A421BD04AB10AE00268816A5268C1
:10396000C2F308020A80816A891C08E0026972B108
:103970000268526802F07F020A70816A491C816203
:10398000C18D491E0904090CC18503D019E00268E4
:103990005268F1E70168CA6822F02002CA60016833
:1039A000CA6822F48072CA6001684A6922F0010282
:1039B0004A61202180F83E10016B012903D0FFF7F6
:1039C000B2F9002008BD0021016301680C3151E803
:1039D000002F22F0100241E80023002BF5D10168EE
:1039E0000A68D20602D50A6849680091818DFEF7FF
:1039F0007CFEE6E770B5044600680169E26821F4E0
:103A00004051114301612169A068E269084361697D
:103A1000114308432168CA6849F20C639A43024380
:103A2000CA6020684169A26921F440711143416173
:103A300031492068884202D03049884202D1FEF7DD
:103A4000A5F901E0FEF792F9E26900231921642546
:103A50003226B2F5004F626828D0A0FB0101930F17
:103A60009200FCF71FFC0146B0FBF5F06FF0180266
:103A7000504301EB800006EB0010B0FBF5F000F0C6
:103A8000F002B1FBF5F002EB0012B1FBF5F06FF0C4
:103A90001803584301EB800006EB0010B0FBF5F073
:103AA00000F00F0021681044886070BDA0FB010188
:103AB00092185B41FCF7F6FB0146B0FBF5F0020102
:103AC000B1FBF5F06FF01803584301EB800006EBF3
:103AD000C000B0FBF5F000F0F80002EB4002B1FBD3
:103AE000F5F0584301EB800006EBC000B0FBF5F0A9
:103AF00000F00700D6E7000000100140001401406C
:103B000038B581628285002513460446056422206B
:103B100084F83E00A26B1C48D063A26B1B48106463
:103B2000A26B1B48D064A06B0A4605652168A06B98
:103B3000091DFDF7FEFD206801684068009084F8CB
:103B40003C50206948B120680C3050E8001F41F417
:103B5000807140E80012002AF5D12068143050E846
:103B6000001F41F0010140E80012002AF5D1206851
:103B7000143050E8001F41F0400140E80012002AD4
:103B8000F5D1002038BD00002F380008B1380008FA
:103B9000E53700082DE9F041984617460E460446E1
:103BA000069D27E0681C25D02DB1FDF71DFFA0EB79
:103BB0000800A8421ED920680C3050E8001F21F4EC
:103BC000D07140E80012002AF5D12068143050E886
:103BD000001F21F0010140E80012002AF5D1202049
:103BE00084F83D0084F83E00002084F83C00032067
:103BF000BDE8F0812068006836EA000004D00020AB
:103C0000B842CFD00020F3E70120F9E710B504480F
:103C100004F04EF8BDE810400148FEF7A1BD0000D9
:103C20000C0600202DE9F8434848FEF799FD474867
:103C3000474A0021006890427ED10268D243D206F2
:103C40007AD489460168406800904048FEF74EFDEE
:103C5000404800684068404CC0F1FF0020703F4879
:103C60000178552965D14178AA2962D1017D0D29B4
:103C70005FD1417D0A295CD18178012959D101792F
:103C800050F8052F374E41EA0222C178436800EE12
:103C9000102A41EA0323C1798568F8EEC00A41EA97
:103CA000052100EE103AC57AC068B8EEC01A45EAA0
:103CB000002000EE101A2A4D2B4FB8EEC00AC5EDB9
:103CC000000A86ED001A87ED000ABDEEC00ADFF893
:103CD0009C8010EE103ABDEEC10AC8F800000090BA
:103CE00010EE102ABDEEE00A21A010EE101A00F02E
:103CF0008DF895ED000A27A0BDEEC00A10EE101A4F
:103D000000F070F896ED000A26A0BDEEC00A10EE95
:103D1000101A00F067F897ED000A26A0BDEEC00A61
:103D200010EE101A00F05EF826A0D8F8001000F08F
:103D300059F884F8009000E006E0BDE8F843FF225F
:103D400006490248FEF7DABFBDE8F88350060020B6
:103D500000440040DC0700202C000020CB010020A4
:103D6000200000201C00002024000020280000204B
:103D7000593D256420202020583D25642020202006
:103D80007961773D25642020666C61673D25640D6F
:103D90000A0000006E32302E76616C3D2564FFFF14
:103DA000FF0000006E32312E76616C3D2564FFFF0E
:103DB000FF0000006E32322E76616C3D2564FFFFFD
:103DC000FF0000006E32362E76616C3D2564FFFFE9
:103DD000FF0000000148FEF7C3BC0000D806002029
:103DE000FEE700000FB4802100B5A1B023AB684608
:103DF000229A00F01BF882B2FF2369460248FEF7C0
:103E000095FF21B05DF814FB500600200FB4054B60
:103E100010B503A9044A029801F0F6FE10BC5DF843
:103E200014FB0000E96D0008C40000207CB50446C6
:103E300000201D46164600290BD0491ECDE9004141
:103E4000044B6A462946304601F0DEFE009A002106
:103E500011707CBD3763000803B4019841000098DD
:103E600050EAC12018BF04204A0D18BF40F00100DD
:103E700040F2FF72B2EB515F08BF40F00200012830
:103E800008BF052002B070470907090E002804DBAF
:103E900000F1E02080F80014704700F00F0000F1FE
:103EA000E02080F8141D704770B59B482DED020B83
:103EB0002DED068B079D25F00044A04218DC9748A5
:103EC000844202DC0AD1069840B19DED060BBDECA0
:103ED000068B02B0BDE8704001F07ABD002DCCBF6A
:103EE0009FED8F0B9FED900BBDEC068B02B070BD6C
:103EF0008F48A04215DD8F48A042D8BF4FF0FF3455
:103F000058DD9DED060B51EC100BFFF7A5FF0428C3
:103F100008BF01F091FD9DED060BBDEC068B02B0D4
:103F200070BD9DED060B51EC100B02F051FFCDE979
:103F3000060181489FED828BA0423CDD8248A04271
:103F40001FDD00249FED82AB9DED060B53EC1A2B79
:103F500051EC100BFCF7FBF99DED060B41EC190B36
:103F600053EC1A2B51EC100BFCF798FA53EC182B6E
:103F7000FCF78EFA53EC192BFCF702FBCDE9060196
:103F800049E09DED060B012453EC182B51EC100B6E
:103F9000FCF7DDF99DED060B41EC190B53EC182BEA
:103FA00051EC100BFCF774FA53EC192BFCF7E8FA00
:103FB000CDE906012FE06848A0421FDD02249FEDF5
:103FC000689B9DED060B53EC192B51EC100BFCF785
:103FD00065FA53EC182BFCF7BAF99DED060B41EC92
:103FE000180B53EC192B51EC100BFCF751FA53EC56
:103FF000182BFCF7C5FACDE906010CE09DED060B88
:10400000032453EC102B9FED580B51EC100BFCF7D5
:10401000B7FACDE906019DED060B53EC102B51ECE0
:10402000100BFCF73BFA41EC180B53EC182BFCF788
:1040300035FA41EC190B4E480621B0EE490AF0EE74
:10404000690A784401F098FB53EC182B51EC100BE3
:10405000FCF724FA41EC180B4648B0EE490AF0EEA2
:10406000690A0521784401F087FB53EC192B51ECC8
:10407000100BFCF713FA41EC100B51EC180B53EC3E
:10408000102B002C0EDAFCF762F99DED061B53ECA9
:10409000112BFCF703FA9DED061B53EC112BFCF7DB
:1040A000FAF935E0FCF753F99DED061B53EC112BA3
:1040B000FCF7F4F941EC100B2F48784400EBC400F6
:1040C00090ED001B51EC100B53EC112BFCF7E0F9B9
:1040D0009DED061B53EC112BFCF7DAF941EC100BAC
:1040E0002648784400EBC40090ED001B51EC100B07
:1040F00053EC112BFCF7CFF941EC100B002DA2BFB4
:10410000BDEC068B02B070BD51EC100B81F000418C
:1041100041EC100B01E70000000010440000F07FAC
:10412000182D4454FB21F93F182D4454FB21F9BFAD
:104130000000DC3F0000203E0000F33F00000000D4
:10414000000000000000F03F0000E63F000000001B
:10415000000000000000004000800340000000005C
:10416000000000000000F83F000000000000F0BF69
:104170000A450000C04400004A4400000244000018
:1041800070B56B4E2DED040B2DED028B82B0DDF87A
:104190001CC0DDE905235C422CF000411C4341EAD0
:1041A000D474049D22F00040B44205D86C422C43E4
:1041B00040EAD474B4420BD99DED061B9DED040B6F
:1041C00002B0BDEC028B04B0BDE8704001F00ABC47
:1041D000ACF14054A4F17F641C430BD0022404EAE8
:1041E000AC7444EAD27405439FED538B9FED542B7E
:1041F00007D015E09DED040B51EC100B02F0BBF85D
:1042000042E0002C11BF012C9DED040B02B0BDEC6F
:10421000028B04BF04B070BD022C38D0032C3BD0FD
:104220000B439FED491B9FED4A0B0AD0B14218D1B9
:10423000B04209D121F0804120F0804007910590E3
:104240000FE0002A15DA10E0434B7B44002C08BF36
:1042500093ED000B0DD0012C10D0022C17D0032CA5
:104260001AD0B0421DD1002A03DAB0EE410AF0EEB6
:10427000610A02B0BDEC028B04B070BD93ED000B7F
:1042800051EC100B81F0004141EC100BF1E7B0EE66
:10429000480AF0EE680AECE7B0EE420AF0EE620A75
:1042A000E7E7401A00153C28C8BF8DED000B19DC6C
:1042B000BCF1000FBEBF10F13C0F9FED290B8DED3F
:1042C000000B0FDB9DED060B53EC102B9DED040B4B
:1042D00051EC100BFCF754F902F07AFD02F04BF8A8
:1042E000CDE90001002C08BF9DED000BC1D0012CD1
:1042F00010D0022C9FED1C0B53EC102B9DED000BEE
:1043000051EC100B0DD0FCF7C3F853EC182BFCF755
:10431000BFF8B9E7019880F0004001909DED000BD7
:10432000A7E7FCF7B5F853EC182BFCF7B4F8ABE7AC
:104330000000F07F00000000182D4454FB210940CC
:10434000182D4454FB2109C0182D4454FB21F9BFFA
:10435000182D4454FB21F93FEA43000000000000FF
:104360000000000000000000075C143326A6A13CFA
:1043700010B52F499FED2C1B2DED020B84B0059835
:1043800020F000408842D8BF9DED040B2DDD294967
:10439000884209D1049840B94FF0010001F06CFB4C
:1043A00001F02AFB06B010BD05DB9DED040B01F00A
:1043B0000FFB06B010BD68469DED040B00F008FF32
:1043C00010F0030004BF9DED021B9DED000B0CD00F
:1043D00001280ED09DED021B9DED000B022817D089
:1043E000012001F045FA06B010BD01F00DF906B04C
:1043F00010BD9DED021B9DED000B012001F038FA70
:1044000051EC100B81F0004106B041EC100B10BDD7
:1044100001F0FAF851EC100B81F0004106B041ECCC
:10442000100B10BD000000000000000000000000A4
:10443000FB21E93F0000F07F2DE9F04D2DED040B4D
:104440002DED0E8B96B0DDE92550279CDDF890A070
:1044500025F0004624F00048BAF1000F14BF0121F6
:10446000002101EB4502FC4953184A1093422AD31C
:10447000002814BF0123002303EB44030B44F74936
:104480008B4220D358EA00019FEDF59B76D0DFF8F0
:10449000D8B35D4503D1BAF1000F05D188E0BAF178
:1044A000000F08BF002100D0012101EB450111F5EB
:1044B000001F08D8002814BF0121002101EB44018E
:1044C00011F5001F0BD99DED261B9DED240B16B099
:1044D000BDEC0E8B04B0BDE8F04D01F083BA0027AF
:1044E000002DBCBFE149884521DAE1498845A8BFD4
:1044F00002271CDAC3451ADCDE4901EB28511429D6
:1045000008DDC1F1340220FA02F101FA02F282421E
:104510000DD108E058B9C1F1140228FA02F101FAEC
:1045200002F2424503D101F00101C1F1020756EA4E
:104530000A0124D1002C22DA002D18BF022F01D04D
:10454000012F0AD0022001F097FA16B0BDEC0E8BB5
:1045500004B0BDE8F04D01F023BA022001F08CFA5E
:1045600001F01EFA51EC100B81F0004141EC100BF0
:1045700016B0BDEC0E8B04B0BDE8F08D18E09FEDD9
:10458000BEAB9FEDBF8B002871D1B848804522D1CA
:1045900005F1804010F5801008BFBAF1000F07D078
:1045A000B3450ADC002CA8BF9DED260BE0DA0DE038
:1045B000B0EE490AF0EE690ADAE7002C06DA9DED62
:1045C000260B51EC100B81F000416FE0AE487844AF
:1045D00090ED000BCCE7D8454DD1002C48DA2EB138
:1045E00086423AD1BAF1000F42D126E0BAF1000F6B
:1045F00013D0022001F040FA01F00EFA8DED020B0B
:104600009DED240B8DED000B10EE900A039961F3E4
:104610001E0003909DED020BAAE78DED02AB9DED10
:10462000240B1AEE901A10EE900A8DED000B61F338
:104630001E0003909DED020B9AE78DED028B9DED20
:10464000240B18EE901A10EE900A8DED000B61F31A
:104650001E0003909DED020B8AE709DA9DED240B05
:1046600051EC190B53EC102BFBF78AFF1EE020E0F6
:104670009DED240B7CE786421BDAB4F1804F0DD010
:10468000A4F10050B0F1FF5013D1002D11DB9DEDCE
:10469000240B51EC100B03F087FA07E09DED240B7F
:1046A00053EC102B51EC100B00F0C2BC41EC100B82
:1046B0005EE79DED240B51EC100B02F089FBBAF183
:1046C000000FCDE90E0142D19FED710B46B3A6F16B
:1046D000E040B0F17F600CD05E4538D1002D00DAAB
:1046E000A7B3022F0CBF01204FF0FF30FBF7B7FF3D
:1046F000DCE7002D01DD002C0DDA002D01DD002CA2
:104700001FDB002D16DA002C14DB012F08BF9FEDF4
:10471000620B3FF42DAFB0EE4A0AF0EE6A0A27E7CB
:10472000022F18BF002D0CD0012F0AD1002DFFF64B
:104730001FAF06E0002DB8BF002C08DA012F3FF4B0
:1047400017AFB0EE480AF0EE680A11E71BE001204F
:1047500000EBE57050EA070115D0791EB0EE498AEA
:10476000F0EE698A084308BF9FED4D8B4E48002547
:10477000804570DD4D494E48884514DDB0420DDB63
:10478000002C19DB2FE0012001F076F916B0BDEC0A
:104790000E8B04B0BDE8F04D01F02EB9B34502DC3C
:1047A000002C09DC1FE0864202DA002C1BDA03E051
:1047B0005E452BDD002C16DD022001F05DF901F0D5
:1047C0002BF98DED020B53EC1A2B51EC180BFBF768
:1047D00065FECDE900010399019861F31E00039085
:1047E0009DED020BC4E6022001F046F901F024F928
:1047F00010EE901A18EE900A8DED020B8DED008BE5
:1048000061F31E0003909DED020BB1E69DED0E0BD2
:1048100053EC192B51EC100BFBF73AFE9FED260BD6
:10482000CDE9080153EC102B9DED080B51EC100B5A
:10483000FBF734FE9FED221B53EC112BFBF72BFEF5
:104840009DED081B53EC112BFBF728FE9FED1E1B63
:1048500053EC112B3CE08CE0FFFF1F00FFFF0F002B
:10486000000000000000F03F0000F03F0000F07F7B
:104870000000404301FCFFFF000000000000F07F4B
:104880000000000000000000664000000000000082
:104890000000000000000080000000000000F0FFA9
:1048A000000000000000F0BF0000E0410000F04305
:1048B000FFFFEF3F00000000000000000000D03FBD
:1048C000555555555555D53F000000000000E03FB7
:1048D000FBF7E1FD9DED080B41EC1A0B53EC102B9F
:1048E00051EC100BFBF7DAFD53EC1A2BFBF7D6FD5E
:1048F00041EC1A0B9FEDFE0B53EC102B9DED080BBA
:1049000051EC100BFBF7CAFD41EC1B0B9FEDFA0BB2
:1049100051EC1A0B53EC102BFBF7C0FD41EC1A0BBA
:104920009FEDF70B53EC102B9DED080B51EC100B8A
:10493000FBF7B4FD53EC1A2BFBF7AAFD41EC1A0B65
:1049400051EC1B0B53EC1A2BFBF701FD0690CDE944
:1049500006519DED060B53EC1B2B51EC100BFBF796
:1049600097FD53EC1A2BFBF796FD41EC100B00F072
:10497000A1B90020B6F5801F0EDA9FEDE30B53ECD2
:10498000102B9DED0E0B51EC100BFBF787FDCDE9C5
:104990000E016FF034000E4600EB2650A0F2FF37F8
:1049A000C6F31300DA4940F07F6646F0405688426D
:1049B000D8BF002408DDD7498142C8BF012403DCE9
:1049C0000024A6F580167F1CD348784400EBC40071
:1049D0000F9690ED00CB9DED0E0B53EC1C2B51EC84
:1049E000100BFBF755FD9DED0E0B41EC1B0B53EC33
:1049F0001C2B51EC100BFBF7AAFC41EC100B51ECFB
:104A0000190B53EC102BFBF7BBFD41EC1D0B51ECCC
:104A10001B0B53EC1D2BFBF741FD41EC1A0BBF4860
:104A20008DED10AB7844109590ED000B4FF00050D9
:104A300040EA660000EB84408DED080B00F5002095
:104A400009909DED080B53EC1C2B51EC100BFBF760
:104A50001FFD9DED0E1B53EC112BFBF71CFD41ECD4
:104A6000100B53EC102B9DED100B51EC100BFBF7C2
:104A700015FD9DED080B41EC1C0B53EC102B9DED2F
:104A8000100B51EC100BFBF709FD53EC1B2BFBF744
:104A900002FD53EC1C2BFBF7FBFC53EC1D2BFBF72F
:104AA000FDFC41EC1C0B53EC1A2B51EC1A0BFBF7E1
:104AB000F5FC41EC1B0B9A480621B0EE4B0AF0EED8
:104AC0006B0A784400F058FEB0EE401AF0EE601A1F
:104AD000B0EE41DAF0EE61DA53EC1B2B51EC1B0B1C
:104AE000FBF7DCFC53EC1D2BFBF7D8FC9DED100B0A
:104AF00041EC1B0B53EC1A2B51EC100BFBF727FC72
:104B000053EC1C2BFBF7CAFC53EC1B2BFBF71FFCD5
:104B10009DED100B41EC1B0B53EC102B51EC100BCB
:104B2000FBF7BCFC41EC1D0B9FED7FEB53EC1E2B08
:104B3000FBF70DFC53EC1B2BFBF709FC0890CDE9B0
:104B400008519DED080B53EC1E2B51EC100BFBF79D
:104B50009FFC53EC1D2BFBF79BFC53EC1B2BFBF733
:104B60009AFC9DED080B41EC1D0B53EC102B9DEDB9
:104B7000100B51EC100BFBF791FC41EC1B0B53ECB1
:104B80001A2B51EC1D0BFBF789FC9DED080B41EC3A
:104B90001A0B53EC102B51EC1C0BFBF77FFC53EC66
:104BA0001A2BFBF7D4FB41EC1A0B51EC1B0B53EC0B
:104BB0001A2BFBF7CCFB0C90CDE90C519DED0C0BA7
:104BC00053EC1B2B51EC100BFBF762FC53EC1A2B34
:104BD000FBF761FC41EC1B0B9FED550B53EC102BCD
:104BE0009DED0C0B51EC100BFBF758FC41EC1A0B34
:104BF0009FED510B51EC1B0B53EC102BFBF74EFCB4
:104C000041EC1B0B9FED4E0B53EC102B9DED0C0B51
:104C100051EC100BFBF742FC53EC1B2BFBF797FB03
:104C200041EC100B4848784400EBC40090ED001BA9
:104C300051EC100B53EC112BFBF789FB41EC1B0BD8
:104C40003846FBF70CFDCDE9080153EC1B2B51EC6A
:104C50001A0BFBF77CFB41EC100B3C48784400EB53
:104C6000C40090ED00CB51EC100B53EC1C2BFBF768
:104C70006EFB9DED081B53EC112BFBF768FB0690B8
:104C8000CDE906519DED080B53EC102B9DED060B65
:104C900051EC100BFBF7FCFB53EC1C2BFBF7F8FB68
:104CA00053EC1A2BFBF7F4FB53EC1B2BFBF7F3FB3A
:104CB00041EC100B9DED261B53EC102B8DED001BD2
:104CC00000959DED260B51EC100BFBF7E7FB9DEDDE
:104CD000000B41EC1A0B53EC102B9DED260B51EC05
:104CE000100BFBF7D5FB9DED061B53EC112B2FE0B2
:104CF000000000604715F73FFE822B654715F73F20
:104D000044DF5DF80BAE543E00000000000040435D
:104D10008E9803007AB60B00B23B0000103C0000F6
:104D2000EA3A000000000000000000000000084017
:104D3000000000E009C7EE3FFD033ADC09C7EE3F83
:104D4000F5015B14E02F3EBE7639000030390000DB
:104D5000FBF7A4FB53EC1A2BFBF7F9FA9DED060BBE
:104D600041EC1A0B53EC102B9DED000B51EC100B8A
:104D7000FBF794FBCDE90C019DED0C0B51EC1A0BEC
:104D800053EC102BFBF7E3FACDE902010C46AA49DC
:104D90008C422FDB611A084318D19DED0C0B53ECAC
:104DA000102B9DED020B51EC100BFBF771FB41EC4E
:104DB0001B0B9FEDA30B51EC1A0B53EC102BFBF7C5
:104DC000C6FA53EC1B2BFBF7F3FD2DD2022000F0AB
:104DD00053FE00F021FE10EE901A18EE900A8DEDB1
:104DE000020B8DED008B61F31E0003909DED020B15
:104DF000FFF7BEBB944A24F00041914214D393497B
:104E0000214408437FF4EFAC9DED0C0B53EC102BC9
:104E10009DED020B51EC100BFBF73AFB53EC1A2BF8
:104E2000FBF7C6FD7FF6DFAC24F000408849894AD5
:104E3000002601EB205182422BDA481C4FF48011EE
:104E400021FA00F02044844AC0F30A517A44A1F2C6
:104E5000FF3192ED000B814A8DED080BCA4020EA2C
:104E60000202C0F3130040F48010C1F1140120FAD3
:104E700001F60992002CB8BF76429DED080B53EC69
:104E8000102B9DED0C0B51EC100BFBF701FBCDE94A
:104E90000C019DED0C0B51EC1A0B53EC102BFBF796
:104EA00056FA9FED6F0B0890CDE9085153EC102B8B
:104EB0009DED080B51EC100BFBF7F0FA41EC1B0BCE
:104EC0009FED690B53EC102B9DED080B51EC100B73
:104ED000FBF7E4FA9DED0C0B41EC1C0B53EC102B93
:104EE0009DED080B51EC100BFBF7D2FA53EC1A2B8B
:104EF000FBF7D1FA9FED5E1B53EC112BFBF7CEFABB
:104F000053EC1C2BFBF723FA41EC1A0B51EC1B0B57
:104F100053EC1A2BFBF71BFACDE902019DED020BB6
:104F200053EC1B2B51EC100BFBF7B2FA53EC1A2B82
:104F3000FBF7B1FA9DED020B41EC1A0B53EC102B71
:104F400051EC100BFBF7AAFACDE908014A489DED98
:104F5000080B0521784400F00FFC9DED081B51EC77
:104F6000100B53EC112BFBF799FA9DED021B53EC40
:104F7000112BFBF790FACDE906019DED020B53ECE6
:104F80001A2B51EC100BFBF789FA53EC1A2BFBF799
:104F9000DEF99FED3B0B41EC1A0B53EC102B9DED12
:104FA000060B51EC100BFBF773FA9DED060B41EC71
:104FB0001B0B53EC102B9DED020B51EC100BFBF770
:104FC0006DFA53EC1B2BFBF7DBFA53EC1A2BFBF7B8
:104FD0005FFA9DED021B53EC112BFBF759FA53ECD2
:104FE000192BFBF758FACDE9020101EB0650011528
:104FF0000029C8BF039015DC9DED020B324651EC31
:10500000100BFBF754FCFEF727FF042808BF00F045
:1050100013FD32469DED020B51EC100BFBF747FCE4
:10502000CDE902019DED020B51EC180B53EC102B56
:10503000FBF734FAFFF73ABB000090400000000095
:10504000FE822B654715973C00CC904000346F3FA3
:1050500001FCFFFF0000E03FE8370000FFFF0F000A
:1050600000000000432EE63F396CA80C615C20BEB6
:10507000EF39FAFE422EE63F8836000000000000BD
:10508000000000000000004010B52F499FED2C1BD0
:105090002DED020B84B0059820F000408842DCBF63
:1050A00000209DED040B32DD2849884209D1049887
:1050B00040B94FF0010000F0DFFC00F09DFC06B0AD
:1050C00010BD05DB9DED040B00F082FC06B010BDA9
:1050D00068469DED040B00F07BF810F0030011D042
:1050E000012818D09DED021B9DED000B02281AD05F
:1050F00000F08AFA51EC100B81F0004106B041EC4F
:10510000100B10BD9DED021B9DED000B012000F06A
:10511000AFFB06B010BD9DED021B9DED000B00F036
:1051200073FA06B010BD012000F0A2FB51EC100B89
:1051300081F0004106B041EC100B10BD00000000F2
:105140000000000000000000FB21E93F0000F07FAC
:1051500000B52DED048BB0EE409AF0EE609A83B06E
:1051600051EC190BFBF7BAFB41EC180B18EE100AC7
:1051700018EE901A8DED008B002818BF012008430F
:1051800020F00040C0F17F6000F1E040C00F14D07B
:1051900019EE101A19EE900A8DED009B002918BF28
:1051A0000121084320F00040C0F17F6000F1E040A1
:1051B000C00F04BF012000F05FFCB0EE480A03B04E
:1051C000F0EE680ABDEC048B00BD0000000000009A
:1051D0002DE9F14F04462DED020B2DED088B8AB021
:1051E0009FEDE70B80ED020B139EE74826F000458C
:1051F00085420ADC9DED120B002084ED000B0AB005
:10520000BDEC088B03B0BDE8F08FE0489FEDE0AB4C
:105210009FEDE1BBA84247DDE14F9FEDE39B9FED92
:10522000E48B9DED120B53EC1A2B51EC100B002E5E
:105230001CDDFBF72DF941EC100BBD4208D053ECFF
:105240001B2B51EC100BFBF723F9C4E900010BE019
:1052500053EC192B51EC100BFBF71AF953EC182BEC
:10526000FBF716F9C4E900010120C8E7FBF76FF866
:1052700041EC100BBD4208D053EC1B2B51EC100B32
:10528000FBF765F8C4E900010BE053EC192B51EC76
:10529000100BFBF75CF853EC182BFBF758F8C4E93C
:1052A00000014FF0FF30AAE7C348A84279DB9DED2B
:1052B000120B51EC100B01F08BFD41EC180B9FED24
:1052C000C00B53EC102BFBF7E9F89FEDBF1B53EC21
:1052D000112BFBF73CF8FBF795FB0746FBF7BFF9F3
:1052E00041EC190B53EC1A2BFBF7D8F853EC182BA5
:1052F000FBF7D1F841EC180B53EC1B2B51EC190BBD
:10530000FBF7CCF8DFF8C8A241EC100B4FEA1558B8
:105310000125FA4453EC102B51EC180BFBF7B8F8AD
:10532000032DC4E900013DD0C1F30A5005EB45113E
:10533000A8EB00001139814234DA0AEB051BB0EE0C
:1053400048AA9BED000BF0EE68AA53EC102B51EC31
:10535000190BFBF7A3F841EC1B0B51EC1A0B53ECA8
:105360001B2BFBF795F841EC180B51EC1A0B53EC87
:10537000182BFBF78DF853EC1B2BFBF789F89BEDF3
:10538000020B41EC1A0B53EC102B51EC190BFBF7F1
:1053900085F853EC1A2BFBF77BF841EC100B6D1CD6
:1053A000B8E70EE0002EA8BF3846BFF628AF94ED50
:1053B000000B51EC100B81F00041C4E90001784270
:1053C0001DE7C6F3130040F4801EC6F30A50A0F296
:1053D000F530471100F01F05C5F12000DDF848B099
:1053E00008900020069007900520EC467949002D92
:1053F00007EB0002794408BF51F8221009D051F898
:10540000223001EB8201AB404A68089922FA01F18F
:105410001943A1FB0E26A1FB0B131A449A4234BF79
:105420000123002303EB06080CEB8003D3E901A65C
:105430000E448E4234BF0121002192448A4411B1AE
:10544000924502D903E0924501D2012100E00021FA
:10545000C3E901A641444CF82010011EA0F101004F
:10546000C4DC029800F10050850F0298DDE9036763
:105470008000DDF81480FBF7F2F841EC1A0B30469F
:10548000FBF7FEF89FED541B53EC112BFBF706F8CE
:1054900041EC1B0B3846FBF7F3F89FED511B53EC27
:1054A000112BFAF7FBFF41EC180B4046FBF7E8F82D
:1054B0009FED4D1B53EC112BFAF7F0FF41EC190B4C
:1054C00051EC180B53EC192BFAF741FF53EC1B2B43
:1054D000FAF73DFF53EC1A2BFAF739FFCDE9080133
:1054E000002008909DED080B53EC1A2B51EC100B8B
:1054F000FAF7CEFF53EC1B2BFAF7CAFF53EC182B2D
:10550000FAF7C6FF53EC192BFAF7C5FF9FED381BCE
:1055100053EC112BFAF7C2FF9FED370B41EC180B40
:1055200053EC102B9DED080B51EC100BFAF7B6FF66
:1055300053EC182BFAF70BFF9FED310B41EC180BD6
:1055400053EC102B9DED080B51EC100BFAF7A6FF56
:1055500053EC182BFAF7FBFE41EC100B139810F0EC
:10556000004F06D06D4251EC100B81F0004141EC30
:10557000100B284684ED000B41E6000000000000FF
:105580000000000000000000FB21E93F7CD9024040
:1055900000004054FB21F93F3163621A61B4D03DF1
:1055A000FB21F93F000000000000601A61B4D03D0B
:1055B0007370032E8A19A33BFB21394100000000C0
:1055C00083C8C96D305FE43F000000000000E03F89
:1055D0002A33000078320000000000000000103E76
:1055E000000000000000103C000000000000103A25
:1055F000182D4454FB21F93D3326A611460B113CCE
:1056000000000054FB21F93D10B52DED040B2DEDEC
:10561000088B82B0B0EE419AF0EE619A0B9820F0C0
:1056200000449FED4BABB4F1795F11DA9DED0A0BAD
:1056300051EC100BFBF7E6F9002801BFB0EE4A0A67
:10564000F0EE6A0A02B0BDEC088B04BF04B010BDD6
:105650009DED0A0B53EC102B51EC100BFAF71EFFCB
:1056600041EC180B3C480621B0EE480AF0EE680AFF
:10567000784400F081F853EC182B51EC100BFAF73A
:105680000DFF9DED0A0B41EC1B0B53EC192B51EC5C
:10569000100BFAF703FF41EC190B53EC1B2B51ECE9
:1056A000180BFAF7FBFE53EC192BFAF7F1FE9FEDFE
:1056B0002C0B41EC190B53EC102B51EC180BFAF797
:1056C000EDFE41EC100B2848844210DA53EC192B04
:1056D00051EC100BFAF7DCFE53EC1A2BFAF7DBFE59
:1056E00041EC100B02B0BDEC088B04B010BD1F489C
:1056F000A042BCBF9FED1E1B8DED001B06DBA4F579
:1057000000100190002000909DED001B51EC100B4B
:1057100053EC112BFAF7BCFE9DED000B41EC180B7E
:1057200053EC102B51EC1A0BFAF7B2FE41EC1A0BAA
:1057300053EC192B51EC180BFAF7AAFE53EC1A2B69
:10574000FAF7A9FE41EC100BCCE7000000000000C6
:10575000000000000000F03F942F00000000000057
:10576000000000000000E03F3333D33F0000E93F7A
:10577000000000000000D23F70B504462DED028B02
:105780004D1E00EBC500B0EE408AF0EE608A90ED51
:10579000000B35F0060017D053EC182B51EC100B12
:1057A000FAF77CFE41EC100B6D1E04EBC50090ED8A
:1057B000001B51EC100B53EC112BFAF7C8FD41EC18
:1057C000100B35F00600E7D1022D36D0042D1CD089
:1057D000062D1CBFBDEC028B70BD53EC182B51EC99
:1057E000100BFAF75BFE94ED0A1B53EC112BFAF742
:1057F000AEFD53EC182BFAF751FE94ED081B53EC59
:10580000112BFAF7A4FD41EC100B53EC182B51ECC3
:10581000100BFAF743FE94ED061B53EC112BFAF72D
:1058200096FD53EC182BFAF739FE94ED040B53EC6C
:10583000102BFAF78CFD41EC100B53EC182B51ECAC
:10584000100BFAF72BFE94ED021B53EC112BFAF719
:105850007EFD53EC182BFAF721FE94ED001B53EC60
:10586000112BFAF774FDBDEC028B41EC100B70BDEF
:1058700031B504462DED040B2DED0A8BB0EE41BA87
:10588000F0EE61BA0B989DED0A0B20F00040B0F1EC
:10589000795F0DDA51EC100BFEF7DEFA042808BF31
:1058A00000F0CAF89DED0A0BBDEC0A8B05B030BDC7
:1058B00053EC102B51EC100BFAF7F0FD41EC180BE8
:1058C0009DED0A0B53EC182B51EC100BFAF7E6FD8B
:1058D00041EC190B2C48B0EE480AF0EE680A05219D
:1058E0007844FFF749FF9FED2ACBB0EE40AAF0EED7
:1058F00060AA9CB353EC1C2B51EC190BFAF7CEFDAC
:1059000041EC1C0B53EC1A2B51EC190BFAF7C6FDAA
:105910009FED210B41EC190B53EC102B51EC1B0BA1
:10592000FAF7BCFD53EC192BFAF7B2FD53EC182B28
:10593000FAF7B4FD53EC1B2BFAF7AAFD53EC1C2B22
:10594000FAF7A6FD9DED0A1B53EC112BFAF7A3FD08
:10595000BDEC0A8B05B041EC100B30BDFFE753ECFA
:105960001A2B51EC180BFAF799FD53EC1C2BFAF794
:10597000EEFC53EC192BFAF791FD9DED0A1B53EC4D
:10598000112BFAF7E4FCE3E7242E000000000000EE
:10599000495555555555C5BF000000000000E03F72
:1059A0009FED070B10B553EC102B9FED070B51EC3F
:1059B000100BFAF7E5FD41EC100B10BD00000000E4
:1059C0000000000000000000000000000000F03FA8
:1059D00010B553EC102B51EC100BFAF7B8FC41EC5E
:1059E000100B10BD10B553EC112B51EC100BFAF746
:1059F000AEFC41EC100B10BD9FED050B10B553EC48
:105A0000102B51EC100BFAF7BBFD41EC100B10BD45
:105A100000000000000000009FED050B10B553ECE6
:105A2000102B51EC100BFAF739FD41EC100B10BDA7
:105A300000000000000000709FED050B10B553EC56
:105A4000102B51EC100BFAF729FD41EC100B10BD97
:105A5000000000000000001002E008C8121F08C18A
:105A6000002AFAD170477047002001E001C1121FDF
:105A7000002AFBD170470000014908607047000010
:105A8000C80000202DE9FF5F82B00021DDE904306D
:105A9000020DDDF840B0034318D044F61050A2F2D6
:105AA000FF3242431514119801281FD0A5EB0B00BB
:105AB000401C5FEA000A4FF000064E4FDFF83891B5
:105AC000B046504615D5CAF1000413E011980124E0
:105AD0004AA3012801D16FEA0B010298119AC0E98B
