:020000040800F2
:10000000185B002085020008772D00085929000898
:10001000752D0008C1090008113200080000000019
:10002000000000000000000000000000C501000802
:100030000D0B00080000000021020008052E00083A
:100040009F0200089F0200089F0200089F0200080C
:100050009F0200089F0200089F0200089F020008FC
:100060009F0200089F0200089F0200089F020008EC
:100070009F0200089F0200089F0200089F020008DC
:10008000450A00089F0200089F020008D1090008E5
:10009000C50900089F0200089F0200089F0200088F
:1000A0009F0200089F0200089F0200089F020008AC
:1000B0009F0200089F0200089F0200089F0200089C
:1000C0009F0200089F0200089F0200089F0200088C
:1000D0009F020008E1310008F93100089F02000882
:1000E0009F0200089F0200089F0200089F0200086C
:1000F0009F020008E12E00089F0200089F020008EE
:100100009F0200089F0200089F0200089F0200084B
:100110009F0200089F0200089F0200089F0200083B
:100120009F020008510A00085D0A00089F020008AB
:100130009F0200089F0200089F020008E9090008CA
:10014000DD0900089F0200089F0200089F020008C6
:100150009F0200089F0200089F0200080532000865
:100160009F0200089F0200089F0200089F020008EB
:100170009F0200089F0200089F0200080000000084
:100180009F0200089F0200089F0200089F020008CB
:100190009F0200089F0200089F0200089F020008BB
:1001A00000000000000000009F020008DFF810D0EF
:1001B00000F0F4FB004800475D500008AFF30080FA
:1001C000185B00202C4B19680868B0E8F04F80F3EA
:1001D0000988BFF36F8F4FF0000080F311887047DC
:1001E0000000000008480068006880F308884FF0AD
:1001F000000080F3148862B661B6BFF34F8FBFF37F
:100200006F8F00DF00BF00BF08ED00E0DFF80C00DB
:10021000016841F470010160704700BF88ED00E0A3
:10022000EFF30980BFF36F8F134B1A681EF0100FA6
:1002300008BF20ED108A20E9F04F106009B44FF09C
:10024000500080F31188BFF34F8FBFF36F8F05F01D
:1002500063FE4FF0000080F3118809BC196808683C
:10026000B0E8F04F1EF0100F08BFB0EC108A80F31A
:100270000988BFF36F8F704720000020EFF30580DF
:10028000704700000648804706480047FEE7FEE743
:10029000FEE7FEE7FEE7FEE7FEE7FEE7FEE7FEE736
:1002A000D12E0008AD0100082DE9F05F05460020C1
:1002B00092469B4688460646814640241BE02846D7
:1002C00041464746224600F01BFA53465A46C01A9A
:1002D000914110D311461846224600F002FA2D1A19
:1002E00067EB01084F4622460120002100F0F9F992
:1002F00017EB00094E41201EA4F10104DFDC484643
:1003000031462A464346BDE8F09F40EA01039B0779
:1003100003D009E008C9121F08C0042AFAD203E07A
:1003200011F8013B00F8013B521EF9D27047D2B2DE
:1003300001E000F8012B491EFBD270470022F6E7CE
:1003400010B513460A4604461946FFF7F0FF20464B
:1003500010BD2DE9FE4F804681EA0300C00F0C4618
:10036000009021F0004123F00045B8EB0200A941C4
:1003700005D24046214690461C460B46024623F0D5
:100380000040104347D0270DC7F30A00C3F30A51BA
:100390000290401A019040286BDAC3F3130040F436
:1003A000801B0098924620B10023D2EB030A63EB36
:1003B0000B0B01985946C0F14002504600F091F9EC
:1003C00006460D4650465946019A00F0A9F910EB31
:1003D00008006141002487EA115284EAE7731A4356
:1003E00040D0009A62B3019A012A4FEA075215DC05
:1003F000001B61EB02014FF0004202EA0752CDE917
:100400000042001C41F5801132462B4600F0E0F915
:1004100003B0BDE8F08F40462146F9E7001B61EBD1
:100420000201001C41F5801300185B412018A2F561
:10043000001747EB030140EAD570B6196D4111E092
:100440006D084FEA360645EAC0754FEA0752001BB1
:1004500061EB0201001C41F5801149084FEA3000B0
:100460000019514132462B4603B0BDE8F04F00F071
:10047000A0B90098012240000023D0EB020263EBF8
:10048000E073009821464FEAE074B8EB000061EB9E
:100490000401E9E783F000435BE781F0004158E79E
:1004A0002DE9FE4F81EA030404F0004421F00041ED
:1004B00000944FF0000B23F0004350EA01045ED09B
:1004C00052EA03045BD0C3F30A54C1F30A552C4427
:1004D000A4F2F3340194A0FB0254C1F3130141F4DC
:1004E0008011C3F3130343F4801301FB024400FBA8
:1004F000034E840A970A44EA815447EA8357A4FBCF
:10050000076802958D0A05FB07854FEA932C04FBCB
:100510000C542705029D4FEA065847EA1637B5EBFB
:1005200008056EEB070C870E920E47EA811742EA28
:100530008312A7FB0201B6EB0B0164EB00042B0D49
:1005400043EA0C335E1844EB1C50DA465146E7FB95
:100550000201C5F313044FEA0B3343EA14534FEA85
:100560000432019C43EA0603A4F10C040294009CAB
:10057000CDE900B400F02CF903B0BDE8F08F002005
:100580000146F9E72DE9F04D81EA030404F0004B40
:1005900021F0004514464FF0000A23F0004150EAD4
:1005A000050220D054EA01021DD0C5F30A570246C5
:1005B000C5F31303C1F31300C1F30A5640F48015C9
:1005C00043F48013A7EB0608101BD64608F2FD384B
:1005D00073EB050002D308F1010801E092185B41BA
:1005E000B8F1000F03DA00200146BDE8F08D0020CD
:1005F0004FF48011064684460EE0171B73EB050787
:1006000005D3121B63EB050306434CEA010C4908B2
:100610004FEA300092185B4150EA0107EDD152EAEF
:10062000030012D082EA040083EA0501084305D0E2
:10063000101BAB4106D20122002306E000224FF03E
:10064000004302E06FF0010253101AEB06004CEB7E
:10065000085110EB0A0041EB0B01BDE8F04D00F032
:10066000A8B80EB5C10F80EAE0700844CA0700219F
:1006700040F233438DE80E000A460B4600F0A8F81E
:1006800003B000BD00F0004230F000400AD0C10DC0
:1006900001F56071C0F3160042EA0151C20840073B
:1006A0001143704700200146704701F0004330B409
:1006B00021F0004150EA010206D00A0DA2F5607255
:1006C000C1F31301002A02DC30BC00207047440F44
:1006D00044EAC104C100E01830BC00EBC25000F095
:1006E00031B8202A04DB203A00FA02F100207047DA
:1006F0009140C2F1200320FA03F319439040704760
:10070000202A04DB203A21FA02F00021704721FA66
:1007100002F3D040C2F120029140084319467047CD
:10072000202A06DBCB17203A41FA02F043EAE073B5
:1007300006E041FA02F3D040C2F1200291400843A2
:10074000194670470029A8BF7047401C490008BFE0
:1007500020F00100704710B4B0FA80FC00FA0CF0F1
:1007600050EA010404BF10BC704749B1CCF1200429
:1007700021FA04F411FA0CF118BF012121430843B6
:10078000A3EB0C01CB1D4FEA00614FEA102042BFE2
:10079000002010BC704700EBC35010440029A4BFD8
:1007A00010BC7047401C490008BF20F0010010BC7D
:1007B000704710B5141E73F1000408DA401C41F1B3
:1007C000000192185B411A4301D120F0010010BDD5
:1007D0002DE9F04D92469B4611B1B1FA81F202E04B
:1007E000B0FA80F220329046FFF77BFF04460F46B6
:1007F00040EA0A0041EA0B0153465A46084313D027
:10080000114653EA010019D0C8F140025046FFF7E3
:1008100077FF05460E46504659464246FFF761FFB0
:10082000084305D0012004E020463946BDE8F08D9C
:100830000020054346EAE0762C4337430A986305D7
:10084000E40AA0EB08000022FD0A44EA47540A30FB
:1008500002D500200146E9E7010510196941DDE9EB
:10086000084500196941BDE8F04DA2E770B521F0D7
:10087000004303430CD0C1F30A550024D5EB040513
:1008800064EB0403D617AD1AB34102DB0020014626
:1008900070BD201841EB025170BD2DE9F04D0023D1
:1008A0001A461B1A8A4103DB00200146BDE8F08D81
:1008B000C1F30A52C1F3130141F480154FF0000B4C
:1008C000D10702D100186D41521E0027044640F2A4
:1008D000FF11384601EB620A3E4680460246002080
:1008E0004FF48011FFF70CFFC2197141BB1846EBA2
:1008F0000100B4EB030C75EB000C04D3E41A65EBB8
:10090000000517460E46241908F101006D41804686
:100910003428E3DDF91946EB0600091BA84103D290
:100920004FF0FF32134601E0002213461BEB070095
:1009300046EB0A51BDE8F04DFFF73BBF30B5041E52
:1009400071F1000404DB4FF00044404264EB01010C
:10095000141E73F1000405DB1C464FF000435242A5
:1009600063EB04038B4208BF824230BD30B5041EE6
:1009700071F1000404DB4FF00044404264EB0101DC
:10098000141E73F1000405DB1C464FF00043524275
:1009900063EB0403994208BF904230BD064C074DFB
:1009A00006E0E06840F0010394E80700984710343F
:1009B000AC42F6D3FFF7FEFB6864000888640008C9
:1009C000FEE70000014800F036BA0000E80200200F
:1009D000014800F030BA0000E8020020014800F0B1
:1009E0002ABA000010030020014800F024BA0000D9
:1009F00010030020F0B587B000240C9E0746254662
:100A000049B10420CDE90120CDE903538DF81450FC
:100A10004FF6FE7506E002950092F5E7641CA4B25D
:100A2000AC420CD8384600F0F0F90028F6D006ABFE
:100A300032466946384600F07EF8002800D0012092
:100A400007B0F0BD014800F0DBBC0000000500204D
:100A5000014800F0D5BC000060050020014800F00E
:100A6000CFBC0000A004002001681823CAB2103ACD
:100A7000B2FBF3F2054B6FF30901032A9B5CC365DC
:100A800000D9091D8165084670470000FC62000816
:100A900010B5014600208B698A6A4FF0C07453B1CB
:100AA000B3F5005F15D072B1012A0CD0022A0AD02A
:100AB000032A09D104E01AB1012A06D0022A03D17F
:100AC000C96AC90100D5012010BDC96AA142FAD086
:100AD00010BD002AF7D0012AF2D0022AF3D0032A4F
:100AE000F3D010BD30B50468256825F48025256055
:100AF000046863608368402B036803D099600068D2
:100B0000C26030BD9A600068C16030BD704772B687
:100B1000FEE790F82020012A07D0022A05D0416A7A
:100B200041F48021416201207047006842690A4314
:100B3000426100207047F0B590F820500468A46826
:100B4000012D05D0022D03D0416A41F480215DE0E2
:100B500014F0406F01D1E50055D5C4F30164022CB7
:100B600003D9416A41F4000150E00125A5401D6010
:100B70008D684FF4C0739DB1CE6835434E6845EA29
:100B8000C605066803EB0417F5514FF4C2750768F4
:100B900005EB04150E697E51097D012905D009E098
:100BA0000E88CD6845EA4655EBE701684E5946F494
:100BB00080764E511179D579567941EA056195795A
:100BC0002D0445EA062529434FF4C676056806EB51
:100BD0000416A9511178D57841EA056195785278C3
:100BE0002D0445EA022211434FF4C475026805EB57
:100BF00004155151006803EB0411425842F0010200
:100C000042500020F0BD416A41F4001141620120D0
:100C1000F0BD000010B590F82020012A07D0022A6C
:100C200005D0416A41F480214162012010BD3B485A
:100C3000D0F8002242F00102C0F80022D0F80022D1
:100C400022F47C52C0F80022D0F800224B6A42EA1B
:100C50000322C0F800220A7D02F01F0301229A40FD
:100C6000D0F81C329343C0F81C32CB69B3B9D0F82A
:100C70000C329343C0F80C328C894B6864F31F43E9
:100C80004C6900EBC404C4F840320C890B6864F36F
:100C90001F434C6900EBC404C4F84432CB69012BF8
:100CA00016D1D0F80C321343C0F80C320C884B68C4
:100CB00064F31F434C6900EBC404C4F840320C8950
:100CC000CB6864F31F434C6900EBC404C4F844329E
:100CD0008B69002BD0F804320ED01343C0F80432D5
:100CE0000B69002BD0F8143208D01343C0F814322B
:100CF000096A012904D008E09343EFE79343F5E73D
:100D0000D0F81C121143C0F81C12D0F8001221F0C8
:100D10000101C0F80012002010BD00000064004076
:100D2000704730B590F82040012C05D0022C03D03C
:100D3000416A41F480215DE00468002955D02469AE
:100D4000A40754D04FF4D874056804EB01142D594E
:100D500015F00405956005682D594ED0ED085560D5
:100D600005682C5904F00204D4604FF4DA74056865
:100D700004EB01142D5905F00F05156105682D5977
:100D8000C5F30725956105682C59240C54614FF46F
:100D9000DC72046802EB0112A4581C700468A458A9
:100DA000240A5C700468A458240C9C700468A2583F
:100DB000120EDA704FF4DE72046802EB0112A458CE
:100DC0001C710468A458240A5C710468A458240C9B
:100DD0009C710468A258120EDA71006881B1016931
:100DE00041F020010161002030BDE468A8E7416ABC
:100DF00041F400114162012030BD6D0D1560AFE777
:100E0000C16841F02001C160EDE70246002092F880
:100E10002010012901D002290CD111688A685201E1
:100E200000D501208A68120100D5401C8968C900DC
:100E300000D5401C70472DE9F05F0546006800248E
:100E40004669D0F804908768D0F80CB0D0F810A0AC
:100E5000D0F81880F10748D0F90714D0012181603B
:100E6000B80703D5284600F06AFA0CE0780702D5E7
:100E70004FF4006407E0380702D54FF4805402E0D5
:100E8000284600F05BFAF80516D529684FF4807003
:100E90008860B80503D5284600F053FA0CE07805C1
:100EA00002D544F4005407E0380502D544F48044E8
:100EB00002E0284600F044FAF80316D529684FF4FA
:100EC00080308860B80303D5284600F03CFA0CE077
:100ED000780302D544F4004407E0380302D544F413
:100EE000803402E0284600F02DFA300707D55FEA8B
:100EF000CB6004D52968102044F40074C8607007E2
:100F00004FF0080707D55FEA0B7004D52868C76063
:100F1000284600F0A9F9B00706D52868C068800700
:100F200002D0284600F0A2F9700607D55FEACA6031
:100F300004D52968102044F480640861B00607D500
:100F40005FEA0A7004D528680761284600F0C6F9F0
:100F5000F00606D528680069800702D0284600F010
:100F6000BEF9B00308D55FEAC96005D5296810202D
:100F70004860284600F0B4F9F00307D55FEA09702D
:100F800004D528684760284600F0DEF9300446D5CD
:100F90005FEA497040D5F00504D55FEAC87001D01A
:100FA00044F00104B00504D55FEA887001D544F02F
:100FB0000204700504D55FEA487001D544F00404CA
:100FC000300529D518F0700F26D008F070004028A1
:100FD00015D006DC102809D020280AD0302816D1D8
:100FE0000AE050280ED0602811D10EE044F0080429
:100FF0000DE044F010040AE044F0200407E044F05F
:10100000400404E044F0800401E044F48074286863
:10101000816921F070018161296804204860002CF9
:1010200005D0686A204368622846FFF779FEBDE86C
:10103000F09F70B5040003D094F8200010B104E0D4
:10104000012070BD204600F081F82068016841F061
:101050000101016000F052FC0546052604E000F0A5
:101060004DFC401B0A2811D820684068C007F6D004
:101070002068016821F00201016000F03FFC054694
:101080000BE000F03BFC401B0A2806D9606A40F4E4
:101090000030606284F82060D2E7206840688007F2
:1010A000EFD4207E0128206801683DD021F0800126
:1010B0000160607E01282068016838D021F040017D
:1010C0000160A07E01282068016833D021F0200152
:1010D0000160E07E0128206801682ED041F01001F7
:1010E0000160207F01282068016829D021F00801D3
:1010F0000160607F01282068016824D021F004018C
:101100000160D4E902010843D4E904121143084301
:101110006168491E08432168C8610020606201209F
:1011200084F82000002070BD41F08001C0E741F04C
:101130004001C5E741F02001CAE721F01001CFE7E7
:1011400041F00801D4E741F00401D9E7F0B587B0D8
:10115000044614216846FFF7F1F83E4B3E48DFF89D
:10116000F0E01968D4F800C03B4A0325022609279D
:1011700010300024491CF4452AD11960012907D1F7
:10118000016841F000710160006800F00070059096
:10119000106840F0080010601068CDE9005600F0BB
:1011A0000800CDE9047069462C48CDE9024500F0FD
:1011B00085FA00220521132000F02CFC132000F0FA
:1011C0001BFC00220521142000F024FC14203BE02D
:1011D000DFF88CE0F44539D1D0F800C04CF0806CD9
:1011E000C0F800C0D0F800C001290CF0806CCDF828
:1011F00014C0196007D1016841F0007101600068F6
:1012000000F000700590106840F002001060106857
:1012100002AB00F0020005904FF44050CDE900060B
:1012200083E8B00069460F4800F048FA0022052123
:101230003F2000F0EFFB3F2000F0DEFB0022052105
:10124000402000F0E7FB402000F0D6FB07B0F0BDE7
:10125000006400400C00002030380240000C0240C6
:1012600000680040000402407047000010B58AB0DA
:1012700004466B4602AA0021FFF753FD144920687B
:1012800088420298A0F2012013D107280BD8C0B2DF
:1012900000EB800101EBC0010E4812E0491CC16265
:1012A000694603F085FE0AB010BD694603F05AFE98
:1012B000F9E70728F7D8C0B200EB800101EBC001C5
:1012C000054800EB8100C16A3229EED8E6E700004C
:1012D00000640040F84200209844002070477047A6
:1012E0007047000070B5044690F82000012804D033
:1012F000606A40F40020606218E0022084F8200058
:101300002068016821F00101016000F0F7FA05464C
:101310000EE000BF00F0F2FA401B0A2808D9606A0C
:1013200040F400306062052084F82000012070BD88
:1013300020684068C007EDD1606270BD704770479B
:10134000704770477047704770472DE9F041044679
:10135000876D00F0D3FA064694F835000025022880
:1013600006D08020606584F834500120BDE8F0810B
:101370002068016821F0160101602068416921F0B0
:1013800080014161206C08B9A06C20B1206801681F
:1013900021F0080101602068016821F0010101606D
:1013A0000CE000F0ABFA801B052807D9202060650F
:1013B000032084F8350084F83450D7E720680068AB
:1013C000C007EED194F85C103F208840B86001203F
:1013D00084F8350084F834500020C7E790F83510C1
:1013E000022903D08021416501207047052180F842
:1013F00035100068016821F001010160002070478C
:101400002DE9F84304464FF00009CDF800906348F9
:101410004FF41651A56D0068B0FBF1F72E6894F8F3
:101420005C10082000FA01F131420FD021680A68EF
:1014300052070BD50A6822F004020A6094F85C1087
:101440008840A860606D40F00100606594F85C1011
:101450004FF0010808FA01F0304208D021684969CC
:10146000090604D5A860606D40F00200606594F83C
:101470005C1004208840304208D021680968890740
:1014800004D5A860606D40F00400606594F85C10BD
:1014900010208840304218D021680968090714D507
:1014A000A86020680168490304D50068000308D5D6
:1014B000A16C07E00168C90503D4016821F00801A7
:1014C0000160216C09B12046884794F85C10202007
:1014D0008840304231D021680968C9062DD5A860FE
:1014E00094F8350005282068016806D0490347D5DF
:1014F000006800031DD4616C1CE021F0160101603E
:101500002068416921F080014161206C08B9A06C1C
:1015100020B12068016821F00801016094F85C1096
:101520003F208840A86084F8358084F83490216D8D
:101530001FE0E16B09B120468847606D00282BD081
:10154000606DC00714D0052084F83500206801685C
:1015500021F0010101600098401C0090B84203D8BE
:1015600020680068C007F6D184F8358084F834908C
:10157000E16C002910D001B02046BDE8F0430847D7
:101580000168C905D5D4016821F01001016084F813
:10159000358084F83490CCE7BDE8F8831C00002047
:1015A0002DE9F041044600F0A9F906465CB102209D
:1015B00084F83500002584F834502068016821F053
:1015C000010101600DE00120BDE8F08100F096F915
:1015D000801B052805D920206065032084F835008C
:1015E000F2E720680068C007F0D12268116820483F
:1015F0000140D4E901031843D4E9033633431843C7
:1016000063691843A3691843E3691843236A1843BD
:101610000843616A042903D1D4E90B131943084331
:10162000106020684069666A20F0070130460E436A
:10163000012704280CD1A06A0643E06A40B1204685
:10164000FFF726FA20B14020606584F83570BAE7CC
:10165000206846612046FFF707FA94F85C203F2196
:1016600091408160656584F835700020ACE700002A
:101670003F8010F070B5044690F834000025012832
:101680000CD0012084F8340094F835600020012E3D
:1016900006D084F834000225284670BD022070BDB3
:1016A000022684F8356060652046FFF71BFA206843
:1016B000016841F001010160EEE700002DE9F84FFB
:1016C000DFF8F8A10022012403254FF00F090AF1E9
:1016D000040BAAF1040E00BF0B6804FA02F63340B3
:1016E000B34270D10F7907F00307012F01D0022F09
:1016F00016D187684FEA420805FA08FC27EA0C076A
:10170000D1F80CC00CFA08FC4CEA070CC0F808C071
:101710004768B7430E79C6F3001696403E434660CD
:101720000E79F643B6070AD0C7684FEA420C05FAAD
:101730000CF6B7438E6806FA0CF63E43C6600E7987
:1017400006F00306022E10D1D60800EB8608D8F862
:10175000206057074FEAD76C09FA0CF7BE430F69B0
:1017600007FA0CF73743C8F8207006684FEA420CB6
:1017700005FA0CF7BE430F7907F0030707FA0CF7D9
:10178000374307604E6816F4403F1CD04C4E376814
:1017900047F480473760366822F0030706F4804636
:1017A0000096484E07EB060CDCF8086897073F0FD9
:1017B00009FA07F826EA0806DFF80C81404503D14C
:1017C0004FF0000841E072E0DFF80081404502D1AF
:1017D0004FF0010839E0DFF8F880404502D14FF0C2
:1017E000020832E0DFF8EC80404502D14FF00308F8
:1017F0002BE0DFF8E480404502D14FF0040824E0FC
:10180000DFF8D880404502D14FF005081DE0DFF831
:10181000D080404502D14FF0060816E0DFF8C480C2
:10182000404502D14FF007080FE0DFF8BC8040458B
:1018300002D14FF0080808E0DFF8B080404502D13F
:101840004FF0090801E04FF00A0808FA07F848EAE3
:101850000608CCF80888DAF800605746D1F804C0CA
:101860009E435FEACC2C00D51E433E60DBF800604F
:101870005F46D1F804C09E435FEA8C2C00D51E431E
:101880003E60DEF800607746D1F804C09E435FEA10
:101890008C3C00D51E433E60084F083F3E68D1F89F
:1018A00004C09E435FEACC3C00D51E433E60521C00
:1018B000102AFFF411AFBDE8F88F0000083C01408A
:1018C0004438024000300140000002400004024061
:1018D00000080240000C02400010024000140240C8
:1018E00000180240001C0240002002400024024078
:1018F0000AB1816170470904FBE700000148806874
:1019000070470000100000200248816802781144EE
:1019100081607047100000200B4810B5016841F449
:1019200000710160016841F480610160016841F467
:1019300080710160032000F08DF80F2000F006F8A0
:1019400000F03EF8002010BD003C024010B50146FA
:1019500088B000222D2000F05DF82D2000F04CF81A
:1019600013480024016841F480710160006805A9F2
:1019700000F480700690684600F050F900F06EF9AF
:101980000C494000B0FBF1F10C480B4A491E0260C3
:1019900040F2E732C0E90324C0E9011400F0FCFB87
:1019A00010B1012008B010BD044800F023FCF9E795
:1019B0004038024040420F0000200040C005002097
:1019C0000C4882B0016841F480410160006800F475
:1019D000804000900748001F016841F0805101607D
:1019E0000068002200F0805000900F21901E02B08D
:1019F00000F010B844380240002809DB00F01F0254
:101A0000012191404009800000F1E020C0F8001160
:101A100070470000F0B40E4B1B680C46C3F3022362
:101A2000C3F10705042D00D90425191D072901D28A
:101A3000002300E0DB1E012606FA05F1491E2140C5
:101A400099409E40761E16403143F0BC01F0F9BB30
:101A50000CED00E0064900F0070208684FF6FF03AE
:101A6000184040EA0220034A104308607047000013
:101A70000CED00E00000FA052DE9F8431748016875
:101A800041F0805101600068154F00F08050012640
:101A900000903E64FFF732FF05464FF47A78114C10
:101AA00005E000BFFFF72AFF401B40450DD86068E6
:101AB000C003F7D57E64FFF721FF0546464607E0E1
:101AC000FFF71CFF401BB04202D90320BDE8F8839A
:101AD00060688003F4D50020F8E700004038024039
:101AE00000000E42007000402DE9F0470E46050050
:101AF00065D0DFF81481D8F80000F7B200F00F00CD
:101B0000B04207D288F80070D8F8000000F00F004B
:101B1000B04254D128683D4C810712D5400703D507
:101B2000206840F4E05020602878000703D5206842
:101B300040F4604020602068A96820F0F00008436D
:101B400020602878C0072DD03049686808390128FE
:101B500012D0022813D0032811D009688907002960
:101B60002DDA216821F0030101432160FFF7C6FE51
:101B7000814641F2883A0EE009688903EFE7096877
:101B80008901ECE7FFF7BAFEA0EB0901514502D944
:101B90000320BDE8F0872068696800F00C00B0EB16
:101BA000810FEFD1D8F80010404601F00F01B1428B
:101BB00007D90770006800F00F00B04201D0012083
:101BC000E7E72878400705D52068E96820F4E05069
:101BD000084320602878000706D52068296920F48A
:101BE000604040EAC100206000F058F82168084ACF
:101BF000C1F30311515CC8400649086006480068FB
:101C0000FFF7A4FE0020C4E7003C02400838024071
:101C1000046300081C000020140000200F22026052
:101C20000C4A136803F003034360136803F0F003E6
:101C30008360136803F4E053C36012684FF4E05309
:101C400003EAD20202610448006800F00F00086055
:101C50007047000008380240003C02400448054933
:101C600000680968044AC1F38221515CC84070478A
:101C70001C0000200838024014630008044805498D
:101C800000680968044AC1F34231515CC84070479A
:101C90001C0000200838024014630008154810B5E5
:101CA000006810F00C02144813D01449042A0FD015
:101CB000082A0ED10F4C241F2268236802F03F022D
:101CC0005B0207D52068C0F38810A0FB010106E085
:101CD000084610BD2168C1F38811A1FB0001002353
:101CE000FEF7E2FA2168C1F30141491C4900B0FB4B
:101CF000F1F010BD083802400024F40040787D0166
:101D00002DE9F84F04006ED02078DFF84C93C0071F
:101D1000A9F104054AD009F104000168C1F3810169
:101D2000012908D00068C0F3810002280AD1D9F83F
:101D30000000400206D52868800337D56068002877
:101D4000E1D033E06068B0F5803F10D0B0F5A02F4F
:101D5000286810D020F480302860286820F4802083
:101D600028606068A8B1FFF7C9FD06460DE0286845
:101D700040F48030F4E740F480202860F7E700BFAB
:101D8000FFF7BCFD801B642873D828688003F7D553
:101D90000CE0FFF7B3FD064605E000BFFFF7AEFD20
:101DA000801B6428F0D828688003F7D42078DFF8F7
:101DB000AC8280074FF0000A3ED5A748001D01689D
:101DC00011F00C0F08D00068C0F3810002280BD17D
:101DD000D9F80000400207D42868800716D5E068CB
:101DE000012800D112E033E1E068B8B10120C8F861
:101DF0000000FFF783FD064605E000BFFFF77EFD0C
:101E0000801B0228C0D828688007F7D52868216978
:101E100020F0F80040EAC10028600DE0C8F800A0FA
:101E2000FFF76CFD064604E0FFF768FD801B022803
:101E30001FD828688007F7D42078000722D5864F5E
:101E400087486169703771B101210160FFF756FD64
:101E5000064604E0FFF752FD801B022809D83868C7
:101E60008007F7D50EE0C0F800A0FFF747FD064653
:101E700005E082E0FFF742FD801B02287DD838682C
:101E80008007F7D42078400768D5DFF8CCB1002769
:101E90000BF13C0BDBF80000C0000BD4DBF80010AA
:101EA00041F08051CBF80010DBF80000012700F072
:101EB000805000906B4E3068C00510D4306840F4FC
:101EC00080703060FFF71AFD009005E0FFF716FD07
:101ED0000099401A022850D83068C005F6D55E4EE9
:101EE000A0686C3601280FD00528306810D020F08B
:101EF00001003060306820F004003060A068B8B1A4
:101F0000FFF7FCFC00900FE0306840F00100F4E7C0
:101F100040F004003060F7E7FFF7F0FC0099411A49
:101F200041F28830814266D830688007F4D50EE0EF
:101F3000FFF7E4FC009007E0FFF7E0FC0099411A8E
:101F400041F28830814256D830688007F4D42FB1EE
:101F5000DBF8001021F08051CBF80010A069C8B365
:101F60003D49091D0968C1F3810102294AD00228AF
:101F7000504607D0C8F8600000E03CE0FFF7BEFC28
:101F800004463BE04746C8F86000FFF7B7FC06464A
:101F900005E000BFFFF7B2FC801B02282BD82868A1
:101FA0008001F7D4D4E907010843A16A2E4A490801
:101FB00002EB0141626A41EA8211084394F82C1055
:101FC00040EA0161C9F8001001203866FFF796FC6D
:101FD000044606E03EE000BFFFF790FC001B02282D
:101FE00009D828688001F7D534E000BFFFF786FCE8
:101FF000001B022802D90320BDE8F88F2868800161
:10200000F4D427E00128F7D0D9F80000E26900F401
:10201000800191421CD1226A00F03F01914217D108
:1020200047F6C071626A0140B1EB821F10D1A26A0B
:102030004FF0FF3300F4403103EB5202B1EB024F9B
:1020400006D194F82C1000F07060B0EB016F01D055
:102050000120D1E70020CFE70438024000004742CA
:10206000800E4742007000400000FFFF70B5040082
:1020700009D0606A002540B125616561A56294F8C8
:10208000510040B10CE0012070BD6068B0F5827F66
:10209000F4D0E561F2E784F85050204600F044F8AF
:1020A000022084F851002068016821F0400101609D
:1020B000A088218900F4827001F404410843A189B9
:1020C00001F400610843217C01F002010843217DF5
:1020D00001F001010843218B01F400710843217FC5
:1020E00001F03801084394F8201001F08001084302
:1020F000218D01F40051084321680860A069042182
:1021000001EA104094F8241001F0100108432168FE
:1021100048602068C16921F40061C16165650120E2
:1021200084F85100002070BD10B586B0044614211B
:102130006846FEF703F914492068884221D1134804
:102140000021026842F400520260006800F400506E
:1021500005900E481438026842F0100202600068D0
:1021600000F0100005904FF4835000900220CDE95C
:102170000101032003900520049069460448FFF7FD
:102180009DFA06B010BD0000003401404438024002
:10219000001002407047704710B5040003D094F857
:1021A0003D0010B107E0012010BD002084F83C0084
:1021B000204600F01EF8022084F83D00211D206812
:1021C00000F094FE012084F8460084F83E0084F874
:1021D0003F0084F8400084F8410084F8420084F80D
:1021E000430084F8440084F8450084F83D00002052
:1021F00010BD704790F83D10012901D001207047B3
:10220000022180F83D100168CA6842F00102CA60EC
:1022100000681149884214D0B0F1804F11D00F49A5
:1022200088420ED00E4988420BD00E49884208D011
:102230000D49884205D00D49884202D00C49884298
:1022400004D1816801F00701062903D0016841F03B
:1022500001010160002070470000014000040040BF
:1022600000080040000C0040000401400040014014
:1022700000180040704770B50446006801694FF0CF
:102280000005C943890715D4C168C943890711D41A
:10229000E91E0161012020772068806980072046BF
:1022A00002D0FFF7E7FF04E000F098F8204600F0C6
:1022B00096F8257720680169C943490717D4C16892
:1022C000C943490713D46FF004010161022020774C
:1022D0002068806910F4407F204602D0FFF7CAFFD3
:1022E00004E000F07BF8204600F079F825772068BC
:1022F0000169C943090716D4C168C943090712D443
:102300006FF008010161042020772068C069800710
:10231000204602D0FFF7AEFF04E000F05FF8204651
:1023200000F05DF8257720680169C943C90617D414
:10233000C168C943C90613D46FF0100101610820B8
:1023400020772068C06910F4407F204602D0FFF754
:1023500091FF04E000F042F8204600F040F82577B5
:1023600020680169C943C90708D1C168C943C907C1
:1023700004D1891E0161204600F032F8206801690D
:10238000C943090609D4C168C943090605D46FF0D9
:10239000800101612046FFF7FDFE20680169C94305
:1023A000490609D4C168C943490605D46FF0400104
:1023B0000161204600F01EF820680169C9438906C2
:1023C0000BD4C168C943890607D46FF020010161AD
:1023D0002046BDE87040FFF7DEBE70BD7047704715
:1023E00000680349884201D1FFF78EBA70470000A8
:1023F000002000407047704770470000F8B5016842
:1024000004460868CA684B6910F00F0F4FF00005CA
:1024100059D003F0010602F49077374365D0C10725
:1024200005D0D10503D5216C41F00101216441079C
:1024300005D5D90703D0216C41F002012164810741
:1024400005D5D90703D0216C41F0040121640107AF
:1024500007D502F02001314303D0216C41F008017F
:102460002164216C00293AD0800604D5900602D55B
:10247000204600F0CEFD20684069216CC0F380103A
:10248000090700D460B3204600F09CFD2068406935
:10249000400621D52068143050E8001F21F040018B
:1024A00040E80012002AF5D1A06BA8B16C49016583
:1024B000A06BFEF793FF002811D0A06B016D01B057
:1024C000BDE8F040084783060FD593060DD520469A
:1024D000BDE8F84000F09DBD2046FFF78DFFF8BD38
:1024E0002046FFF789FF2564F8BD266B2023012EC7
:1024F00079D1C60677D5D60675D5086848680090A4
:102500004869400640D5A16B086840680004000C8B
:10251000EAD0A28D8242E7D9E085C869B0F5807F14
:102520002DD020680C3050E8001F21F4807140E865
:102530000012002AF5D12068143050E8001F21F065
:10254000010140E80012002AF5D12068143050E85B
:10255000001F21F0400140E80012002AF5D184F864
:102560003E30256320680C3050E8001F21F0100138
:1025700040E80012002AF5D1A06BFEF7E6FEA08D20
:10258000E18D401A81B229E0A08DE18D401A81B21F
:10259000E08D0028A8D00029A6D020680C3050E893
:1025A000002F22F4907240E80026002EF5D120681A
:1025B000143050E8002F22F0010240E80026002EDF
:1025C000F5D184F83E30256320680C3050E8002FA8
:1025D00022F0100240E80023002BF5D12046FFF73F
:1025E0000AFFF8BDFFE705062BD5150629D594F897
:1025F0003D002128F5D1A068B0F5805F01D12069A8
:10260000B0B1206A411C2162216800784860E08CEA
:10261000401E0004000CE084E3D12068C16821F072
:102620008001C1602068C16841F04001C160D8E705
:10263000206A0088C0F308004860206A801C20627D
:10264000E5E74006CDD55006CBD5CA68204622F036
:102650004002CA6084F83D3000F07DF9C1E7000017
:10266000B52F000870B5040004D094F83D00002593
:1026700010B106E0012070BD84F83C50204600F007
:1026800023F8242084F83D002068C16821F400511B
:10269000C160204600F01EFD2068016921F49041D0
:1026A00001612068416921F02A0141612068C16807
:1026B00041F40051C1602564202084F83D0084F875
:1026C0003E00002070BD00002DE9F04F87B00546A8
:1026D00014216846FDF732FE9348DFF8488214382B
:1026E000D5F800C00024DFF840A20221032207230E
:1026F000061587154FF48039C4455BD1DAF80080A0
:1027000048F01008CAF80080DAF800C00CF0100C8D
:10271000CDF814C0D0F800C04CF0020CC0F800C0D6
:10272000D0F800C00CF0020CCDF814C0D0F800C0F6
:102730004CF0010CC0F800C000688A4600F00100AF
:1027400005908020CDE9000A0DF1080C90469B46CB
:102750008CE8100969467548FEF7B0FF7010CDE9A6
:10276000000A0DF1080C69468CE810097048FEF764
:10277000A5FFDFF8C4816F49404602C07104E0E85C
:102780000214E0E8034640F8044C80E8900240461A
:10279000C8F82440FEF704FF08B1FEF7B8F9C5F801
:1027A0003880002205212520C8F83850FFF732F97B
:1027B00025204BE0DFF88481DFF86CB1DFF880E1A1
:1027C000ABF1040BC44546D1DBF8008048F4003877
:1027D000CBF80080DBF800C00CF4003CCDF814C04E
:1027E000D0F800C04CF0080CC0F800C0006800F041
:1027F0000800059060208DE8130069467046CDE919
:102800000323FEF75BFFDFF830814E4908F16008D3
:10281000404602C04FF00061E0E80214E0E80346E1
:1028200040F8044C80E890024046C8F82440FEF787
:10283000B7FE08B1FEF76BF9C5F838800022052114
:102840002620C8F83850FFF7E5F82620FFF7D4F81F
:1028500007B0BDE8F08FDFF8F080C4451DD1DBF88C
:10286000006046F48026CBF80060DBF8005005F4E9
:1028700080250595056845F008050560006800F0AD
:10288000080005904FF440708DE8130069467046CB
:10289000CDE90323FEF712FFDAE72C4B9C45D7D195
:1028A000DAF800C04CF0200CCAF800C0DAF80030AA
:1028B00003F020030593036843F0400303600068BE
:1028C00000F0400005904FF484408DE8130008208C
:1028D000CDE9032069461E48FEF7F0FEDFF8588078
:1028E000144908F1C0084046183902C08905E0E8DB
:1028F0000214E0E8034640F8044C80E890024046A9
:10290000C8F82440FEF74CFE08B1FEF700F9C5F800
:102910003880002205214720C8F83850FFF77AF8A0
:10292000472093E700100140443802400004024071
:102930000000024040640240A00400200044004027
:10294000000C024088600240004800400014014032
:102950000018024070477047FEE700000F4810B5AE
:102960000D4901600521416000214FF40032816072
:10297000C0E903125201426101760122427681765A
:10298000C17601774177FEF754FB002803D0BDE8FC
:102990001040FEF7BCB810BD00640040E802002003
:1029A0000F4810B50D4901600521416000214FF429
:1029B00000328160C0E903125201426101760122B6
:1029C00042768176C17601774177FEF732FB0028A7
:1029D00003D0BDE81040FEF79AB810BD0068004073
:1029E00010030020154808B5016841F4800101601A
:1029F000016801F480010091016841F40011016057
:102A00000068002200F40010009005211020FFF75C
:102A100001F81020FEF7F0FF002205213920FEF713
:102A2000F9FF3920FEF7E8FF002205213A20FEF7E2
:102A3000F1FFBDE808403A20FEF7DEBF3038024023
:102A400010B596B01C2211496846FDF75EFC0021C6
:102A5000684602F068FB0E4C0C491C2220601C31B9
:102A600007A8FDF752FC002107A802F05CFB07490C
:102A700060601C2238310EA8FDF747FC00210EA82B
:102A800002F051FBA06016B010BD0000A862000863
:102A9000000000202DE9F04F87B014216846FDF7B3
:102AA0004DFC60480024016841F04001016001686C
:102AB00001F040010591016841F0010101600168E8
:102AC00001F001010591016841F010010160016808
:102AD00001F010010591016841F0020101600168F7
:102AE00001F002010591016841F0080101600168EF
:102AF00001F008010591016841F0200101600168C1
:102B000001F020010591016841F4807101600168C4
:102B100001F480710591016841F080010160016854
:102B200001F080010591016841F004010160006835
:102B3000002200F00400059044F203013A48FEF739
:102B4000D7FE3A4E012211463046FEF7D1FEDFF89D
:102B5000E0900022FE214846FEF7CAFEDFF8D4A02E
:102B60004FF4E057012239465046FEF7C1FEDFF828
:102B7000C8B0002204215846FEF7BAFE4FF40068A0
:102B8000002241462D48FEF7B3FE002201212C48C9
:102B9000FEF7AEFE032000900125CDE90154694601
:102BA00021480394FEF78AFD0095CDE9015469465A
:102BB00030460394FEF782FDFE20022603948DE842
:102BC000610069464846FEF779FD0097CDE901545A
:102BD000694650460394FEF771FD04200090CDE94C
:102BE0000154694658460394FEF768FDCDE9026436
:102BF000CDE9008569461148FEF760FD0095CDE9F5
:102C0000015469460E480394FEF758FDA803039447
:102C10008DE8610069460448FEF750FD07B0BDE845
:102C2000F08F0000303802400014024000200240C3
:102C300000180240001C0240000802400010024040
:102C400000040240114810B50F4901604FF4827131
:102C5000416000214FF40062C0E902120122C0E984
:102C60000412520282612022C0E90721416281627E
:102C70000A21C162FFF7FAF9002803D0BDE810402D
:102C8000FDF745BF10BD00000034014038030020AF
:102C90000C4810B50A4901600B4941600021816070
:102CA0000C22C160C0E904128161C161FFF7DAFC46
:102CB000002803D0BDE81040FDF729BF10BD00007B
:102CC0000010014090030020A08601000C4810B5C0
:102CD0000A4901604FF4E1314160002181600C221A
:102CE000C160C0E904128161C161FFF7BBFC00282B
:102CF00003D0BDE81040FDF70ABF10BD00440040FE
:102D0000D40300200C4810B50A4901604FF4E131AA
:102D10004160002181600C22C160C0E90412816120
:102D2000C161FFF79FFC002803D0BDE81040FDF70C
:102D3000EEBE10BD00480040180400200C4810B53D
:102D40000A4901604FF4E1314160002181600C22A9
:102D5000C160C0E904128161C161FFF783FC0028F2
:102D600003D0BDE81040FDF7D2BE10BD00140140F5
:102D70005C040020FEE7FEE730B40B4C44660B4CCD
:102D8000DFED0B1A8466C0ED0E1AC0ED0D1AC0ED12
:102D90000F1AC0ED101AC0ED111AC0ED121AC0EDD5
:102DA000131A30BC02F0CCBA415300084F5300084C
:102DB0000000000002461048012A09D0022A04D06F
:102DC000032A0DD0042A15D10C4889B1012205E04F
:102DD00009B1012200E00022022107E0012105E003
:102DE000074809B1012200E000220421FEF780BD5E
:102DF0000022F3E770470000001402400004024084
:102E00000008024010B5502080F31188BFF34F8FA7
:102E1000BFF36F8F03F080F918B104494FF0805071
:102E20000860002080F3118810BD000004ED00E070
:102E300030B593B030216846FDF780FA14210CA814
:102E4000FDF77CFA20480025016841F080510160BF
:102E5000006800F0805011901C48016841F4404126
:102E600001600068022400F44040119001200390AA
:102E700010200490009406940820CDE90750B42057
:102E8000CDE9090404200B906846FEF739FF08B12C
:102E900072B6FEE7FEF7F0FD08B172B6FEE70CA9C8
:102EA0000F2081E831004FF4A0500F904FF4805074
:102EB000109005210CA8FEF717FE002801D072B66D
:102EC000FEE713B030BD0000403802400070004003
:102ED0000248016841F470010160704788ED00E02C
:102EE0000148FFF7C8B90000C0050020F0B502682E
:102EF000254C264D264E274F274B4FF0804CA042A5
:102F000009D0604507D0A84205D0B04203D0B842EE
:102F100001D0984204D122F0700E4A6842EA0E02B3
:102F2000A0421BD0604519D0A84217D0B04215D09E
:102F3000B84213D0984211D0184DA8420ED0184D67
:102F4000A8420BD0174DA84208D0174DA84205D073
:102F5000164DA84202D0164DA84203D122F4407566
:102F6000CA682A434D6922F080022A4302608A68B7
:102F7000C2620A688262A04201D0984201D1096906
:102F8000016301214161F0BD0000014000040040E7
:102F900000080040000C00400004014000400140D7
:102FA000004401400048014000180040001C00405F
:102FB0000020004010B5806B0021C185C184FFF75F
:102FC0001BFA10BD01680C3151E8002F22F49072F9
:102FD00041E80023002BF5D10168143151E8002F9E
:102FE00022F0010241E80023002BF5D1016B0129F9
:102FF00009D101680C3151E8002F22F0100241E89C
:103000000023002BF5D1202180F83E100021016320
:10301000704708B590F83E10222901D0022008BD63
:1030200082684FF480539A4201D1016921B1816ACB
:103030009A421BD04AB10AE00268816A5268C2F320
:1030400008020A80816A891C08E0026972B102687C
:10305000526802F07F020A70816A491C8162C18D48
:10306000491E0904090CC18503D019E002685268A1
:10307000F1E70168CA6822F02002CA600168CA68E4
:1030800022F48072CA6001684A6922F001024A6132
:10309000202180F83E10016B012903D0FFF75AFC74
:1030A000002008BD0021016301680C3151E8002FA8
:1030B00022F0100241E80023002BF5D101680A68D4
:1030C000D20602D50A6849680091818DFFF793F90D
:1030D000E6E7000070B5044600680169E26821F483
:1030E0004051114301612169A068E26908436169A7
:1030F000114308432168CA6849F20C639A430243AA
:10310000CA6020684169A26921F44071114341619C
:1031100031492068884202D03049884202D1FEF706
:10312000ADFD01E0FEF79AFDE26900231921642557
:103130003226B2F5004F626828D0A0FB0101930F40
:103140009200FDF7B1F80146B0FBF5F06FF0180200
:10315000504301EB800006EB0010B0FBF5F000F0EF
:10316000F002B1FBF5F002EB0012B1FBF5F06FF0ED
:103170001803584301EB800006EB0010B0FBF5F09C
:1031800000F00F0021681044886070BDA0FB0101B1
:1031900092185B41FDF788F80146B0FBF5F002019B
:1031A000B1FBF5F06FF01803584301EB800006EB1C
:1031B000C000B0FBF5F000F0F80002EB4002B1FBFC
:1031C000F5F0584301EB800006EBC000B0FBF5F0D2
:1031D00000F00700D6E70000001001400014014095
:1031E00010B5044802F08CFCBDE810400148FFF720
:1031F00005B90000900300200148FFF7FFB8000068
:10320000D40300200148FFF7F9B800005C04002057
:10321000FEE703B401984100009850EAC12018BFAE
:1032200004204A0D18BF40F0010040F2FF72B2EBDB
:10323000515F08BF40F00200012808BF052002B01E
:1032400070470907090E002804DB00F1E02080F830
:103250000014704700F00F0000F1E02080F8141D0A
:10326000704700000000000070B59B482DED020B78
:103270002DED068B079D25F00044A04218DC9748F1
:10328000844202DC0AD1069840B19DED060BBDECEC
:10329000068B02B0BDE8704001F04EB9002DCCBFE6
:1032A0009FED8F0B9FED900BBDEC068B02B070BDB8
:1032B0008F48A04215DD8F48A042D8BF4FF0FF34A1
:1032C00058DD9DED060B51EC100BFFF7A2FF042813
:1032D00008BF01F065F99DED060BBDEC068B02B051
:1032E00070BD9DED060B51EC100B01F023FECDE9F6
:1032F000060181489FED828BA0423CDD8248A042BE
:103300001FDD00249FED82AB9DED060B53EC1A2BC5
:1033100051EC100BFDF71DF89DED060B41EC190B60
:1033200053EC1A2B51EC100BFDF7BAF853EC182B99
:10333000FDF7B0F853EC192BFDF724F9CDE90601A0
:1033400049E09DED060B012453EC182B51EC100BBA
:10335000FCF7FFFF9DED060B41EC190B53EC182B0E
:1033600051EC100BFDF796F853EC192BFDF70AF909
:10337000CDE906012FE06848A0421FDD02249FED41
:10338000689B9DED060B53EC192B51EC100BFDF7D0
:1033900087F853EC182BFCF7DCFF9DED060B41EC96
:1033A000180B53EC192B51EC100BFDF773F853EC81
:1033B000182BFDF7E7F8CDE906010CE09DED060BB3
:1033C000032453EC102B9FED580B51EC100BFDF721
:1033D000D9F8CDE906019DED060B53EC102B51EC0D
:1033E000100BFDF75DF841EC180B53EC182BFDF7B3
:1033F00057F841EC190B4E480621B0EE490AF0EEA1
:10340000690A784401F001F853EC182B51EC100BC9
:10341000FDF746F841EC180B4648B0EE490AF0EECD
:10342000690A0521784400F0F0FF53EC192B51ECA8
:10343000100BFDF735F841EC100B51EC180B53EC69
:10344000102B002C0EDAFCF784FF9DED061B53ECCD
:10345000112BFDF725F89DED061B53EC112BFDF705
:103460001CF835E0FCF775FF9DED061B53EC112BA6
:10347000FDF716F841EC100B2F48784400EBC40020
:1034800090ED001B51EC100B53EC112BFDF702F8E3
:103490009DED061B53EC112BFCF7FCFF41EC100BD0
:1034A0002648784400EBC40090ED001B51EC100B53
:1034B00053EC112BFCF7F1FF41EC100B002DA2BFD8
:1034C000BDEC068B02B070BD51EC100B81F00041D9
:1034D00041EC100B01E70000000010440000F07FF9
:1034E000182D4454FB21F93F182D4454FB21F9BFFA
:1034F0000000DC3F0000203E0000F33F0000000021
:10350000000000000000F03F0000E63F0000000067
:1035100000000000000000400080034000000000A8
:10352000000000000000F83F000000000000F0BFB5
:103530000A300000C02F00004A2F0000022F0000B8
:1035400070B56F4E2DED040B2DED048B82B0DDF8C0
:1035500024C0DDE907235C422CF000411C4341EA12
:10356000D474069D22F00040B44205D86C422C432E
:1035700040EAD474B4420BD99DED081B9DED060BB7
:1035800002B0BDEC048B04B0BDE8704000F0DEBFBB
:10359000ACF14054A4F17F641C430BD0022404EA34
:1035A000AC7444EAD27405439FED578B9FED582BC2
:1035B00007D015E09DED060B51EC100B01F02BF838
:1035C00042E0002C11BF012C9DED060B02B0BDECBA
:1035D000048B04BF04B070BD022C38D0032C3BD048
:1035E0000B439FED4D1B9FED4E0B0AD0B14218D1FE
:1035F000B04209D121F0804120F08040099107902C
:103600000FE0002A15DA10E0474B7B44002C08BF7E
:1036100093ED000B0DD0012C10D0022C17D0032CF1
:103620001AD0B0421DD1002A03DAB0EE410AF0EE02
:10363000610A02B0BDEC048B04B070BD93ED000BC9
:1036400051EC100B81F0004141EC100BF1E7B0EEB2
:10365000480AF0EE680AECE7B0EE420AF0EE620AC1
:10366000E7E7401A00159FED329B3C28C8BF8DED5F
:10367000000B17DCBCF1000FBCBF10F13C0F8DED4F
:10368000009B0FDB9DED080B53EC102B9DED060B03
:1036900051EC100BFCF776FF01F04CFC00F0BBFF87
:1036A000CDE90001B4B1012C10D0022C9FED220B0A
:1036B00053EC102B9DED000B51EC100B19D0FCF7C7
:1036C000E9FE53EC182BFCF7E5FEBDE7019880F00E
:1036D000004001909DED000B53EC192B51EC100BA9
:1036E000FDF72CF904BF022000F07AFF9DED000BDE
:1036F0009FE7FCF7CFFE53EC182BFCF7CEFEA3E7B9
:103700000000F07F00000000182D4454FB21094008
:10371000182D4454FB2109C0182D4454FB21F9BF36
:10372000182D4454FB21F93F322E00000000000008
:103730000000000000000000075C143326A6A13C36
:103740002DE9F04D2DED040B2DED0E8B96B0DDE93E
:103750002550279CDDF890A025F0004624F0004875
:10376000BAF1000F14BF0121002101EB4502FC4911
:1037700053184A1093422AD3002814BF0123002370
:1037800003EB44030B44F7498B4220D358EA000172
:103790009FEDF59B76D0DFF8D8B35D4503D1BAF144
:1037A000000F05D188E0BAF1000F08BF002100D05A
:1037B000012101EB450111F5001F08D8002814BFB5
:1037C0000121002101EB440111F5001F0BD99DEDF2
:1037D000261B9DED240B16B0BDEC0E8B04B0BDE88E
:1037E000F04D00F0B3BE0027002DBCBFE149884575
:1037F00021DAE1498845A8BF02271CDAC3451ADC53
:10380000DE4901EB2851142908DDC1F1340220FA08
:1038100002F101FA02F282420DD108E058B9C1F179
:10382000140228FA02F101FA02F2424503D101F032
:103830000101C1F1020756EA0A0124D1002C22DA63
:10384000002D18BF022F01D0012F0AD0022000F056
:10385000C7FE16B0BDEC0E8B04B0BDE8F04D00F015
:1038600053BE022000F0BCFE00F04EFE51EC100BE7
:1038700081F0004141EC100B16B0BDEC0E8B04B092
:10388000BDE8F08D18E09FEDBEAB9FEDBF8B00282B
:1038900071D1B848804522D105F1804010F58010E3
:1038A00008BFBAF1000F07D0B3450ADC002CA8BF4F
:1038B0009DED260BE0DA0DE0B0EE490AF0EE690A64
:1038C000DAE7002C06DA9DED260B51EC100B81F0A7
:1038D00000416FE0AE48784490ED000BCCE7D8454E
:1038E0004DD1002C48DA2EB186423AD1BAF1000F00
:1038F00042D126E0BAF1000F13D0022000F070FE92
:1039000000F03EFE8DED020B9DED240B8DED000BC6
:1039100010EE900A039961F31E0003909DED020BD7
:10392000AAE78DED02AB9DED240B1AEE901A10EE76
:10393000900A8DED000B61F31E0003909DED020BCC
:103940009AE78DED028B9DED240B18EE901A10EE88
:10395000900A8DED000B61F31E0003909DED020BAC
:103960008AE709DA9DED240B51EC190B53EC102B6F
:10397000FCF708FE1EE020E09DED240B7CE786426C
:103980001BDAB4F1804F0DD0A4F10050B0F1FF501C
:1039900013D1002D11DB9DED240B51EC100B01F028
:1039A000EAFF07E09DED240B53EC102B51EC100BBC
:1039B00000F0C2BC41EC100B5EE79DED240B51EC16
:1039C000100B01F0B7FABAF1000FCDE90E0142D1A8
:1039D0009FED710B46B3A6F1E040B0F17F600CD0D3
:1039E0005E4538D1002D00DAA7B3022F0CBF0120AD
:1039F0004FF0FF30FCF735FEDCE7002D01DD002C39
:103A00000DDA002D01DD002C1FDB002D16DA002C55
:103A100014DB012F08BF9FED620B3FF42DAFB0EE1A
:103A20004A0AF0EE6A0A27E7022F18BF002D0CD0D1
:103A3000012F0AD1002DFFF61FAF06E0002DB8BF01
:103A4000002C08DA012F3FF417AFB0EE480AF0EE71
:103A5000680A11E71BE0012000EBE57050EA07015E
:103A600015D0791EB0EE498AF0EE698A084308BF86
:103A70009FED4D8B4E480025804570DD4D494E48E9
:103A8000884514DDB0420DDB002C19DB2FE001204E
:103A900000F0A6FD16B0BDEC0E8B04B0BDE8F04DF5
:103AA00000F05EBDB34502DC002C09DC1FE086425D
:103AB00002DA002C1BDA03E05E452BDD002C16DD5C
:103AC000022000F08DFD00F05BFD8DED020B53EC4C
:103AD0001A2B51EC180BFCF7E3FCCDE9000103991C
:103AE000019861F31E0003909DED020BC4E60220D5
:103AF00000F076FD00F054FD10EE901A18EE900ADA
:103B00008DED020B8DED008B61F31E0003909DED9A
:103B1000020BB1E69DED0E0B53EC192B51EC100B83
:103B2000FCF7B8FC9FED260BCDE9080153EC102BF8
:103B30009DED080B51EC100BFCF7B2FC9FED221B26
:103B400053EC112BFCF7A9FC9DED081B53EC112B3A
:103B5000FCF7A6FC9FED1E1B53EC112B3CE08CE008
:103B6000FFFF1F00FFFF0F00000000000000F03FFC
:103B70000000F03F0000F07F0000404301FCFFFF29
:103B8000000000000000F07F0000000000000000C6
:103B9000662B000000000000000000000000008014
:103BA000000000000000F0FF000000000000F0BF77
:103BB0000000E0410000F043FFFFEF3F0000000085
:103BC000000000000000D03F555555555555D53FD4
:103BD000000000000000E03FFCF75FFC9DED080BDB
:103BE00041EC1A0B53EC102B51EC100BFCF758FC6A
:103BF00053EC1A2BFCF754FC41EC1A0B9FEDFE0B17
:103C000053EC102B9DED080B51EC100BFCF748FC0E
:103C100041EC1B0B9FEDFA0B51EC1A0B53EC102BE4
:103C2000FCF73EFC41EC1A0B9FEDF70B53EC102B0D
:103C30009DED080B51EC100BFCF732FC53EC1A2BEA
:103C4000FCF728FC41EC1A0B51EC1B0B53EC1A2B24
:103C5000FCF77FFB0690CDE906519DED060B53EC7A
:103C60001B2B51EC100BFCF715FC53EC1A2BFCF73B
:103C700014FC41EC100B00F0A1B90020B6F5801F38
:103C80000EDA9FEDE30B53EC102B9DED0E0B51EC78
:103C9000100BFCF705FCCDE90E016FF034000E4669
:103CA00000EB2650A0F2FF37C6F31300DA4940F0CC
:103CB0007F6646F040568842D8BF002408DDD749C9
:103CC0008142C8BF012403DC0024A6F580167F1CB6
:103CD000D348784400EBC4000F9690ED00CB9DEDE7
:103CE0000E0B53EC1C2B51EC100BFCF7D3FB9DED92
:103CF0000E0B41EC1B0B53EC1C2B51EC100BFCF787
:103D000028FB41EC100B51EC190B53EC102BFCF77A
:103D100039FC41EC1D0B51EC1B0B53EC1D2BFCF73C
:103D2000BFFB41EC1A0BBF488DED10AB78441095EA
:103D300090ED000B4FF0005040EA660000EB84402D
:103D40008DED080B00F5002009909DED080B53EC5C
:103D50001C2B51EC100BFCF79DFB9DED0E1B53EC47
:103D6000112BFCF79AFB41EC100B53EC102B9DED43
:103D7000100B51EC100BFCF793FB9DED080B41EC85
:103D80001C0B53EC102B9DED100B51EC100BFCF7A2
:103D900087FB53EC1B2BFCF780FB53EC1C2BFCF735
:103DA00079FB53EC1D2BFCF77BFB41EC1C0B53EC1C
:103DB0001A2B51EC1A0BFCF773FB41EC1B0B9A48C6
:103DC0000621B0EE4B0AF0EE6B0A784400F01DFBC2
:103DD000B0EE401AF0EE601AB0EE41DAF0EE61DAC1
:103DE00053EC1B2B51EC1B0BFCF75AFB53EC1D2B1C
:103DF000FCF756FB9DED100B41EC1B0B53EC1A2B03
:103E000051EC100BFCF7A5FA53EC1C2BFCF748FB0C
:103E100053EC1B2BFCF79DFA9DED100B41EC1B0B9B
:103E200053EC102B51EC100BFCF73AFB41EC1D0B43
:103E30009FED7FEB53EC1E2BFCF78BFA53EC1B2B07
:103E4000FCF787FA0890CDE908519DED080B53EC7B
:103E50001E2B51EC100BFCF71DFB53EC1D2BFCF73C
:103E600019FB53EC1B2BFCF718FB9DED080B41ECE9
:103E70001D0B53EC102B9DED100B51EC100BFCF7B0
:103E80000FFB41EC1B0B53EC1A2B51EC1D0BFCF7F9
:103E900007FB9DED080B41EC1A0B53EC102B51EC7A
:103EA0001C0BFCF7FDFA53EC1A2BFCF752FA41EC11
:103EB0001A0B51EC1B0B53EC1A2BFCF74AFA0C9023
:103EC000CDE90C519DED0C0B53EC1B2B51EC100B61
:103ED000FCF7E0FA53EC1A2BFCF7DFFA41EC1B0B72
:103EE0009FED550B53EC102B9DED0C0B51EC100B73
:103EF000FCF7D6FA41EC1A0B9FED510B51EC1B0B62
:103F000053EC102BFCF7CCFA41EC1B0B9FED4E0B46
:103F100053EC102B9DED0C0B51EC100BFCF7C0FA81
:103F200053EC1B2BFCF715FA41EC100B4848784476
:103F300000EBC40090ED001B51EC100B53EC112B67
:103F4000FCF707FA41EC1B0B3846FCF78AFBCDE97E
:103F5000080153EC1B2B51EC1A0BFCF7FAF941EC5E
:103F6000100B3C48784400EBC40090ED00CB51ECC2
:103F7000100B53EC1C2BFCF7ECF99DED081B53ECDC
:103F8000112BFCF7E6F90690CDE906519DED080BE3
:103F900053EC102B9DED060B51EC100BFCF77AFA4D
:103FA00053EC1C2BFCF776FA53EC1A2BFCF772FA45
:103FB00053EC1B2BFCF771FA41EC100B9DED261B0B
:103FC00053EC102B8DED001B00959DED260B51EC55
:103FD000100BFCF765FA9DED000B41EC1A0B53EC4E
:103FE000102B9DED260B51EC100BFCF753FA9DEDB9
:103FF000061B53EC112B2FE0000000604715F73F24
:10400000FE822B654715F73F44DF5DF80BAE543E4B
:1040100000000000000040438E9803007AB60B00B9
:104020004A26000010270000822500000000000042
:104030000000000000000840000000E009C7EE3F5B
:10404000FD033ADC09C7EE3FF5015B14E02F3EBEED
:104050000E240000C8230000FCF722FA53EC1A2BB0
:10406000FCF777F99DED060B41EC1A0B53EC102B86
:104070009DED000B51EC100BFCF712FACDE90C0191
:104080009DED0C0B51EC1A0B53EC102BFCF761F966
:10409000CDE902010C46AA498C422FDB611A084384
:1040A00018D19DED0C0B53EC102B9DED020B51EC38
:1040B000100BFCF7EFF941EC1B0B9FEDA30B51EC40
:1040C0001A0B53EC102BFCF744F953EC1B2BFCF7A9
:1040D0004DFC2DD2022000F083FA00F051FA10EED0
:1040E000901A18EE900A8DED020B8DED008B61F3A6
:1040F0001E0003909DED020BFFF7BEBB944A24F017
:104100000041914214D39349214408437FF4EFAC1A
:104110009DED0C0B53EC102B9DED020B51EC100B95
:10412000FCF7B8F953EC1A2BFCF720FC7FF6DFAC58
:1041300024F000408849894A002601EB2051824240
:104140002BDA481C4FF4801121FA00F02044844AF5
:10415000C0F30A517A44A1F2FF3192ED000B814A7B
:104160008DED080BCA4020EA0202C0F3130040F4B0
:104170008010C1F1140120FA01F60992002CB8BF99
:1041800076429DED080B53EC102B9DED0C0B51EC82
:10419000100BFCF77FF9CDE90C019DED0C0B51ECF8
:1041A0001A0B53EC102BFCF7D4F89FED6F0B089013
:1041B000CDE9085153EC102B9DED080B51EC100B81
:1041C000FCF76EF941EC1B0B9FED690B53EC102BC8
:1041D0009DED080B51EC100BFCF762F99DED0C0BFB
:1041E00041EC1C0B53EC102B9DED080B51EC100B0C
:1041F000FCF750F953EC1A2BFCF74FF99FED5E1BBF
:1042000053EC112BFCF74CF953EC1C2BFCF7A1F8E9
:1042100041EC1A0B51EC1B0B53EC1A2BFCF799F8E1
:10422000CDE902019DED020B53EC1B2B51EC100B61
:10423000FCF730F953EC1A2BFCF72FF99DED020B2C
:1042400041EC1A0B53EC102B51EC100BFCF728F936
:10425000CDE908014A489DED080B0521784400F09E
:10426000D4F89DED081B51EC100B53EC112BFCF70F
:1042700017F99DED021B53EC112BFCF70EF9CDE95C
:1042800006019DED020B53EC1A2B51EC100BFCF7C1
:1042900007F953EC1A2BFCF75CF89FED3B0B41EC54
:1042A0001A0B53EC102B9DED060B51EC100BFCF789
:1042B000F1F89DED060B41EC1B0B53EC102B9DED23
:1042C000020B51EC100BFCF7EBF853EC1B2BFCF73B
:1042D00059F953EC1A2BFCF7DDF89DED021B53EC5A
:1042E000112BFCF7D7F853EC192BFCF7D6F8CDE9D6
:1042F000020101EB065001150029C8BF039015DC2F
:104300009DED020B324651EC100BFCF7AFFAFEF7B5
:1043100080FF042808BF00F043F932469DED020BF0
:1043200051EC100BFCF7A2FACDE902019DED020B56
:1043300051EC180B53EC102BFCF7B2F8FFF73ABB1B
:104340000000904000000000FE822B654715973C5E
:1043500000CC904000346F3F01FCFFFF0000E03FC5
:10436000E8220000FFFF0F0000000000432EE63FA0
:10437000396CA80C615C20BEEF39FAFE422EE63F94
:1043800020210000000000000000000000000040AC
:1043900000B52DED048BB0EE409AF0EE609A83B03C
:1043A00051EC190BFCF779FA41EC180B18EE100AD6
:1043B00018EE901A8DED008B002818BF01200843DD
:1043C00020F00040C0F17F6000F1E040C00F14D049
:1043D00019EE101A19EE900A8DED009B002918BFF6
:1043E0000121084320F00040C0F17F6000F1E0406F
:1043F000C00F04BF012000F0F3F8B0EE480A03B08C
:10440000F0EE680ABDEC048B00BD70B504462DEDDE
:10441000028B4D1E00EBC500B0EE408AF0EE608AC4
:1044200090ED000B35F0060017D053EC182B51EC33
:10443000100BFCF735F841EC100B6D1E04EBC500BA
:1044400090ED001B51EC100B53EC112BFBF781FF8F
:1044500041EC100B35F00600E7D1022D36D0042DCB
:104460001CD0062D1CBFBDEC028B70BD53EC182B6D
:1044700051EC100BFCF714F894ED0A1B53EC112BC4
:10448000FBF767FF53EC182BFCF70AF894ED081BB9
:1044900053EC112BFBF75DFF41EC100B53EC182B89
:1044A00051EC100BFBF7FCFF94ED061B53EC112BAA
:1044B000FBF74FFF53EC182BFBF7F2FF94ED040BC7
:1044C00053EC102BFBF745FF41EC100B53EC182B72
:1044D00051EC100BFBF7E4FF94ED021B53EC112B96
:1044E000FBF737FF53EC182BFBF7DAFF94ED001BBB
:1044F00053EC112BFBF72DFFBDEC028B41EC100BA5
:1045000070BD0000000000009FED070B10B553ECDC
:10451000102B9FED070B51EC100BFCF733F841EC1F
:10452000100B10BD000000000000000000000000A3
:10453000000000000000F03F10B553EC102B51ECD0
:10454000100BFBF706FF41EC100B10BD10B553EC40
:10455000112B51EC100BFBF7FCFE41EC100B10BDC6
:104560009FED050B10B553EC102B51EC100BFCF725
:1045700009F841EC100B10BD000000000000000025
:104580009FED050B10B553EC102B51EC100BFBF706
:1045900087FF41EC100B10BD000000000000007010
:1045A0009FED050B10B553EC102B51EC100BFBF7E6
:1045B00077FF41EC100B10BD000000000000001060
:1045C00002E008C8121F08C1002AFAD170477047DC
:1045D000002001E001C1121F002AFBD1704700003A
:1045E000014908607047000090000020D0ED000AEB
:1045F000F4EEC00AF1EE10FA01DD80ED000AD0ED14
:10460000000AB1EE400AF4EEC00AF1EE10FA01D24F
:1046100080ED000A704710B541EC100BFEF724FE48
:1046200051EC100B10BD10B58AB000210E22009184
:10463000CDE9041201910291039106910121CDE986
:104640000812079104466946FCF7E4FA08B1FCF742
:104650005EFA02212046FCF75CFA08B1FCF757FA33
:104660002046FCF73FFE002801D0FCF750FA0AB0C4
:1046700010BD000010B5002834D0002932D0002A27
:1046800030D0002B2ED0284C9FED280A247854B32C
:10469000012C2DD0022C25D0032C23D11C68B4F979
:1046A000004004EB8404640000EE104AB8EEC00A37
:1046B00080ED000A1868B0F9020000EB80004000AD
:1046C00000EE100AB8EEC00A81ED000A1868B0F9D1
:1046D000040000EB8000400000EE100AB8EEC00AB3
:1046E00082ED000A10BD80ED000A81ED000AF7E7B7
:1046F0001C686489012C05D180ED000A81ED000A57
:1047000082ED000A19684989032903D19FED080A3F
:1047100080ED000A196849890229E3D19FED050A55
:1047200080ED000A10BD000088000020000000009D
:1047300000007A450000FA45F0B5044600F5026035
:1047400085B090EC030A204600F010FB5FF00005F6
:1047500005EB8500C0EB851004EB8000D0ED420A2C
:1047600090ED410A983000F009FD6D1CEDB2042D6A
:10477000EED3002505EB4500C0EB851004EB800768
:1047800007F5806607F57770D6ED300A96ED2F0AAB
:1047900000F0F4FCD6ED060A96ED2D0A07F58960C7
:1047A00000F0ECFC6D1CEDB2042DE3D35FF00000D3
:1047B00000EB8001C1EB801104EB810191ED350A22
:1047C000BDEEC00A10EE102AA1F80C2100EB40014A
:1047D000C1EB801104EB810101F58062401C92ED78
:1047E000210AC0B20428BDEEC00A10EE102AA1F8BA
:1047F000C424DDD394F82400C0B1B4F9C40401ADDD
:10480000B4F9A037B4F9AC26B4F9B81585E80F00AF
:10481000B4F9D0030090B4F9E432B4F9F821B4F952
:104820000C11074801F04EF805B0F0BD00200190D2
:104830000290039004900346024601460090F0E780
:10484000E802002070B505002DED048B4AD000244D
:104850009FED268B9FED279B05EB84004168B1F906
:10486000001000EE101A04EB8401C1EB8411B8EEC5
:10487000C00A05EB810181ED410A4169B1F90010DF
:1048800000EE101A04EB4401C1EB8411B8EEC00A2B
:1048900005EB810606F5806686ED2D0A4069806984
:1048A000FBF7DFFE53EC182BFBF7FAFD53EC192B4B
:1048B000FBF768FEFBF7F9FE641CE4B2C6F8BC0027
:1048C000042CC9D305F500659FED0C0A85ED110A8E
:1048D00085ED120A85ED0F0A85ED130A85ED140AA0
:1048E00085ED100ABDEC048B70BD000000000000D7
:1048F000008076400000000066A630410000000005
:104900002DE9F04704002DED048B77D0032084F8C7
:10491000240000F053FB00252060284600F016FB21
:1049200004EB85016D1CEDB24860082DF5D3002520
:104930009FED348ADFED348A9FED349ADFED349AAF
:104940004FF4FA6742F210784FF4FA5905EB8500FC
:10495000C0EB851004EB8000B0EE481AF0EE680A58
:10496000B1EE040A3B46424603219830FEF704FAB2
:1049700005EB4500C0EB851004EB800606F577706B
:10498000B2EE041AF0EE480AB0EE490A3B4642463F
:104990000321FEF7F1F906F58960B7EE081AF0EE8B
:1049A000690AB1EE020A3B464A460321FEF7E4F9E2
:1049B0006D1CEDB2042DC9D3F0EE480A9FED151A17
:1049C000B7EE080A3B464246032104F5F560FEF7C0
:1049D000D3F904F50060B2EE040A80ED0B0AFAEE9A
:1049E000040AC0ED0C0A80ED0D0AC0ED0E0A204647
:1049F000BDEC048BBDE8F047FFF724BFBDEC048B92
:104A0000BDE8F087000000000AD7233D0000C8423F
:104A10000AD7A33D0AD7233C2DE9F0410D462DEDE1
:104A20000C8B0446F0EE608AF0EE40BA9FEDC1AB0D
:104A30009FEDC20AB0EE6B8A61EE009A9FEDC0BA9C
:104A400009EECB8A18EE100AFBF71CFE41EC100BA6
:104A50009FEDBCDBB0EE4D1AF0EE6D1AFEF770FE66
:104A6000B0EE689AB0EE40CA09EE8B9AF0EE60CADA
:104A700019EE100AFBF706FE41EC100BB0EE4D1AD2
:104A8000F0EE6D1AFEF75CFE53EC1C2B51EC100B94
:104A9000FBF75FFC41EC100BFFF77AFC53EC1A2B91
:104AA00051EC100BFBF7FCFCFBF7FFFD206018EE50
:104AB000100AFBF7E7FD41EC100BB0EE4D1AF0EEDB
:104AC0006D1AFEF73DFE49EECB8AB0EE40CAF0EE1D
:104AD00060CA18EE900AFBF7D5FD41EC100BB0EE62
:104AE0004D1AF0EE6D1AFEF72BFE53EC1C2B51EC19
:104AF000100BFBF72EFC41EC100BFFF749FC53ECBD
:104B00001A2B51EC100BFBF7CBFCFBF7CEFDB0EEF4
:104B10006BCA606009EE8BCA1CEE100AFBF7B2FD8F
:104B200041EC100BB0EE4D1AF0EE6D1AFEF708FED8
:104B3000B0EE40BAF0EE60BA18EE900AFBF7A2FDB4
:104B400041EC100BB0EE4D1AF0EE6D1AFEF7F8FDC9
:104B500053EC1B2B51EC100BFBF7FBFB41EC100B48
:104B6000FFF716FC53EC1A2B51EC100BFBF798FCDB
:104B7000FBF79BFDA0601CEE100AFBF783FD41ECE8
:104B8000100BB0EE4D1AF0EE6D1AFEF7D9FDB0EE37
:104B900040BAF0EE60BA19EE100AFBF773FD41EC73
:104BA000100BB0EE4D1AF0EE6D1AFEF7C9FDB0EE27
:104BB000401AF0EE601A53EC1B2B51EC110BFBF773
:104BC000C8FB41EC100BFFF7E3FB53EC1A2B51EC45
:104BD000100BFBF765FCFBF768FDE06019EE100AAF
:104BE000FBF750FD41EC1A0B18EE100AFBF74AFDDB
:104BF00041EC100BB0EE4A1AF0EE6A1AFEF7A0FC78
:104C00009FED52AB51EC100B53EC1A2BFBF748FC09
:104C10009FED50DB53EC1D2BFBF7B4FCFBF745FD80
:104C2000286018EE900AFBF72DFD41EC1B0B18EEE7
:104C3000100AFBF727FD41EC100BB0EE4B1AF0EE1B
:104C40006B1AFEF77DFC53EC1A2B51EC100BFBF7A3
:104C500027FC53EC1D2BFBF795FCFBF726FD68604A
:104C600018EE900AFBF70EFD41EC180B1CEE100A33
:104C7000FBF708FD41EC100BB0EE481AF0EE681A95
:104C8000FEF75EFC53EC1A2B51EC100BFBF708FC03
:104C900053EC1D2BFBF776FCFBF707FDA86019EE24
:104CA000100AFBF7EFFC41EC180B1CEE100AFBF7A7
:104CB000E9FC41EC100BB0EE481AF0EE681AFEF772
:104CC0003FFC53EC1A2B51EC100BFBF7E9FB53ECB8
:104CD0001D2BFBF757FCFBF7E8FCE8601F4B204E51
:104CE000DFED200A002000BF05EB800191ED000AF6
:104CF00010EE102A1A44B24202D230EE200A08E026
:104D000010EE102A184F3A44B2F5010F0BD230EED4
:104D1000600A81ED000A04EB800191ED000AB1EE1A
:104D2000400A81ED000A401C0428DDDBBDEC0C8B41
:104D3000BDE8F081000000000000F03F00002042CC
:104D4000F704353F000000000000004000000000B4
:104D50000080664000000040FB210940FFFF4B3D02
:104D6000FFFF800000003443FFFF4BBD10B588B04B
:104D700004007BD0002000900190029003900490EA
:104D800005900690079094F82600DFED391A30B1AF
:104D9000012821D0022848D0032842D045E0B0EEB7
:104DA000402A11EE212A8DED002AB6EE002A20EECF
:104DB000020A9FED302AF0EE402A00EE820A40EE11
:104DC000C22A01EE210A41EE212ACDED012A8DED04
:104DD000020A9FED290A21E09FED282ADFED282A0B
:104DE00020EE022A20EE220AB0EE423A00EEA22A7B
:104DF00000EEE23A01EE212A01EE213A8DED003A71
:104E00008DED012AB0EE402A00EEE20A00EEA22A61
:104E100001EE210A01EE212A8DED022A8DED030A11
:104E200003E004A96846FFF7F7FD0021684604AADD
:104E300000EB810393ED000A01EB8103C3EB8113C7
:104E400004EB830383ED420A02EB810393ED000A36
:104E500001EB4103C3EB811304EB830303F5806390
:104E6000491CC9B283ED300A0429E1D308B010BD52
:104E7000AE47E13D2DB25D3F00000000F70435BFB5
:104E8000F704353F2DED028B84B01648FFF738FD4F
:104E9000144901209FED148A81F8260001F5006471
:104EA0001048FFF7CFFC8DED008A8DED018A0D4B88
:104EB0008DED028A02AA01A96846FFF7DBFB9DED92
:104EC000000A084884ED080A9DED010A84ED090AEC
:104ED0009DED020A84ED0A0AFFF72EFC0A2000F07D
:104EE00016F9DDE76C4600200000000038B50F48D9
:104EF00000210068026842680092C26842F0100215
:104F0000C2600A4C0A4A94F83E0020280DD1322390
:104F1000A262A38521642168A06B091DFCF7AAFB8E
:104F20002068416941F04001416138BD9003002093
:104F30003846002082B0CDE9000121F00040019008
:104F40009DED000B02B051EC100B704700F0070014
:104F500000EB800101EBC000014901EB80007047CC
:104F6000F842002010B58389C3810A8852BA828131
:104F70004C88D31A64BA04808C88B3F5805F64BA15
:104F800024B200EE104AB8EEC00A80ED010A897919
:104F90008172416901DD491E03E013F5805F01DA8A
:104FA000491C416102EB4131028A891A816110BDBD
:104FB000098849BA81810182704700000048704722
:104FC0004A46002000F0070000EB800101EBC00022
:104FD000014901EB80007047984400201D4C1E4D94
:104FE00001274FF000084FF4FA7600BFB4F908002B
:104FF000032804D001280CD002280FD025E000217E
:105000000220FDF7D7FE01210846FDF7D3FE2F60F1
:105010001BE001210220FDF7CDFE16E028680128E3
:1050200013D101210320FDF7C5FE304600F06FF8D3
:1050300000210120FDF7BEFE00210320FDF7BAFE8E
:10504000304600F064F8C5F80080322000F05FF8C8
:10505000CCE700004A4600208C000020FCF75CFCF6
:10506000FDF7E6FEFDF716FDFDF7BCFCFDF776FC4F
:10507000FDF796FCFDF7E6FDFDF70AFEFDF726FEBF
:10508000FDF740FEFDF75AFEFFF730FF054800F040
:1050900013F80548FFF7C7FAFDF7D2FC00F03EF819
:1050A000FEE70000E8020020100300200146002077
:1050B000842900D0C81C704710B58AB00446282146
:1050C0006846FBF73BF9002105910191009102919F
:1050D00003910491069101210E20CDE9081007915A
:1050E00069462046FBF796FD08B1FBF710FD02214B
:1050F0002046FBF70EFD08B1FBF709FD2046FCF743
:10510000F1F8002801D0FBF702FD0AB010BD10B580
:1051100000B9012000F09CFE002010BD10B500F089
:10512000BDFE002010BD7FB50D4604464169B0F9B3
:10513000080081B1A16971B1FFF7B8FFD4E9051288
:105140008DE80700D4E900102B46226900F0B9FF72
:10515000039004B070BDFFF7A9FF03A9CDE90001DA
:10516000208A2B4682B2D4E9001000F07DFF01288E
:1051700001D00020EDE70398EBE7000000B530EE2A
:10518000C01A80ED080AC0ED050A80ED0B1AD0EDBB
:10519000141A01469FED692A30EEC00AF5EEC01AD6
:1051A000B1EE400AF1EE10FA0ED0B5EEC01AF1EEF3
:1051B00010FA02DDF0EE410A01E0F0EE400AF4EEF2
:1051C000E10AF1EE10FA12DCD1ED150AF5EEC00A93
:1051D000F1EE10FA0ED0B5EEC01AF1EE10FA01DDC4
:1051E000B0EE410AB4EEE00AF1EE10FA02D2B0EEEF
:1051F000420A00BD886D01F13402032802D0042860
:1052000038D07AE091ED000A104620EE010A81EDD7
:105210000C0A91ED0D0AD1ED010A00EE810A81ED33
:105220000D0A91ED0A0AD1ED020A31EE400A20EE94
:10523000200A81ED0E0A91ED180AB8EE400AFFF738
:10524000D5F991ED0C0AD1ED0D0A01F13C0030EEDB
:10525000200AD1ED0E0A30EE200A81ED0F0A91ED01
:10526000170AB8EE400AFFF7C1F991ED0F0A81ED78
:10527000100A42E091ED0A0AD1ED001A104671EED3
:10528000400A60EEA10AC1ED0C0AD1ED010A60EE00
:10529000810AC1ED0D0AF0EE000A00EE601A91EDF0
:1052A000090AD1ED020A31EE000A20EE200A81ED52
:1052B0000E0A91ED180AB8EE400AFFF797F991ED42
:1052C0000C0AD1ED0D0A01F1480030EE200AD1EDB3
:1052D0000E0A30EE200A81ED110AD1ED130A30EEEC
:1052E000800A81ED120A91ED170AB8EE400AFFF725
:1052F0007DF991ED120A81ED130A91ED0A0A81ED13
:10530000090A91ED0B0A81ED0A0A91ED070A81ED78
:10531000060A91ED080A81ED070A91ED040A81ED74
:10532000030A91ED050A81ED040A886D032802D075
:1053300091ED120A00BD91ED0F0A00BD00000000C2
:1053400000F1580C8CE80E0080EC030A704780ECEA
:10535000030A70472DE9F041184C0F460546E668F0
:105360002068001D00F0ACFC38B9206890F82C10C3
:1053700001208840216981432161681C07D137B130
:105380002168BDE8F0410E48091D00F0DDBC206831
:105390003544B5424560216805D2A06BBDE8F041B7
:1053A000091D00F0B9BC606B091D00F0B5FCA06AD6
:1053B000854200D2A562BDE8F081000020000020F7
:1053C000E40600202DE9F041054600F0C9FC2E4C12
:1053D000A068401CA06020682C4F10B1606940B3E9
:1053E0002DE02560A068012829D1002606EB860063
:1053F00007EB800000F082FC761C072EF6D32348D2
:105400008C3000F07BFC2148A03000F077FC1F4876
:10541000B43000F073FC1D48C83000F06FFC1B482E
:10542000DC3000F06BFC19488C3060631430A063F2
:1054300005E02068E96AC06A884200D82560606A91
:10544000401C6062E96A01202269884010432061A3
:1054500001EB810007EB8000291D00F075FC00F0D6
:105460009FFC606900280CD02068E96AC06A884205
:1054700007D207494FF080500860BFF34F8FBFF34A
:105480006F8FBDE8F081000020000020080600209A
:1054900004ED00E010B5044690F8510058B1012821
:1054A0000CD002280FD0502080F31188BFF34F8F0B
:1054B000BFF36F8FFEE7206B00F086FC2046BDE84F
:1054C000104000F081BC10BD10484FF470514207ED
:1054D00006D0C01D0D4920F00700411AC1F57051DA
:1054E0000B4A00230144C2E900030839183A21F0AD
:1054F000070111604B600B600B1AC0E90013936049
:105500004FF000405360506170470000F8060020E3
:1055100074000020144E154CA6F1C8074FF08058B7
:10552000DFF84C9012E000BF00F01AFCF068C5688C
:10553000281D00F0C5FBA068401EA0606068401EEA
:10554000606000F02DFC2846FFF7A4FF606800288B
:10555000EAD138680128F9D9C9F80080BFF34F8F24
:10556000BFF36F8FF2E70000D0060020200000207C
:1055700004ED00E02DE9F0479A46DDE90984814613
:105580006FF00303206B03EB82021044089E20F0AF
:105590000707780707D0502080F31188BFF34F8F9B
:1055A000BFF36F8FFEE7002561B1002023180A5C6E
:1055B00083F834200A5C12B1401C1028F6D384F81A
:1055C000435001E084F83450072E00D30626E662EB
:1055D000C4E91165201D00F09CFB04F1180000F0E7
:1055E00098FB2461C6F107006462A061E56484F859
:1055F000505052464946384600F0C0F82060B8F195
:10560000000F01D0C8F80040BDE8F08730B511495F
:1056100000E011460A688242FBD34B685C18844262
:1056200003D1406818444860084643681C189442F7
:1056300009D1084C183C2468A24209D052681A4487
:1056400042600A6812680260814200D0086030BD82
:105650000460F9E7740000200648416B096829B12D
:10566000416BC968C9684968816270474FF0FF3172
:10567000FAE700002000002008484068401C4FF076
:10568000500080F3118804D0BFF34F8FBFF36F8FAA
:10569000FEE7BFF34F8FBFF36F8FFEE77C00002064
:1056A0002DE9F0410546002700F02EFC324E30680F
:1056B00008B9FFF709FF706905424ED1C5B3083537
:1056C00068070ED005F00700C0F108000544680720
:1056D00007D0502080F31188BFF34F8FBFF36F8F37
:1056E000FEE72DB37068854237D82348183001464D
:1056F0000C6801E020460C466168A94202D221688C
:105700000029F7D131688C4227D0076821680160F1
:1057100060680837411B10290FD96019420708D06B
:10572000502080F31188BFF34F8FBFF36F8FFEE7D8
:1057300013E041606560FFF769FF61687068401AB7
:105740007060B268904200D2B0607069014300207E
:10575000C4E90001F068401CF06000F043FD7807E8
:1057600007D0502080F31188BFF34F8FBFF36F8FA6
:10577000FEE73846BDE8F0815C00002010B5031F4D
:105780004FF080741C601B1F21F001011960191F6C
:10579000044B0B6014390A60091F6FF00202443891
:1057A0000A6010BD7956000870B50A88C2F30A0372
:1057B000A3F5806383804A788C78D20842EA441249
:1057C000C2F30A02A2F58062C2808C78CD78A40967
:1057D00044EA85040D7944EA8524C4F30A05A5F555
:1057E000806505800C794E79640844EAC614C4F3D8
:1057F0000A04A4F5806444804E79B609068149798B
:105800000026C1F3011141816FF00E010F2D02DA64
:105810008D4200DD06800F2C02DA8C4200DD4680CE
:105820000F2B02DA8B4200DD86800F2A02DA8A42D1
:1058300000DDC68070BD000030B5204D2DED028B1F
:10584000F0EE608AF0EE400A85B0B0EE418A95ED48
:10585000410A05F19800FFF791FC05F58064F0EE30
:10586000680A94ED6C0A04F1D000FFF787FC94ED10
:10587000430A04F59E7060EE080A94ED6A0AFFF789
:105880007DFC00200190029003900490009094ED24
:105890005E0A0023BDEEC00A10EE100A95ED350A2F
:1058A00002B2BDEEC00A10EE100A01B2044800F0C8
:1058B00009F805B0BDEC028B30BD0000C04E0020E1
:1058C000100300202DE9F8430DF128098046DDE999
:1058D000080799E870000090404600F009F82B4650
:1058E000224639464046009600F023F8BDE8F8838A
:1058F0003EB50025069C019502950D0A8DF80450D1
:105900008DF80510110A8DF80610190A8DF8081087
:105910008DF80930210A8DF80A1001A98DF80720A9
:10592000082300918DF80B409A010021FBF762F8E3
:105930003EBD3EB50025069C019502950D0A8DF8E9
:1059400004508DF80510110A8DF80610190A8DF80B
:1059500008108DF80930210A8DF80A1001A98DF878
:10596000072000918DF80B40082340F2FF12002120
:10597000FBF740F83EBD00B52DED048B83B041EC44
:10598000190BFAF78AFF41EC180B18EE100A18EE03
:10599000901A8DED008B002818BF0120084320F0DD
:1059A0000040C0F17F6000F1E040C00F14D019EE5C
:1059B000101A19EE900A8DED009B002918BF0121E5
:1059C000084320F00040C0F17F6000F1E040C00FCC
:1059D00004BF0120FEF704FE51EC180B03B0BDEC30
:1059E000048B00BD2DED028B3D4800F0B9F83D4C15
:1059F000B7EE001AF3EE0E0AB4F9060000EB8000D1
:105A0000800000EE100AB8EEC00AFFF715FF364D11
:105A1000364EB2EE048A4FF07E5700BF00F01AF9FE
:105A2000B4F90A00012804D0032820D002282ED07F
:105A300052E0B4F90600B7EE081A00EB80008000CF
:105A400000EE100ADFED2A0AB8EEC00AFFF7F4FEF6
:105A500095ED6C0AB5EEC00AF1EE10FA01DCB1EE7C
:105A6000400A10EE100AB84236DA002230E0B4F9EB
:105A700006009FED201A00EB8000800000EE100A67
:105A8000DFED1D0AB8EEC00AFFF7D6FE24E0B4F938
:105A900006009FED1A1A00EB8000800000EE100A4D
:105AA000FBEE0E0AB8EEC00AFFF7C6FE95ED6C0AD3
:105AB00070EE480AF5EEC00AF1EE10FA03DCB1EE22
:105AC000400A70EE480A10EE900AB84204DA012249
:105AD00001213046FBF70CFF0A20FFF718FB9DE77A
