:020000040800F2
:10000000605D0020850200088F2F0008712B00081A
:100010008D2F00081D0A0008D138000800000000DC
:10002000000000000000000000000000C501000802
:10003000690B000800000000210200081D300008C4
:100040009F0200089F0200089F0200089F0200080C
:100050009F0200089F0200089F0200089F020008FC
:100060009F0200089F0200089F0200089F020008EC
:100070009F0200089F0200089F0200089F020008DC
:10008000A10A00089F0200089F0200082D0A00082C
:10009000210A00089F0200089F0200089F02000832
:1000A0009F0200089F0200089F0200089F020008AC
:1000B0009F0200089F0200089F0200089F0200089C
:1000C0009F0200089F0200089F0200089F0200088C
:1000D0009F020008053600081D3600089F02000830
:1000E0009F0200089F0200089F0200089F0200086C
:1000F0009F020008F93000089F0200089F020008D4
:100100009F0200089F0200089F0200089F0200084B
:100110009F0200089F0200089F0200089F0200083B
:100120009F020008AD0A0008B90A00089F020008F3
:100130009F0200089F0200089F020008450A00086D
:10014000390A00089F0200089F0200089F02000869
:100150009F0200089F0200089F0200080138000863
:100160009F0200089F0200089F0200089F020008EB
:100170009F0200089F0200089F0200080000000084
:100180009F0200089F0200089F0200089F020008CB
:100190009F0200089F0200089F0200089F020008BB
:1001A00000000000000000009F020008DFF810D0EF
:1001B00000F022FC0048004709600008AFF300800F
:1001C000605D00202C4B19680868B0E8F04F80F3A0
:1001D0000988BFF36F8F4FF0000080F311887047DC
:1001E0000000000008480068006880F308884FF0AD
:1001F000000080F3148862B661B6BFF34F8FBFF37F
:100200006F8F00DF00BF00BF08ED00E0DFF80C00DB
:10021000016841F470010160704700BF88ED00E0A3
:10022000EFF30980BFF36F8F134B1A681EF0100FA6
:1002300008BF20ED108A20E9F04F106009B44FF09C
:10024000500080F31188BFF34F8FBFF36F8F06F01C
:1002500001FE4FF0000080F3118809BC196808689E
:10026000B0E8F04F1EF0100F08BFB0EC108A80F31A
:100270000988BFF36F8F704750000020EFF30580AF
:10028000704700000648804706480047FEE7FEE743
:10029000FEE7FEE7FEE7FEE7FEE7FEE7FEE7FEE736
:1002A000E9300008AD0100082DE9F05F05460020A7
:1002B00092469B4688460646814640241BE02846D7
:1002C00041464746224600F031FA53465A46C01A84
:1002D000914110D311461846224600F018FA2D1A03
:1002E00067EB01084F4622460120002100F00FFA7B
:1002F00017EB00094E41201EA4F10104DFDC484643
:1003000031462A464346BDE8F09F40EA01039B0779
:1003100003D009E008C9121F08C0042AFAD203E07A
:1003200011F8013B00F8013B521EF9D27047D2B2DE
:1003300001E000F8012B491EFBD270470022F6E7CE
:1003400010B513460A4604461946FFF7F0FF20464B
:1003500010BD2DE9FE4F804681EA0300C00F0C4618
:10036000009021F0004123F00045B8EB0200A941C4
:1003700005D24046214690461C460B46024623F0D5
:100380000040104347D0270DC7F30A00C3F30A51BA
:100390000290401A019040286BDAC3F3130040F436
:1003A000801B0098924620B10023D2EB030A63EB36
:1003B0000B0B01985946C0F14002504600F0A7F9D6
:1003C00006460D4650465946019A00F0BFF910EB1B
:1003D00008006141002487EA115284EAE7731A4356
:1003E00040D0009A62B3019A012A4FEA075215DC05
:1003F000001B61EB02014FF0004202EA0752CDE917
:100400000042001C41F5801132462B4600F0F6F9FF
:1004100003B0BDE8F08F40462146F9E7001B61EBD1
:100420000201001C41F5801300185B412018A2F561
:10043000001747EB030140EAD570B6196D4111E092
:100440006D084FEA360645EAC0754FEA0752001BB1
:1004500061EB0201001C41F5801149084FEA3000B0
:100460000019514132462B4603B0BDE8F04F00F071
:10047000B6B90098012240000023D0EB020263EBE2
:10048000E073009821464FEAE074B8EB000061EB9E
:100490000401E9E783F000435BE781F0004158E79E
:1004A0002DE9FE4F81EA030404F0004421F00041ED
:1004B00000944FF0000B23F0004350EA01045ED09B
:1004C00052EA03045BD0C3F30A54C1F30A552C4427
:1004D000A4F2F3340194A0FB0254C1F3130141F4DC
:1004E0008011C3F3130343F4801301FB024400FBA8
:1004F000034E840A970A44EA815447EA8357A4FBCF
:10050000076802958D0A05FB07854FEA932C04FBCB
:100510000C542705029D4FEA065847EA1637B5EBFB
:1005200008056EEB070C870E920E47EA811742EA28
:100530008312A7FB0201B6EB0B0164EB00042B0D49
:1005400043EA0C335E1844EB1C50DA465146E7FB95
:100550000201C5F313044FEA0B3343EA14534FEA85
:100560000432019C43EA0603A4F10C040294009CAB
:10057000CDE900B400F042F903B0BDE8F08F0020EF
:100580000146F9E72DE9F04D81EA030404F0004B40
:1005900021F0004514464FF0000A23F0004150EAD4
:1005A000050220D054EA01021DD0C5F30A570246C5
:1005B000C5F31303C1F31300C1F30A5640F48015C9
:1005C00043F48013A7EB0608101BD64608F2FD384B
:1005D00073EB050002D308F1010801E092185B41BA
:1005E000B8F1000F03DA00200146BDE8F08D0020CD
:1005F0004FF48011064684460EE0171B73EB050787
:1006000005D3121B63EB050306434CEA010C4908B2
:100610004FEA300092185B4150EA0107EDD152EAEF
:10062000030012D082EA040083EA0501084305D0E2
:10063000101BAB4106D20122002306E000224FF03E
:10064000004302E06FF0010253101AEB06004CEB7E
:10065000085110EB0A0041EB0B01BDE8F04D00F032
:10066000BEB80EB5C10F80EAE0700844CA07002189
:1006700040F233438DE80E000A460B4600F0BEF808
:1006800003B000BD00F0004230F000400AD0C10DC0
:1006900001F56071C0F3160042EA0151C20840073B
:1006A0001143704700200146704701F0004330B409
:1006B00021F0004150EA010206D00A0DA2F5607255
:1006C000C1F31301002A02DC30BC00207047440F44
:1006D00044EAC104C100E01830BC00EBC25000F095
:1006E00047B830B50B46014600202022012409E01E
:1006F00021FA02F59D4205D303FA02F5491B04FADB
:1007000002F52844151EA2F10102F1DC30BD202AB9
:1007100004DB203A00FA02F1002070479140C2F158
:10072000200320FA03F3194390407047202A04DB8A
:10073000203A21FA02F00021704721FA02F3D0405A
:10074000C2F120029140084319467047202A06DB77
:10075000CB17203A41FA02F043EAE07306E041FA8F
:1007600002F3D040C2F1200291400843194670477D
:100770000029A8BF7047401C490008BF20F00100B5
:10078000704710B4B0FA80FC00FA0CF050EA010493
:1007900004BF10BC704749B1CCF1200421FA04F425
:1007A00011FA0CF118BF012121430843A3EB0C01FE
:1007B000CB1D4FEA00614FEA102042BF002010BC61
:1007C000704700EBC35010440029A4BF10BC704711
:1007D000401C490008BF20F0010010BC704710B554
:1007E000141E73F1000408DA401C41F10001921854
:1007F0005B411A4301D120F0010010BD2DE9F04DFD
:1008000092469B4611B1B1FA81F202E0B0FA80F251
:1008100020329046FFF77BFF04460F4640EA0A006D
:1008200041EA0B0153465A46084313D0114653EA96
:10083000010019D0C8F140025046FFF777FF054686
:100840000E46504659464246FFF761FF084305D021
:10085000012004E020463946BDE8F08D0020054324
:1008600046EAE0762C4337430A986305E40AA0EB96
:1008700008000022FD0A44EA47540A3002D500204D
:100880000146E9E7010510196941DDE9084500194C
:100890006941BDE8F04DA2E770B521F00043034384
:1008A0000CD0C1F30A550024D5EB040564EB040316
:1008B000D617AD1AB34102DB0020014670BD2018E7
:1008C00041EB025170BD2DE9F04D00231A461B1A71
:1008D0008A4103DB00200146BDE8F08DC1F30A52D6
:1008E000C1F3130141F480154FF0000BD10702D181
:1008F00000186D41521E0027044640F2FF11384691
:1009000001EB620A3E468046024600204FF4801109
:10091000FFF70CFFC2197141BB1846EB0100B4EBA5
:10092000030C75EB000C04D3E41A65EB00051746C5
:100930000E46241908F101006D4180463428E3DD9C
:10094000F91946EB0600091BA84103D24FF0FF320C
:10095000134601E0002213461BEB070046EB0A5149
:10096000BDE8F04DFFF73BBFC1F30A52C1F31301DD
:1009700040F2FF3341F480119A4202DA002001462E
:10098000704740F233439A42A2F2334202DC5242B1
:10099000FFF7CCBEFFF7BBBE30B5041E71F10004FB
:1009A00004DB4FF00044404264EB0101141E73F17C
:1009B000000405DB1C464FF00043524263EB040386
:1009C0008B4208BF824230BD30B5041E71F1000475
:1009D00004DB4FF00044404264EB0101141E73F14C
:1009E000000405DB1C464FF00043524263EB040356
:1009F000994208BF904230BD064C074D06E0E068C2
:100A000040F0010394E8070098471034AC42F6D355
:100A1000FFF7D0FBA0730008C0730008FEE70000DA
:100A2000014800F036BA000018050020014800F027
:100A300030BA000018050020014800F02ABA000072
:100A400040050020014800F024BA000040050020C5
:100A5000F0B587B000240C9E0746254649B1042016
:100A6000CDE90120CDE903538DF814504FF6FE7502
:100A700006E002950092F5E7641CA4B2AC420CD8E3
:100A8000384600F0F0F90028F6D006AB3246694649
:100A9000384600F07EF8002800D0012007B0F0BDF5
:100AA000014800F0DBBC000030070020014800F0E6
:100AB000D5BC000090070020014800F0CFBC00002A
:100AC000D006002001681823CAB2103AB2FBF3F234
:100AD000054B6FF30901032A9B5CC36500D9091D0F
:100AE00081650846704700003872000810B501465D
:100AF00000208B698A6A4FF0C07453B1B3F5005F70
:100B000015D072B1012A0CD0022A0AD0032A09D1C9
:100B100004E01AB1012A06D0022A03D1C96AC90128
:100B200000D5012010BDC96AA142FAD010BD002A2B
:100B3000F7D0012AF2D0022AF3D0032AF3D010BD55
:100B400030B50468256825F4802525600468636055
:100B50008368402B036803D099600068C26030BD91
:100B60009A600068C16030BD704772B6FEE790F8C9
:100B70002020012A07D0022A05D0416A41F48021B1
:100B8000416201207047006842690A4342610020C7
:100B90007047F0B590F820500468A468012D05D086
:100BA000022D03D0416A41F480215DE014F0406FD2
:100BB00001D1E50055D5C4F30164022C03D9416A83
:100BC00041F4000150E00125A5401D608D684FF4FF
:100BD000C0739DB1CE6835434E6845EAC6050668C8
:100BE00003EB0417F5514FF4C275076805EB0415C4
:100BF0000E697E51097D012905D009E00E88CD6876
:100C000045EA4655EBE701684E5946F480764E5169
:100C10001179D579567941EA056195792D0445EA2E
:100C2000062529434FF4C676056806EB0416A9513C
:100C30001178D57841EA0561957852782D0445EA16
:100C4000022211434FF4C475026805EB041551519B
:100C5000006803EB0411425842F0010242500020A8
:100C6000F0BD416A41F4001141620120F0BD000075
:100C700010B590F82020012A07D0022A05D0416A39
:100C800041F480214162012010BD3B48D0F8002290
:100C900042F00102C0F80022D0F8002222F47C5277
:100CA000C0F80022D0F800224B6A42EA0322C0F8C2
:100CB00000220A7D02F01F0301229A40D0F81C3264
:100CC0009343C0F81C32CB69B3B9D0F80C329343CC
:100CD000C0F80C328C894B6864F31F434C6900EBFD
:100CE000C404C4F840320C890B6864F31F434C6998
:100CF00000EBC404C4F84432CB69012B16D1D0F800
:100D00000C321343C0F80C320C884B6864F31F4359
:100D10004C6900EBC404C4F840320C89CB6864F31E
:100D20001F434C6900EBC404C4F844328B69002BA8
:100D3000D0F804320ED01343C0F804320B69002BF4
:100D4000D0F8143208D01343C0F81432096A0129CC
:100D500004D008E09343EFE79343F5E7D0F81C1283
:100D60001143C0F81C12D0F8001221F00101C0F8A4
:100D70000012002010BD000000640040704730B534
:100D800090F82040012C05D0022C03D0416A41F498
:100D900080215DE00468002955D02469A40754D05F
:100DA0004FF4D874056804EB01142D5915F00405AF
:100DB000956005682D594ED0ED08556005682C5991
:100DC00004F00204D4604FF4DA74056804EB0114F3
:100DD0002D5905F00F05156105682D59C5F3072537
:100DE000956105682C59240C54614FF4DC72046839
:100DF00002EB0112A4581C700468A458240A5C7009
:100E00000468A458240C9C700468A258120EDA706E
:100E10004FF4DE72046802EB0112A4581C710468DE
:100E2000A458240A5C710468A458240C9C710468BA
:100E3000A258120EDA71006881B1016941F02001F7
:100E40000161002030BDE468A8E7416A41F4001167
:100E50004162012030BD6D0D1560AFE7C16841F002
:100E60002001C160EDE70246002092F82010012920
:100E700001D002290CD111688A68520100D50120E5
:100E80008A68120100D5401C8968C90000D5401C41
:100E900070472DE9F05F0546006800244669D0F8E8
:100EA00004908768D0F80CB0D0F810A0D0F8188063
:100EB000F10748D0F90714D001218160B80703D5A4
:100EC000284600F06AFA0CE0780702D54FF4006477
:100ED00007E0380702D54FF4805402E0284600F0BE
:100EE0005BFAF80516D529684FF480708860B8055C
:100EF00003D5284600F053FA0CE0780502D544F4F7
:100F0000005407E0380502D544F4804402E0284646
:100F100000F044FAF80316D529684FF48030886051
:100F2000B80303D5284600F03CFA0CE0780302D55C
:100F300044F4004407E0380302D544F4803402E06E
:100F4000284600F02DFA300707D55FEACB6004D5BC
:100F50002968102044F40074C86070074FF0080737
:100F600007D55FEA0B7004D52868C760284600F0F3
:100F7000A9F9B00706D52868C068800702D02846BE
:100F800000F0A2F9700607D55FEACA6004D52968A7
:100F9000102044F480640861B00607D55FEA0A7047
:100FA00004D528680761284600F0C6F9F00606D582
:100FB00028680069800702D0284600F0BEF9B00317
:100FC00008D55FEAC96005D5296810204860284621
:100FD00000F0B4F9F00307D55FEA097004D528687A
:100FE0004760284600F0DEF9300446D55FEA4970D4
:100FF00040D5F00504D55FEAC87001D044F0010483
:10100000B00504D55FEA887001D544F0020470058C
:1010100004D55FEA487001D544F00404300529D5B1
:1010200018F0700F26D008F07000402815D006DCAC
:10103000102809D020280AD0302816D10AE05028DC
:101040000ED0602811D10EE044F008040DE044F009
:1010500010040AE044F0200407E044F0400404E0F7
:1010600044F0800401E044F480742868816921F030
:1010700070018161296804204860002C05D0686AED
:10108000204368622846FFF779FEBDE8F09F70B5FF
:10109000040003D094F8200010B104E0012070BDDA
:1010A000204600F081F82068016841F001010160EC
:1010B00000F088FC0546052604E000F083FC401B98
:1010C0000A2811D820684068C007F6D02068016857
:1010D00021F00201016000F075FC05460BE000F014
:1010E00071FC401B0A2806D9606A40F40030606237
:1010F00084F82060D2E7206840688007EFD4207E23
:101100000128206801683DD021F080010160607EE7
:1011100001282068016838D021F040010160A07EDC
:1011200001282068016833D021F020010160E07EB1
:101130000128206801682ED041F010010160207F55
:1011400001282068016829D021F008010160607F32
:1011500001282068016824D021F004010160D4E94D
:1011600002010843D4E90412114308436168491E8F
:1011700008432168C86100206062012084F82000D3
:10118000002070BD41F08001C0E741F04001C5E79B
:1011900041F02001CAE721F01001CFE741F008013A
:1011A000D4E741F00401D9E7F0B587B00446142133
:1011B0006846FFF7C3F83E4B3E48DFF8F0E0196899
:1011C000D4F800C03B4A032502260927103000242A
:1011D000491CF4452AD11960012907D1016841F061
:1011E00000710160006800F000700590106840F028
:1011F000080010601068CDE9005600F00800CDE945
:10120000047069462C48CDE9024500F0BBFA002283
:101210000521132000F062FC132000F051FC002295
:101220000521142000F05AFC14203BE0DFF88CE08C
:10123000F44539D1D0F800C04CF0806CC0F800C043
:10124000D0F800C001290CF0806CCDF814C01960F2
:1012500007D1016841F000710160006800F0007082
:101260000590106840F002001060106802AB00F0BA
:10127000020005904FF44050CDE9000683E8B0002D
:1012800069460F4800F07EFA002205213F2000F059
:1012900025FC3F2000F014FC00220521402000F036
:1012A0001DFC402000F00CFC07B0F0BD00640040C5
:1012B0003C00002030380240000C02400068004032
:1012C000000402407047000010B58AB004466B4627
:1012D00002AA0021FFF753FD1449206888420298B2
:1012E000A0F2012013D107280BD8C0B200EB800177
:1012F00001EBC0010E4812E0491CC162694604F0CE
:101300004FFE0AB010BD694604F024FEF9E7072835
:10131000F7D8C0B200EB800101EBC001054800EB3B
:101320008100C16A3229EED8E6E70000006400407F
:1013300040450020E046002070477047704700009D
:1013400070B5044690F82000012804D0606A40F48B
:101350000020606218E0022084F820002068016804
:1013600021F00101016000F02DFB05460EE000BFF9
:1013700000F028FB401B0A2808D9606A40F40030BE
:101380006062052084F82000012070BD206840685C
:10139000C007EDD1606270BD7047704770477047FD
:1013A0007047704770472DE9F0410446876D00F0A3
:1013B00009FB064694F835000025022806D0802057
:1013C000606584F834500120BDE8F0812068016830
:1013D00021F0160101602068416921F0800141611E
:1013E000206C08B9A06C20B12068016821F00801C8
:1013F00001602068016821F0010101600CE000F04B
:10140000E1FA801B052807D920206065032084F8B5
:10141000350084F83450D7E720680068C007EED163
:1014200094F85C103F208840B860012084F83500B3
:1014300084F834500020C7E790F83510022903D013
:101440008021416501207047052180F83510006832
:10145000016821F001010160002070472DE9F84387
:1014600004464FF00009CDF8009063484FF4165140
:10147000A56D0068B0FBF1F72E6894F85C100820A9
:1014800000FA01F131420FD021680A6852070BD5EA
:101490000A6822F004020A6094F85C108840A86090
:1014A000606D40F00100606594F85C104FF0010839
:1014B00008FA01F0304208D021684969090604D5CC
:1014C000A860606D40F00200606594F85C10042034
:1014D0008840304208D021680968890704D5A8608F
:1014E000606D40F00400606594F85C101020884046
:1014F000304218D021680968090714D5A86020680F
:101500000168490304D50068000308D5A16C07E011
:101510000168C90503D4016821F008010160216C4C
:1015200009B12046884794F85C102020884030425A
:1015300031D021680968C9062DD5A86094F8350016
:1015400005282068016806D0490347D500680003D4
:101550001DD4616C1CE021F0160101602068416916
:1015600021F080014161206C08B9A06C20B1206895
:10157000016821F00801016094F85C103F20884068
:10158000A86084F8358084F83490216D1FE0E16B09
:1015900009B120468847606D00282BD0606DC007D8
:1015A00014D0052084F835002068016821F001017D
:1015B00001600098401C0090B84203D82068006881
:1015C000C007F6D184F8358084F83490E16C0029A6
:1015D00010D001B02046BDE8F04308470168C905B6
:1015E000D5D4016821F01001016084F8358084F8B9
:1015F0003490CCE7BDE8F8834C0000202DE9F041A1
:10160000044600F0DFF906465CB1022084F835009C
:10161000002584F834502068016821F00101016040
:101620000DE00120BDE8F08100F0CCF9801B052819
:1016300005D920206065032084F83500F2E7206892
:101640000068C007F0D12268116820480140D4E941
:1016500001031843D4E9033633431843636918433D
:10166000A3691843E3691843236A18430843616A6E
:10167000042903D1D4E90B131943084310602068EF
:101680004069666A20F0070130460E4301270428AE
:101690000CD1A06A0643E06A40B12046FFF726FA63
:1016A00020B14020606584F83570BAE72068466153
:1016B0002046FFF707FA94F85C203F2191408160B3
:1016C000656584F835700020ACE700003F8010F0BD
:1016D00070B5044690F83400002501280CD0012094
:1016E00084F8340094F835600020012E06D084F888
:1016F00034000225284670BD022070BD022684F801
:10170000356060652046FFF71BFA2068016841F0EC
:1017100001010160EEE72DE9F0410446866D90F885
:101720003400002501280DD0012084F8340094F8FD
:1017300035700020012F07D084F834000225284698
:10174000BDE8F0810220FBE7022784F83570606570
:101750002046FFF7F5F994F85C103F208840B06010
:101760002068016841F016010160206C20B12068FA
:10177000016841F0080101602068016841F0010141
:101780000160DCE72DE9F84FDFF8F8A10022012421
:1017900003254FF00F090AF1040BAAF1040E00BF54
:1017A0000B6804FA02F63340B34270D10F7907F0A8
:1017B0000307012F01D0022F16D187684FEA420894
:1017C00005FA08FC27EA0C07D1F80CC00CFA08FC53
:1017D0004CEA070CC0F808C04768B7430E79C6F357
:1017E000001696403E4346600E79F643B6070AD08F
:1017F000C7684FEA420C05FA0CF6B7438E6806FA42
:101800000CF63E43C6600E7906F00306022E10D198
:10181000D60800EB8608D8F8206057074FEAD76C47
:1018200009FA0CF7BE430F6907FA0CF73743C8F8FB
:10183000207006684FEA420C05FA0CF7BE430F7998
:1018400007F0030707FA0CF7374307604E6816F4F2
:10185000403F1CD04C4E376847F4804737603668AD
:1018600022F0030706F480460096484E07EB060C6C
:10187000DCF8086897073F0F09FA07F826EA080618
:10188000DFF80C81404503D14FF0000841E072E0E1
:10189000DFF80081404502D14FF0010839E0DFF860
:1018A000F880404502D14FF0020832E0DFF8EC80CA
:1018B000404502D14FF003082BE0DFF8E4804045BB
:1018C00002D14FF0040824E0DFF8D880404502D16F
:1018D0004FF005081DE0DFF8D080404502D14FF001
:1018E000060816E0DFF8C480404502D14FF0070833
:1018F0000FE0DFF8BC80404502D14FF0080808E057
:10190000DFF8B080404502D14FF0090801E04FF008
:101910000A0808FA07F848EA0608CCF80888DAF84E
:1019200000605746D1F804C09E435FEACC2C00D536
:101930001E433E60DBF800605F46D1F804C09E4362
:101940005FEA8C2C00D51E433E60DEF800607746CF
:10195000D1F804C09E435FEA8C3C00D51E433E6034
:10196000084F083F3E68D1F804C09E435FEACC3C74
:1019700000D51E433E60521C102AFFF411AFBDE893
:10198000F88F0000083C014044380240003001401C
:10199000000002400004024000080240000C024027
:1019A000001002400014024000180240001C0240D7
:1019B00000200240002402400AB1816170470904FE
:1019C000FBE70000014880687047000040000020ED
:1019D000024881680278114481607047400000200D
:1019E0000B4810B5016841F400710160016841F4D1
:1019F00080610160016841F480710160032000F0A2
:101A00008DF80F2000F006F800F03EF8002010BD21
:101A1000003C024010B5014688B000222D2000F0A5
:101A20005DF82D2000F04CF813480024016841F4C3
:101A300080710160006805A900F480700690684616
:101A400000F050F900F06EF90C494000B0FBF1F1E4
:101A50000C480B4A491E026040F2E732C0E90324F9
:101A6000C0E9011400F0FCFB10B1012008B010BD6A
:101A7000044800F023FCF9E74038024040420F00E0
:101A800000200040080800200C4882B0016841F4A2
:101A900080410160006800F4804000900748001F0A
:101AA000016841F0805101600068002200F0805020
:101AB00000900F21901E02B000F010B84438024090
:101AC000002809DB00F01F0201219140400980003D
:101AD00000F1E020C0F8001170470000F0B40E4B98
:101AE0001B680C46C3F30223C3F10705042D00D97C
:101AF0000425191D072901D2002300E0DB1E012661
:101B000006FA05F1491E214099409E40761E164076
:101B10003143F0BC01F034BF0CED00E0064900F0A9
:101B2000070208684FF6FF03184040EA0220034A04
:101B300010430860704700000CED00E00000FA055B
:101B40002DE9F8431748016841F0805101600068B1
:101B5000154F00F08050012600903E64FFF732FFE1
:101B600005464FF47A78114C05E000BFFFF72AFFD5
:101B7000401B40450DD86068C003F7D57E64FFF771
:101B800021FF0546464607E0FFF71CFF401BB04219
:101B900002D90320BDE8F88360688003F4D50020F3
:101BA000F8E700004038024000000E42007000409C
:101BB0002DE9F0470E46050065D0DFF81481D8F80E
:101BC0000000F7B200F00F00B04207D288F80070B2
:101BD000D8F8000000F00F00B04254D128683D4C06
:101BE000810712D5400703D5206840F4E0502060FB
:101BF0002878000703D5206840F460402060206802
:101C0000A96820F0F000084320602878C0072DD094
:101C1000304968680839012812D0022813D00328F7
:101C200011D00968890700292DDA216821F0030104
:101C300001432160FFF7C6FE814641F2883A0EE07B
:101C400009688903EFE709688901ECE7FFF7BAFE45
:101C5000A0EB0901514502D90320BDE8F0872068B7
:101C6000696800F00C00B0EB810FEFD1D8F80010DC
:101C7000404601F00F01B14207D90770006800F03B
:101C80000F00B04201D00120E7E72878400705D5D2
:101C90002068E96820F4E0500843206028780007B5
:101CA00006D52068296920F4604040EAC100206020
:101CB00000F058F82168084AC1F30311515CC8408C
:101CC0000649086006480068FFF7A4FE0020C4E744
:101CD000003C024008380240407200084C000020DE
:101CE000440000200F2202600C4A136803F0030333
:101CF0004360136803F0F0038360136803F4E05358
:101D0000C36012684FF4E05303EAD2020261044850
:101D1000006800F00F0008607047000008380240BB
:101D2000003C02400448054900680968044AC1F3C0
:101D30008221515CC84070474C00002008380240A6
:101D4000507200080448054900680968044AC1F354
:101D50004231515CC84070474C00002008380240B6
:101D600050720008154810B5006810F00C021448B5
:101D700013D01449042A0FD0082A0ED10F4C241F67
:101D80002268236802F03F025B0207D52068C0F397
:101D90008810A0FB010106E0084610BD2168C1F3D0
:101DA0008811A1FB00010023FEF77EFA2168C1F330
:101DB0000141491C4900B0FBF1F010BD0838024058
:101DC0000024F40040787D012DE9F84F04006ED026
:101DD0002078DFF84C93C007A9F104054AD009F137
:101DE00004000168C1F38101012908D00068C0F333
:101DF000810002280AD1D9F80000400206D52868DF
:101E0000800337D560680028E1D033E06068B0F522
:101E1000803F10D0B0F5A02F286810D020F480307B
:101E20002860286820F4802028606068A8B1FFF747
:101E3000C9FD06460DE0286840F48030F4E740F420
:101E400080202860F7E700BFFFF7BCFD801B6428F7
:101E500073D828688003F7D50CE0FFF7B3FD06467A
:101E600005E000BFFFF7AEFD801B6428F0D82868AE
:101E70008003F7D42078DFF8AC8280074FF0000AA7
:101E80003ED5A748001D016811F00C0F08D000686E
:101E9000C0F3810002280BD1D9F80000400207D41A
:101EA0002868800716D5E068012800D112E033E1E8
:101EB000E068B8B10120C8F80000FFF783FD0646CE
:101EC00005E000BFFFF77EFD801B0228C0D8286810
:101ED0008007F7D52868216920F0F80040EAC100A2
:101EE00028600DE0C8F800A0FFF76CFD064604E08E
:101EF000FFF768FD801B02281FD828688007F7D4E9
:101F00002078000722D5864F87486169703771B104
:101F100001210160FFF756FD064604E0FFF752FD80
:101F2000801B022809D838688007F7D50EE0C0F872
:101F300000A0FFF747FD064605E082E0FFF742FDFF
:101F4000801B02287DD838688007F7D420784007A6
:101F500068D5DFF8CCB100270BF13C0BDBF80000B3
:101F6000C0000BD4DBF8001041F08051CBF800101A
:101F7000DBF80000012700F0805000906B4E3068C5
:101F8000C00510D4306840F480703060FFF71AFD4F
:101F9000009005E0FFF716FD0099401A022850D87E
:101FA0003068C005F6D55E4EA0686C3601280FD0AB
:101FB0000528306810D020F001003060306820F033
:101FC00004003060A068B8B1FFF7FCFC00900FE09F
:101FD000306840F00100F4E740F004003060F7E7BB
:101FE000FFF7F0FC0099411A41F28830814266D82F
:101FF00030688007F4D50EE0FFF7E4FC009007E0BE
:10200000FFF7E0FC0099411A41F28830814256D82E
:1020100030688007F4D42FB1DBF8001021F0805134
:10202000CBF80010A069C8B33D49091D0968C1F388
:10203000810102294AD00228504607D0C8F8600022
:1020400000E03CE0FFF7BEFC04463BE04746C8F832
:102050006000FFF7B7FC064605E000BFFFF7B2FCE3
:10206000801B02282BD828688001F7D4D4E9070107
:102070000843A16A2E4A490802EB0141626A41EA1B
:102080008211084394F82C1040EA0161C9F800104D
:1020900001203866FFF796FC044606E03EE000BFEC
:1020A000FFF790FC001B022809D828688001F7D5AB
:1020B00034E000BFFFF786FC001B022802D9032092
:1020C000BDE8F88F28688001F4D427E00128F7D014
:1020D000D9F80000E26900F4800191421CD1226A23
:1020E00000F03F01914217D147F6C071626A01408A
:1020F000B1EB821F10D1A26A4FF0FF3300F44031E0
:1021000003EB5202B1EB024F06D194F82C1000F011
:102110007060B0EB016F01D00120D1E70020CFE764
:102120000438024000004742800E474200700040E1
:102130000000FFFF70B5040009D0606A002540B1BF
:1021400025616561A56294F8510040B10CE0012061
:1021500070BD6068B0F5827FF4D0E561F2E784F885
:102160005050204600F044F8022084F851002068C6
:10217000016821F040010160A088218900F482708B
:1021800001F404410843A18901F400610843217C62
:1021900001F002010843217D01F001010843218B78
:1021A00001F400710843217F01F03801084394F8DD
:1021B000201001F080010843218D01F400510843F3
:1021C00021680860A069042101EA104094F82410F5
:1021D00001F010010843216848602068C16921F4BA
:1021E0000061C1616565012084F85100002070BD67
:1021F00010B586B0044614216846FEF79FF81449CE
:102200002068884221D113480021026842F400521C
:102210000260006800F4005005900E48143802680F
:1022200042F010020260006800F0100005904FF4C8
:10223000835000900220CDE9010103200390052086
:10224000049069460448FFF79DFA06B010BD0000EF
:10225000003401404438024000100240704770478B
:1022600010B5040003D094F83D0010B107E0012040
:1022700010BD002084F83C00204600F01EF802202B
:1022800084F83D00211D206800F03CFF012084F807
:10229000460084F83E0084F83F0084F8400084F84B
:1022A000410084F8420084F8430084F8440084F834
:1022B000450084F83D00002010BD704790F83D10A7
:1022C000012901D001207047022180F83D100168EA
:1022D000CA6842F00102CA6000681149884214D0FD
:1022E000B0F1804F11D00F4988420ED00E4988427C
:1022F0000BD00E49884208D00D49884205D00D49BF
:10230000884202D00C49884204D1816801F007015B
:10231000062903D0016841F00101016000207047E7
:10232000000001400004004000080040000C004094
:10233000000401400040014000180040704770B5A3
:102340000446006801694FF00005C943890715D4A8
:10235000C168C943890711D4E91E016101202077B2
:10236000206880698007204602D0FFF7E7FF04E07D
:1023700000F098F8204600F096F82577206801696B
:10238000C943490717D4C168C943490713D46FF03B
:1023900004010161022020772068806910F4407FE9
:1023A000204602D0FFF7CAFF04E000F07BF8204689
:1023B00000F079F8257720680169C943090716D428
:1023C000C168C943090712D46FF0080101610420F4
:1023D00020772068C0698007204602D0FFF7AEFF53
:1023E00004E000F05FF8204600F05DF825772068F3
:1023F0000169C943C90617D4C168C943C90613D4C2
:102400006FF010010161082020772068C06910F486
:10241000407F204602D0FFF791FF04E000F042F831
:10242000204600F040F8257720680169C943C907B4
:1024300008D1C168C943C90704D1891E016120467A
:1024400000F032F820680169C943090609D4C1685F
:10245000C943090605D46FF0800101612046FFF7EA
:10246000FDFE20680169C943490609D4C168C94312
:10247000490605D46FF040010161204600F01EF8C6
:1024800020680169C94389060BD4C168C94389061C
:1024900007D46FF0200101612046BDE87040FFF7CE
:1024A000DEBE70BD7047704700680349884201D1A5
:1024B000FFF78EBA70470000002000407047704759
:1024C00010B504460068406994F83D10C0F3C01090
:1024D000212911D180B12068143050E8001F21F06B
:1024E000800140E80012002AF5D1606B08B1FEF7C8
:1024F0005AFF204600F00CFF2068406994F83E1017
:10250000C0F38010222911D180B12068143050E826
:10251000001F21F0400140E80012002AF5D1A06B15
:1025200008B1FEF740FF204600F0CBFE002010BDB2
:1025300070470000F8B5016804460868CA684B692E
:1025400010F00F0F4FF0000559D003F0010602F410
:102550009077374365D0C10705D0D10503D5216CED
:1025600041F001012164410705D5D90703D0216C51
:1025700041F002012164810705D5D90703D0216C00
:1025800041F004012164010707D502F02001314325
:1025900003D0216C41F008012164216C00293AD05C
:1025A000800604D5900602D5204600F0BFFE2068C4
:1025B0004069216CC0F38010090700D460B3204645
:1025C00000F07FFE20684069400621D52068143065
:1025D00050E8001F21F0400140E80012002AF5D128
:1025E000A06BA8B16C490165A06BFEF725FF002820
:1025F00011D0A06B016D01B0BDE8F0400847830623
:102600000FD593060DD52046BDE8F84000F08EBEEC
:102610002046FFF78DFFF8BD2046FFF789FF2564B0
:10262000F8BD266B2023012E79D1C60677D5D606B4
:1026300075D50868486800904869400640D5A16B88
:10264000086840680004000CEAD0A28D8242E7D9F5
:10265000E085C869B0F5807F2DD020680C3050E847
:10266000001F21F4807140E80012002AF5D1206893
:10267000143050E8001F21F0010140E80012002A48
:10268000F5D12068143050E8001F21F0400140E8E7
:102690000012002AF5D184F83E30256320680C3002
:1026A00050E8001F21F0100140E80012002AF5D187
:1026B000A06BFEF778FEA08DE18D401A81B229E073
:1026C000A08DE18D401A81B2E08D0028A8D00029AC
:1026D000A6D020680C3050E8002F22F4907240E819
:1026E0000026002EF5D12068143050E8002F22F08B
:1026F000010240E80026002EF5D184F83E30256323
:1027000020680C3050E8002F22F0100240E800232F
:10271000002BF5D12046FFF7D2FEF8BDFFE70506F6
:102720002BD5150629D594F83D002128F5D1A068B0
:10273000B0F5805F01D12069B0B1206A411C2162EF
:10274000216800784860E08C401E0004000CE084A2
:10275000E3D12068C16821F08001C1602068C168B0
:1027600041F04001C160D8E7206A0088C0F308004A
:102770004860206A801C2062E5E74006CDD55006FF
:10278000CBD5CA68204622F04002CA6084F83D30AA
:1027900000F0EDF9C1E70000CD31000870B504008C
:1027A00004D094F83D00002510B106E0012070BD72
:1027B00084F83C50204600F023F8242084F83D00A3
:1027C0002068C16821F40051C160204600F00EFE6F
:1027D0002068016921F4904101612068416921F07C
:1027E0002A0141612068C16841F40051C16025643B
:1027F000202084F83D0084F83E00002070BD0000D9
:102800002DE9F04F87B0054614216846FDF796FD87
:102810009348DFF848821438D5F800C00024DFF868
:1028200040A2022103220723061587154FF48039A1
:10283000C4455BD1DAF8008048F01008CAF800807F
:10284000DAF800C00CF0100CCDF814C0D0F800C0BD
:102850004CF0020CC0F800C0D0F800C00CF0020C24
:10286000CDF814C0D0F800C04CF0010CC0F800C086
:1028700000688A4600F0010005908020CDE9000A3A
:102880000DF1080C90469B468CE810096946754886
:10289000FEF778FF7010CDE9000A0DF1080C6946CB
:1028A0008CE810097048FEF76DFFDFF8C4816F49AE
:1028B000404602C07104E0E80214E0E8034640F834
:1028C000044C80E890024046C8F82440FEF796FE8B
:1028D00008B1FEF74AF9C5F8388000220521252005
:1028E000C8F83850FFF7FAF825204BE0DFF884816C
:1028F000DFF86CB1DFF880E1ABF1040BC44546D1E1
:10290000DBF8008048F40038CBF80080DBF800C02A
:102910000CF4003CCDF814C0D0F800C04CF0080C0A
:10292000C0F800C0006800F00800059060208DE845
:10293000130069467046CDE90323FEF723FFDFF855
:1029400030814E4908F16008404602C04FF00061F6
:10295000E0E80214E0E8034640F8044C80E8900206
:102960004046C8F82440FEF749FE08B1FEF7FDF8DE
:10297000C5F83880002205212620C8F83850FFF716
:10298000ADF82620FFF79CF807B0BDE8F08FDFF820
:10299000F080C4451DD1DBF8006046F48026CBF8FA
:1029A0000060DBF8005005F480250595056845F0CA
:1029B00008050560006800F0080005904FF44070BD
:1029C0008DE8130069467046CDE90323FEF7DAFE71
:1029D000DAE72C4B9C45D7D1DAF800C04CF0200C3C
:1029E000CAF800C0DAF8003003F02003059303684A
:1029F00043F040030360006800F0400005904FF48E
:102A000084408DE813000820CDE9032069461E4864
:102A1000FEF7B8FEDFF85880144908F1C0084046B8
:102A2000183902C08905E0E80214E0E8034640F8DE
:102A3000044C80E890024046C8F82440FEF7DEFDD2
:102A400008B1FEF792F8C5F838800022052147202A
:102A5000C8F83850FFF742F8472093E700100140CC
:102A6000443802400004024000000240406402403A
:102A7000D006002000440040000C02408860024064
:102A800000480040001401400018024090F83E3019
:102A9000202B0ED159B152B190F83C30012B08D007
:102AA000012380F83C300023036300F025BD0120A2
:102AB0007047022070477047704700002DE9F843C7
:102AC000044690F83D001F4616460D4620284CD17E
:102AD000C5B1BEB194F83C00012846D0012084F86D
:102AE0003C004FF00008C4F84080212084F83D00ED
:102AF000FEF768FFA6848146E684A068B0F5805F93
:102B000003D004E00120BDE8F883206928B12E46F7
:102B10005FF0000584F83C800EE00026FAE7802193
:102B2000204600F033FDA0B9AEB116F8010B2168C4
:102B30004860E08C401EE084E08C4B464FF0000281
:102B400000970028EBD14FF04001204600F01EFD19
:102B500030B10320D7E735F8020BC0F30800E6E7F1
:102B6000202084F83D000020CDE70220CBE770470D
:102B7000FEE700000F4810B50D49016005214160D6
:102B800000214FF400328160C0E90312520142611A
:102B90000176012242768176C17601774177FEF790
:102BA00076FA002803D0BDE81040FDF7DEBF10BD67
:102BB00000640040180500200F4810B50D49016061
:102BC0000521416000214FF400328160C0E9031209
:102BD000520142610176012242768176C176017707
:102BE0004177FEF754FA002803D0BDE81040FDF706
:102BF000BCBF10BD0068004040050020154808B566
:102C0000016841F480010160016801F480010091D4
:102C1000016841F4001101600068002200F4001016
:102C2000009005211020FEF759FF1020FEF748FF05
:102C3000002205213920FEF751FF3920FEF740FF21
:102C4000002205213A20FEF749FFBDE808403A205E
:102C5000FEF736BF3038024010B596B01C2211493D
:102C60006846FDF752FB0021684603F032FA0E4C2D
:102C70000C491C2220601C3107A8FDF746FB0021EF
:102C800007A803F026FA074960601C2238310EA815
:102C9000FDF73BFB00210EA803F01BFAA06016B065
:102CA00010BD0000E4710008300000202DE9F04F55
:102CB00087B014216846FDF741FB60480024016895
:102CC00041F040010160016801F040010591016897
:102CD00041F001010160016801F001010591016805
:102CE00041F010010160016801F0100105910168D7
:102CF00041F002010160016801F0020105910168E3
:102D000041F008010160016801F0080105910168C6
:102D100041F020010160016801F020010591016886
:102D200041F480710160016801F4807105910168CE
:102D300041F080010160016801F0800105910168A6
:102D400041F0040101600068002200F004000590D9
:102D500044F203013A48FEF72FFE3A4E0122114693
:102D60003046FEF729FEDFF8E0900022FE214846BB
:102D7000FEF722FEDFF8D4A04FF4E05701223946D7
:102D80005046FEF719FEDFF8C8B00022042158466D
:102D9000FEF712FE4FF40068002241462D48FEF770
:102DA0000BFE002201212C48FEF706FE03200090B6
:102DB0000125CDE90154694621480394FEF7E2FC60
:102DC0000095CDE90154694630460394FEF7DAFCDC
:102DD000FE20022603948DE8610069464846FEF70E
:102DE000D1FC0097CDE90154694650460394FEF7A3
:102DF000C9FC04200090CDE901546946584603946B
:102E0000FEF7C0FCCDE90264CDE9008569461148B2
:102E1000FEF7B8FC0095CDE9015469460E480394CD
:102E2000FEF7B0FCA80303948DE8610069460448EE
:102E3000FEF7A8FC07B0BDE8F08F00003038024074
:102E4000001402400020024000180240001C024012
:102E5000000802400010024000040240114810B572
:102E60000F4901604FF48271416000214FF400620C
:102E7000C0E902120122C0E904125202826120223A
:102E8000C0E90721416281620A21C162FFF752F95C
:102E9000002803D0BDE81040FDF767BE10BD00005C
:102EA00000340140680500200C4810B50A49016053
:102EB0000B494160002181600C22C160C0E904120D
:102EC0008161C161FFF76AFC002803D0BDE81040B2
:102ED000FDF74BBE10BD000000100140C0050020F2
:102EE000A08601000C4810B50A4901604FF4E13199
:102EF0004160002181600C22C160C0E9041281613F
:102F0000C161FFF74BFC002803D0BDE81040FDF77E
:102F10002CBE10BD00440040040600200C4810B533
:102F20000A4901604FF4E1314160002181600C22C7
:102F3000C160C0E904128161C161FFF72FFC002864
:102F400003D0BDE81040FDF710BE10BD00480040A2
:102F5000480600200C4810B50A4901604FF4E131E1
:102F60004160002181600C22C160C0E904128161CE
:102F7000C161FFF713FC002803D0BDE81040FDF746
:102F8000F4BD10BD001401408C060020FEE7FEE7F2
:102F900030B40B4C44660B4CDFED0B1A8466C0ED6D
:102FA0000E1AC0ED0D1AC0ED0F1AC0ED101AC0EDCB
:102FB000111AC0ED121AC0ED131A30BC03F096B905
:102FC000ED620008FB6200080000000002461048A5
:102FD000012A09D0022A04D0032A0DD0042A15D1CF
:102FE0000C4889B1012205E009B1012200E000226C
:102FF000022107E0012105E0074809B1012200E0B4
:1030000000220421FEF7D8BC0022F3E7704700003D
:1030100000140240000402400008024010B5502095
:1030200080F31188BFF34F8FBFF36F8F04F012F856
:1030300018B104494FF080500860002080F31188D7
:1030400010BD000004ED00E030B593B030216846BB
:10305000FDF774F914210CA8FDF770F9204800253C
:10306000016841F080510160006800F080501190CB
:103070001C48016841F4404101600068022400F4EA
:103080004040119001200390102004900094069479
:103090000820CDE90750B420CDE9090404200B90A5
:1030A0006846FEF791FE08B172B6FEE7FEF748FDEE
:1030B00008B172B6FEE70CA90F2081E831004FF489
:1030C000A0500F904FF48050109005210CA8FEF7EF
:1030D0006FFD002801D072B6FEE713B030BD0000CE
:1030E00040380240007000400248016841F470011D
:1030F0000160704788ED00E00148FFF720B900004B
:1031000008080020F0B50268254C264D264E274FB2
:10311000274B4FF0804CA04209D0604507D0A84211
:1031200005D0B04203D0B84201D0984204D122F079
:10313000700E4A6842EA0E02A0421BD0604519D0C8
:10314000A84217D0B04215D0B84213D0984211D03F
:10315000184DA8420ED0184DA8420BD0174DA842CA
:1031600008D0174DA84205D0164DA84202D0164DE2
:10317000A84203D122F44075CA682A434D6922F05F
:1031800080022A4302608A68C2620A688262A042A0
:1031900001D0984201D10969016301214161F0BD6B
:1031A000000001400004004000080040000C004006
:1031B000000401400040014000440140004801403B
:1031C00000180040001C00400020004010B5806B3B
:1031D0000021C185C184FFF7ABF910BD70B5846BC8
:1031E0002068406994F83D10C0F3C01000252129E3
:1031F00004D118B1E584204600F08AF820684069BF
:1032000094F83E10C0F38010222904D118B1E5854E
:10321000204600F056F8206C40F010002064204654
:10322000FFF786F970BD10B50146806B0968096823
:10323000C9052FD40021C18501680C3151E8002F48
:1032400022F4807241E80023002BF5D1016814318B
:1032500051E8002F22F0010241E80023002BF5D1B4
:103260000168143151E8002F22F0400241E80023A8
:10327000002BF5D1202180F83E10016B012909D1E6
:1032800001680C3151E8002F22F0100241E80023C0
:10329000002BF5D1016B012902D0FFF70CFC10BD0A
:1032A000818DFFF70CF910BD10B5806B016B012902
:1032B00002D0FFF701FC10BD818D4908FFF7FFF830
:1032C00010BD01680C3151E8002F22F4907241E8E2
:1032D0000023002BF5D10168143151E8002F22F0B2
:1032E000010241E80023002BF5D1016B012909D12E
:1032F00001680C3151E8002F22F0100241E8002350
:10330000002BF5D1202180F83E1000210163704789
:1033100001680C3151E8002F22F0C00241E800237F
:10332000002BF5D1202180F83D10704708B590F8AA
:103330003E10222901D0022008BD82684FF480533C
:103340009A4201D1016921B1816A9A421BD04AB1E6
:103350000AE00268816A5268C2F308020A80816A40
:10336000891C08E0026972B10268526802F07F02AB
:103370000A70816A491C8162C18D491E0904090CC9
:10338000C18503D019E002685268F1E70168CA6894
:1033900022F02002CA600168CA6822F48072CA6002
:1033A00001684A6922F001024A61202180F83E103A
:1033B000016B012903D0FFF77EFB002008BD00212F
:1033C000016301680C3151E8002F22F0100241E83E
:1033D0000023002BF5D101680A68D20602D50A68DD
:1033E00049680091818DFFF76AF8E6E770B50446F9
:1033F00000680169E26821F44051114301612169CB
:10340000A068E26908436169114308432168CA68FA
:1034100049F20C639A430243CA6020684169A26979
:1034200021F440711143416131492068884202D042
:103430003049884202D1FEF785FC01E0FEF772FCBC
:10344000E2690023192164253226B2F5004F626833
:1034500028D0A0FB0101930F9200FCF725FF014645
:10346000B0FBF5F06FF01802504301EB800006EB63
:103470000010B0FBF5F000F0F002B1FBF5F002EB4C
:103480000012B1FBF5F06FF01803584301EB800018
:1034900006EB0010B0FBF5F000F00F0021681044BF
:1034A000886070BDA0FB010192185B41FCF7FCFE37
:1034B0000146B0FBF5F00201B1FBF5F06FF0180327
:1034C000584301EB800006EBC000B0FBF5F000F0C4
:1034D000F80002EB4002B1FBF5F0584301EB80002D
:1034E00006EBC000B0FBF5F000F00700D6E70000E7
:1034F000001001400014014038B58162828500252A
:10350000134604460564222084F83E00A26B1C4842
:10351000D063A26B1B481064A26B1B48D064A06BE5
:103520000A4605652168A06B091DFEF7F4F82068BE
:1035300001684068009084F83C50206948B12068D8
:103540000C3050E8001F41F4807140E80012002A5E
:10355000F5D12068143050E8001F41F0010140E827
:103560000012002AF5D12068143050E8001F41F005
:10357000400140E80012002AF5D1002038BD0000CB
:1035800027320008A9320008DD3100082DE9F0419A
:10359000984617460E460446069D27E0681C25D02F
:1035A0002DB1FEF70FFAA0EB0800A8421ED9206843
:1035B0000C3050E8001F21F4D07140E80012002ABE
:1035C000F5D12068143050E8001F21F0010140E8D7
:1035D0000012002AF5D1202084F83D0084F83E0036
:1035E000002084F83C000320BDE8F08120680068DA
:1035F00036EA000004D00020B842CFD00020F3E724
:103600000120F9E710B5044803F018FABDE81040AE
:103610000148FEF78FBF0000C00500202DE9F843E8
:103620005548FEF787FF5448544A002100689042ED
:1036300070D10268D243D2066CD4894601684068D2
:1036400000904D48FEF73CFF4D48006840684D4CE7
:10365000C0F1FF0020704C48017855297DD1417898
:10366000AA297DD1017D0D297AD1417D0A2977D101
:103670008178012974D10179C279457A41EA0263DE
:1036800081794279090441EA02210B43017AC27A25
:1036900000EE103A41EA0262817AF8EEC00A0904AB
:1036A00041EA05210A43017BC57B00EE102A41EA6D
:1036B0000567817B457B090441EA05210F43017CB5
:1036C000C57CB8EEC01A41EA0561857C407C2D04BA
:1036D00045EA002000EE107A2C4D2D4EB8EEC00ABF
:1036E0002C4FC5ED000A86ED001A87ED000ABDEEED
:1036F000C00ADFF8A480014310EE103ABDEEC10A03
:10370000C8F80010009110EE102ABDEEE00A10EE8D
:10371000101A00E02DE021A000F0F0F895ED000A6D
:1037200027A0BDEEC00A10EE101A00F0D3F896EDF7
:10373000000A27A0BDEEC00A10EE101A00F0CAF869
:1037400097ED000A26A0BDEEC00A10EE101A00F098
:10375000C1F827A0D8F8001000E001E000F0BAF8A6
:1037600084F80090BDE8F843FF2207490248FFF7BC
:103770008DB9BDE8F8830000040600200044004035
:10378000300700202C000020C30100202000002072
:103790001C0000202400002028000020593D256442
:1037A00020202020583D2564202020207961773D6D
:1037B00025642020666C61673D25640D0A000000C9
:1037C0006E32302E76616C3D2564FFFFFF000000F5
:1037D0006E32312E76616C3D2564FFFFFF000000E4
:1037E0006E32322E76616C3D2564FFFFFF000000D3
:1037F0006E32362E76616C3D2564FFFFFF000000BF
:1038000038B52748FEF796FE2548264900688842C5
:1038100045D10168C943C90641D401680024406804
:1038200000901F48FEF74CFE1F48006840681F4A82
:10383000C0F1FF00C0B210701C2828D11C4B1D48DD
:1038400000215D18AD784554491C1829F9DB90ED2D
:10385000000A1949B1EE400A81ED000A174990EDBE
:10386000010A81ED000A164990ED020A81ED000A75
:10387000144990ED030A81ED000A134990ED040A02
:1038800081ED000A90ED050A104880ED000A1470E1
:10389000BDE83840FF2206490148FFF7F7B838BDB8
:1038A0008C06002000140140900700201800002022
:1038B000C4000020F0070020080000200C000020B9
:1038C0001000002000000020040000201400002050
:1038D000FEE700000FB4802100B5A1B023AB68461D
:1038E000229A00F01BF882B2FF2369460248FFF7D4
:1038F000E5F821B05DF814FB040600200FB4054B79
:1039000010B503A9044A029801F0CEFA10BC5DF884
:1039100014FB0000255F0008BC0000207CB50C00F3
:103920001D461646014601D0601E00E00020CDE98C
:103930000010064B6A462946304601F0B5FA002CC5
:1039400002D0009A002111707CBD0000AF55000824
:1039500003B401984100009850EAC12018BF042028
:103960004A0D18BF40F0010040F2FF72B2EB515F08
:1039700008BF40F00200012808BF052002B07047D0
:103980000907090E002804DB00F1E02080F800148C
:10399000704700F00F0000F1E02080F8141D704720
:1039A00070B59B482DED020B2DED068B079D25F084
:1039B0000044A04218DC9748844202DC0AD10698F1
:1039C00040B19DED060BBDEC068B02B0BDE870402A
:1039D00001F04EB9002DCCBF9FED8F0B9FED900BEA
:1039E000BDEC068B02B070BD8F48A04215DD8F483C
:1039F000A042D8BF4FF0FF3458DD9DED060B51ECCF
:103A0000100BFFF7A5FF042808BF01F065F99DED35
:103A1000060BBDEC068B02B070BD9DED060B51ECA4
:103A2000100B02F073FACDE9060181489FED828BFD
:103A3000A0423CDD8248A0421FDD00249FED82AB06
:103A40009DED060B53EC1A2B51EC100BFCF781FC8F
:103A50009DED060B41EC190B53EC1A2B51EC100B9E
:103A6000FCF71EFD53EC182BFCF714FD53EC192B3F
:103A7000FCF788FDCDE9060149E09DED060B012428
:103A800053EC182B51EC100BFCF763FC9DED060B6F
:103A900041EC190B53EC182B51EC100BFCF7FAFC12
:103AA00053EC192BFCF76EFDCDE906012FE06848B9
:103AB000A0421FDD02249FED689B9DED060B53EC99
:103AC000192B51EC100BFCF7EBFC53EC182BFCF70B
:103AD00040FC9DED060B41EC180B53EC192B51ECFF
:103AE000100BFCF7D7FC53EC182BFCF74BFDCDE982
:103AF00006010CE09DED060B032453EC102B9FED0B
:103B0000580B51EC100BFCF73DFDCDE906019DED86
:103B1000060B53EC102B51EC100BFCF7C1FC41ECE5
:103B2000180B53EC182BFCF7BBFC41EC190B4E485F
:103B30000621B0EE490AF0EE690A784401F001F876
:103B400053EC182B51EC100BFCF7AAFC41EC180BB2
:103B50004648B0EE490AF0EE690A0521784400F0C3
:103B6000F0FF53EC192B51EC100BFCF799FC41ECD6
:103B7000100B51EC180B53EC102B002C0EDAFCF749
:103B8000E8FB9DED061B53EC112BFCF789FC9DED2A
:103B9000061B53EC112BFCF780FC35E0FCF7D9FB3E
:103BA0009DED061B53EC112BFCF77AFC41EC100B3E
:103BB0002F48784400EBC40090ED001B51EC100B33
:103BC00053EC112BFCF766FC9DED061B53EC112BFF
:103BD000FCF760FC41EC100B2648784400EBC40075
:103BE00090ED001B51EC100B53EC112BFCF755FC26
:103BF00041EC100B002DA2BFBDEC068B02B070BDD6
:103C000051EC100B81F0004141EC100B01E700007A
:103C1000000010440000F07F182D4454FB21F93FB0
:103C2000182D4454FB21F9BF0000DC3F0000203E6A
:103C30000000F33F00000000000000000000F03F23
:103C40000000E63F0000000000000000000000400F
:103C50000080034000000000000000000000F83F6A
:103C6000000000000000F0BF0A380000C03700006C
:103C70004A3700000237000070B56F4E2DED040B7F
:103C80002DED048B82B0DDF824C0DDE907235C4212
:103C90002CF000411C4341EAD474069D22F0004000
:103CA000B44205D86C422C4340EAD474B4420BD9D8
:103CB0009DED081B9DED060B02B0BDEC048B04B01E
:103CC000BDE8704000F0DEBFACF14054A4F17F6469
:103CD0001C430BD0022404EAAC7444EAD2740543BA
:103CE0009FED578B9FED582B07D015E09DED060BF0
:103CF00051EC100B01F07BFC42E0002C11BF012CB9
:103D00009DED060B02B0BDEC048B04BF04B070BD8A
:103D1000022C38D0032C3BD00B439FED4D1B9FED65
:103D20004E0B0AD0B14218D1B04209D121F08041E6
:103D300020F08040099107900FE0002A15DA10E08A
:103D4000474B7B44002C08BF93ED000B0DD0012C9A
:103D500010D0022C17D0032C1AD0B0421DD1002A4B
:103D600003DAB0EE410AF0EE610A02B0BDEC048B5A
:103D700004B070BD93ED000B51EC100B81F00041CD
:103D800041EC100BF1E7B0EE480AF0EE680AECE700
:103D9000B0EE420AF0EE620AE7E7401A00159FED26
:103DA000329B3C28C8BF8DED000B17DCBCF1000F27
:103DB000BCBF10F13C0F8DED009B0FDB9DED080BA0
:103DC00053EC102B9DED060B51EC100BFCF7DAFBBE
:103DD00002F09CF801F00BFCCDE90001B4B1012C1C
:103DE00010D0022C9FED220B53EC102B9DED000BFD
:103DF00051EC100B19D0FCF74DFB53EC182BFCF7D2
:103E000049FBBDE7019880F0004001909DED000B5B
:103E100053EC192B51EC100BFCF7BEFD04BF022034
:103E200000F07AFF9DED000B9FE7FCF733FB53ECAE
:103E3000182BFCF732FBA3E70000F07F0000000026
:103E4000182D4454FB210940182D4454FB2109C06E
:103E5000182D4454FB21F9BF182D4454FB21F93F80
:103E600032360000000000000000000000000000EA
:103E7000075C143326A6A13C2DE9F04D2DED040B73
:103E80002DED0E8B96B0DDE92550279CDDF890A036
:103E900025F0004624F00048BAF1000F14BF0121BC
:103EA000002101EB4502FC4953184A1093422AD3E2
:103EB000002814BF0123002303EB44030B44F749FC
:103EC0008B4220D358EA00019FEDF59B76D0DFF8B6
:103ED000D8B35D4503D1BAF1000F05D188E0BAF13E
:103EE000000F08BF002100D0012101EB450111F5B1
:103EF000001F08D8002814BF0121002101EB440154
:103F000011F5001F0BD99DED261B9DED240B16B05E
:103F1000BDEC0E8B04B0BDE8F04D00F0B3BE002741
:103F2000002DBCBFE149884521DAE1498845A8BF99
:103F300002271CDAC3451ADCDE4901EB285114299B
:103F400008DDC1F1340220FA02F101FA02F28242E4
:103F50000DD108E058B9C1F1140228FA02F101FAB2
:103F600002F2424503D101F00101C1F1020756EA14
:103F70000A0124D1002C22DA002D18BF022F01D013
:103F8000012F0AD0022000F0C7FE16B0BDEC0E8B48
:103F900004B0BDE8F04D00F053BE022000F0BCFEBE
:103FA00000F04EFE51EC100B81F0004141EC100B83
:103FB00016B0BDEC0E8B04B0BDE8F08D18E09FED9F
:103FC000BEAB9FEDBF8B002871D1B848804522D190
:103FD00005F1804010F5801008BFBAF1000F07D03E
:103FE000B3450ADC002CA8BF9DED260BE0DA0DE0FE
:103FF000B0EE490AF0EE690ADAE7002C06DA9DED28
:10400000260B51EC100B81F000416FE0AE48784474
:1040100090ED000BCCE7D8454DD1002C48DA2EB1FD
:1040200086423AD1BAF1000F42D126E0BAF1000F30
:1040300013D0022000F070FE00F03EFE8DED020B6A
:104040009DED240B8DED000B10EE900A039961F3AA
:104050001E0003909DED020BAAE78DED02AB9DEDD6
:10406000240B1AEE901A10EE900A8DED000B61F3FE
:104070001E0003909DED020B9AE78DED028B9DEDE6
:10408000240B18EE901A10EE900A8DED000B61F3E0
:104090001E0003909DED020B8AE709DA9DED240BCB
:1040A00051EC190B53EC102BFCF76CFA1EE020E0DE
:1040B0009DED240B7CE786421BDAB4F1804F0DD0D6
:1040C000A4F10050B0F1FF5013D1002D11DB9DED94
:1040D000240B51EC100B02F028FC07E09DED240BA3
:1040E00053EC102B51EC100B00F0C2BC41EC100B48
:1040F0005EE79DED240B51EC100B01F007FFBAF1C8
:10410000000FCDE90E0142D19FED710B46B3A6F130
:10411000E040B0F17F600CD05E4538D1002D00DA70
:10412000A7B3022F0CBF01204FF0FF30FCF799FA24
:10413000DCE7002D01DD002C0DDA002D01DD002C67
:104140001FDB002D16DA002C14DB012F08BF9FEDBA
:10415000620B3FF42DAFB0EE4A0AF0EE6A0A27E791
:10416000022F18BF002D0CD0012F0AD1002DFFF611
:104170001FAF06E0002DB8BF002C08DA012F3FF476
:1041800017AFB0EE480AF0EE680A11E71BE0012015
:1041900000EBE57050EA070115D0791EB0EE498AB0
:1041A000F0EE698A084308BF9FED4D8B4E4800250D
:1041B000804570DD4D494E48884514DDB0420DDB29
:1041C000002C19DB2FE0012000F0A6FD16B0BDEC9D
:1041D0000E8B04B0BDE8F04D00F05EBDB34502DCCF
:1041E000002C09DC1FE0864202DA002C1BDA03E017
:1041F0005E452BDD002C16DD022000F08DFD00F069
:104200005BFD8DED020B53EC1A2B51EC180BFCF7F8
:1042100047F9CDE900010399019861F31E0003906D
:104220009DED020BC4E6022000F076FD00F054FD87
:1042300010EE901A18EE900A8DED020B8DED008BAA
:1042400061F31E0003909DED020BB1E69DED0E0B98
:1042500053EC192B51EC100BFCF71CF99FED260BBE
:10426000CDE9080153EC102B9DED080B51EC100B20
:10427000FCF716F99FED221B53EC112BFCF70DF9FF
:104280009DED081B53EC112BFCF70AF99FED1E1B4B
:1042900053EC112B3CE08CE0FFFF1F00FFFF0F00F1
:1042A000000000000000F03F0000F03F0000F07F41
:1042B0000000404301FCFFFF000000000000F07F11
:1042C0000000000000000000663300000000000055
:1042D0000000000000000080000000000000F0FF6F
:1042E000000000000000F0BF0000E0410000F043CB
:1042F000FFFFEF3F00000000000000000000D03F83
:10430000555555555555D53F000000000000E03F7C
:10431000FCF7C3F89DED080B41EC1A0B53EC102B86
:1043200051EC100BFCF7BCF853EC1A2BFCF7B8F867
:1043300041EC1A0B9FEDFE0B53EC102B9DED080B7F
:1043400051EC100BFCF7ACF841EC1B0B9FEDFA0B9A
:1043500051EC1A0B53EC102BFCF7A2F841EC1A0BA2
:104360009FEDF70B53EC102B9DED080B51EC100B50
:10437000FCF796F853EC1A2BFCF78CF841EC1A0B6F
:1043800051EC1B0B53EC1A2BFBF7E3FF0690CDE926
:1043900006519DED060B53EC1B2B51EC100BFCF75B
:1043A00079F853EC1A2BFCF778F841EC100B00F07D
:1043B000A1B90020B6F5801F0EDA9FEDE30B53EC98
:1043C000102B9DED0E0B51EC100BFCF769F8CDE9AD
:1043D0000E016FF034000E4600EB2650A0F2FF37BE
:1043E000C6F31300DA4940F07F6646F04056884233
:1043F000D8BF002408DDD7498142C8BF012403DCAF
:104400000024A6F580167F1CD348784400EBC40036
:104410000F9690ED00CB9DED0E0B53EC1C2B51EC49
:10442000100BFCF737F89DED0E0B41EC1B0B53EC1A
:104430001C2B51EC100BFBF78CFF41EC100B51ECDB
:10444000190B53EC102BFCF79DF841EC1D0B51ECB4
:104450001B0B53EC1D2BFCF723F841EC1A0BBF4848
:104460008DED10AB7844109590ED000B4FF000509F
:1044700040EA660000EB84408DED080B00F500205B
:1044800009909DED080B53EC1C2B51EC100BFCF725
:1044900001F89DED0E1B53EC112BFBF7FEFF41ECD9
:1044A000100B53EC102B9DED100B51EC100BFBF788
:1044B000F7FF9DED080B41EC1C0B53EC102B9DED11
:1044C000100B51EC100BFBF7EBFF53EC1B2BFBF726
:1044D000E4FF53EC1C2BFBF7DDFF53EC1D2BFBF72C
:1044E000DFFF41EC1C0B53EC1A2B51EC1A0BFBF7C2
:1044F000D7FF41EC1B0B9A480621B0EE4B0AF0EEB9
:104500006B0A784400F01DFBB0EE401AF0EE601A22
:10451000B0EE41DAF0EE61DA53EC1B2B51EC1B0BE1
:10452000FBF7BEFF53EC1D2BFBF7BAFF9DED100B05
:1045300041EC1B0B53EC1A2B51EC100BFBF709FF52
:1045400053EC1C2BFBF7ACFF53EC1B2BFBF701FFD1
:104550009DED100B41EC1B0B53EC102B51EC100B91
:10456000FBF79EFF41EC1D0B9FED7FEB53EC1E2BE9
:10457000FBF7EFFE53EC1B2BFBF7EBFE0890CDE9AE
:1045800008519DED080B53EC1E2B51EC100BFBF763
:1045900081FF53EC1D2BFBF77DFF53EC1B2BFBF72F
:1045A0007CFF9DED080B41EC1D0B53EC102B9DED9A
:1045B000100B51EC100BFBF773FF41EC1B0B53EC92
:1045C0001A2B51EC1D0BFBF76BFF9DED080B41EC1B
:1045D0001A0B53EC102B51EC1C0BFBF761FF53EC47
:1045E0001A2BFBF7B6FE41EC1A0B51EC1B0B53ECEC
:1045F0001A2BFBF7AEFE0C90CDE90C519DED0C0B88
:1046000053EC1B2B51EC100BFBF744FF53EC1A2B14
:10461000FBF743FF41EC1B0B9FED550B53EC102BAD
:104620009DED0C0B51EC100BFBF73AFF41EC1A0B14
:104630009FED510B51EC1B0B53EC102BFBF730FF94
:1046400041EC1B0B9FED4E0B53EC102B9DED0C0B17
:1046500051EC100BFBF724FF53EC1B2BFBF779FEFF
:1046600041EC100B4848784400EBC40090ED001B6F
:1046700051EC100B53EC112BFBF76BFE41EC1B0BB9
:104680003846FBF7EEFFCDE9080153EC1B2B51EC4C
:104690001A0BFBF75EFE41EC100B3C48784400EB34
:1046A000C40090ED00CB51EC100B53EC1C2BFBF72E
:1046B00050FE9DED081B53EC112BFBF74AFE0690B4
:1046C000CDE906519DED080B53EC102B9DED060B2B
:1046D00051EC100BFBF7DEFE53EC1C2BFBF7DAFE64
:1046E00053EC1A2BFBF7D6FE53EC1B2BFBF7D5FE36
:1046F00041EC100B9DED261B53EC102B8DED001B98
:1047000000959DED260B51EC100BFBF7C9FE9DEDBE
:10471000000B41EC1A0B53EC102B9DED260B51ECCA
:10472000100BFBF7B7FE9DED061B53EC112B2FE092
:10473000000000604715F73FFE822B654715F73FE5
:1047400044DF5DF80BAE543E000000000000404323
:104750008E9803007AB60B004A2E0000102F00003E
:10476000822D000000000000000000000000084052
:10477000000000E009C7EE3FFD033ADC09C7EE3F49
:10478000F5015B14E02F3EBE0E2C0000C82B00008C
:10479000FBF786FE53EC1A2BFBF7DBFD9DED060BBA
:1047A00041EC1A0B53EC102B9DED000B51EC100B50
:1047B000FBF776FECDE90C019DED0C0B51EC1A0BCD
:1047C00053EC102BFBF7C5FDCDE902010C46AA49BD
:1047D0008C422FDB611A084318D19DED0C0B53EC72
:1047E000102B9DED020B51EC100BFBF753FE41EC2F
:1047F0001B0B9FEDA30B51EC1A0B53EC102BFBF78B
:10480000A8FD53EC1B2BFCF7DFF82DD2022000F0A3
:1048100083FA00F051FA10EE901A18EE900A8DED1E
:10482000020B8DED008B61F31E0003909DED020BDA
:10483000FFF7BEBB944A24F00041914214D3934940
:10484000214408437FF4EFAC9DED0C0B53EC102B8F
:104850009DED020B51EC100BFBF71CFE53EC1A2BD9
:10486000FCF7B2F87FF6DFAC24F000408849894AB3
:10487000002601EB205182422BDA481C4FF48011B4
:1048800021FA00F02044844AC0F30A517A44A1F28C
:10489000FF3192ED000B814A8DED080BCA4020EAF2
:1048A0000202C0F3130040F48010C1F1140120FA99
:1048B00001F60992002CB8BF76429DED080B53EC2F
:1048C000102B9DED0C0B51EC100BFBF7E3FDCDE92C
:1048D0000C019DED0C0B51EC1A0B53EC102BFBF75C
:1048E00038FD9FED6F0B0890CDE9085153EC102B6C
:1048F0009DED080B51EC100BFBF7D2FD41EC1B0BAF
:104900009FED690B53EC102B9DED080B51EC100B38
:10491000FBF7C6FD9DED0C0B41EC1C0B53EC102B73
:104920009DED080B51EC100BFBF7B4FD53EC1A2B6B
:10493000FBF7B3FD9FED5E1B53EC112BFBF7B0FDB6
:1049400053EC1C2BFBF705FD41EC1A0B51EC1B0B38
:1049500053EC1A2BFBF7FDFCCDE902019DED020B98
:1049600053EC1B2B51EC100BFBF794FD53EC1A2B63
:10497000FBF793FD9DED020B41EC1A0B53EC102B52
:1049800051EC100BFBF78CFDCDE908014A489DED79
:10499000080B0521784400F0D4F89DED081B51EC7C
:1049A000100B53EC112BFBF77BFD9DED021B53EC21
:1049B000112BFBF772FDCDE906019DED020B53ECC7
:1049C0001A2B51EC100BFBF76BFD53EC1A2BFBF77A
:1049D000C0FC9FED3B0B41EC1A0B53EC102B9DEDF3
:1049E000060B51EC100BFBF755FD9DED060B41EC52
:1049F0001B0B53EC102B9DED020B51EC100BFBF736
:104A00004FFD53EC1B2BFBF7BDFD53EC1A2BFBF7B3
:104A100041FD9DED021B53EC112BFBF73BFD53ECCD
:104A2000192BFBF73AFDCDE9020101EB0650011508
:104A30000029C8BF039015DC9DED020B324651ECF6
:104A4000100BFBF729FFFEF783FF042808BF00F0D7
:104A500043F932469DED020B51EC100BFBF71CFFA6
:104A6000CDE902019DED020B51EC180B53EC102B1C
:104A7000FBF716FDFFF73ABB000090400000000076
:104A8000FE822B654715973C00CC904000346F3F69
:104A900001FCFFFF0000E03FE82A0000FFFF0F00DD
:104AA00000000000432EE63F396CA80C615C20BE7C
:104AB000EF39FAFE422EE63F2029000000000000F8
:104AC000000000000000004000B52DED048BB0EEAA
:104AD000409AF0EE609A83B051EC190BFBF7F3FEAD
:104AE00041EC180B18EE100A18EE901A8DED008BA1
:104AF000002818BF0120084320F00040C0F17F606B
:104B000000F1E040C00F14D019EE101A19EE900A0F
:104B10008DED009B002918BF0121084320F00040C3
:104B2000C0F17F6000F1E040C00F04BF012000F041
:104B3000F3F8B0EE480A03B0F0EE680ABDEC048B5F
:104B400000BD70B504462DED028B4D1E00EBC50077
:104B5000B0EE408AF0EE608A90ED000B35F0060072
:104B600017D053EC182B51EC100BFBF799FC41ECD0
:104B7000100B6D1E04EBC50090ED001B51EC100BEB
:104B800053EC112BFBF7E5FB41EC100B35F0060065
:104B9000E7D1022D36D0042D1CD0062D1CBFBDEC54
:104BA000028B70BD53EC182B51EC100BFBF778FC0B
:104BB00094ED0A1B53EC112BFBF7CBFB53EC182B9A
:104BC000FBF76EFC94ED081B53EC112BFBF7C1FBBC
:104BD00041EC100B53EC182B51EC100BFBF760FC65
:104BE00094ED061B53EC112BFBF7B3FB53EC182B86
:104BF000FBF756FC94ED040B53EC102BFBF7A9FBD1
:104C000041EC100B53EC182B51EC100BFBF748FC4C
:104C100094ED021B53EC112BFBF79BFB53EC182B71
:104C2000FBF73EFC94ED001B53EC112BFBF791FBC3
:104C3000BDEC028B41EC100B70BD000000000000C9
:104C40009FED070B10B553EC102B9FED070B51ECAC
:104C5000100BFBF797FC41EC100B10BD000000009F
:104C60000000000000000000000000000000F03F15
:104C700010B553EC102B51EC100BFBF76AFB41EC19
:104C8000100B10BD10B553EC112B51EC100BFBF7B2
:104C900060FB41EC100B10BD9FED050B10B553EC04
:104CA000102B51EC100BFBF76DFC41EC100B10BD01
:104CB00000000000000000009FED050B10B553EC54
:104CC000102B51EC100BFBF7EBFB41EC100B10BD64
:104CD00000000000000000709FED050B10B553ECC4
:104CE000102B51EC100BFBF7DBFB41EC100B10BD54
:104CF000000000000000001002E008C8121F08C1F8
:104D0000002AFAD170477047002001E001C1121F4C
:104D1000002AFBD17047000001490860704700007D
:104D2000C00000202DE9FF5F82B00021DDE90430E2
:104D3000020DDDF840B0034318D044F61050A2F243
:104D4000FF3242431514119801281FD0A5EB0B0028
:104D5000401C5FEA000A4FF000064E4FDFF8389122
:104D6000B046504615D5CAF1000413E0119801244D
:104D70004AA3012801D16FEA0B010298119AC0E9F8
:104D80000031C0E9024206B0BDE8F09FCBF100005F
:104D9000DFE704460021404A491842EB0450CDE9C0
:104DA000001012E0E00707D032463B464046494635
:104DB000FBF776FB8046894632463B46104619464D
:104DC000FBF76EFB06460F466410002CEAD1DDE9C6
:104DD0000401DDE90023BAF1000F06DAFBF760FBFE
:104DE00042464B46FBF75CFB05E0FBF7CBFB42463C
:104DF0004B46FBF7C7FB04460E460022284BFBF749
:104E0000E3FD03D84FF0FF30014607E00022254BB9
:104E100020463146FBF79DFAFBF7A6FD102409E07A
:104E2000002C0ADB0A220023FBF73EFA039B3032F8
:104E30001A55641E50EA0102F2D1641C039AC4F1AF
:104E400011031444119A012A03D0012208430DD101
:104E50000AE0084304D000204FF0110B119072E7D4
:104E6000A3EB0B056D1E0DE05B4504DD4FF000026A
:104E700005F1010504E003DA4FF00002A5F1010598
:104E8000002AECD002981199C0E90231C0E900452E
:104E900079E70000000014400000F03F30000000FF
:104EA0000000F0430000E03F2DE9FF4F95B09A4627
:104EB000884606460025EEE1252877D100242746BE
:104EC000F94A0121039400E0044316F8013F203B16
:104ED00001FA03F01042F7D130782A2811D06FF090
:104EE0002F033078A0F13002092A16D8039A44F033
:104EF000020402EB820203EB42021044761C039090
:104F0000EFE758F8042B0392002A03DA504244F4E6
:104F10000054039044F00204761C30782E2816D1F9
:104F200016F8010F44F004042A280DD06FF02F0268
:104F30003078A0F13003092B09D807EB870302EB87
:104F40004303C718761CF3E758F8047B761C3078C7
:104F50006C280FD006DC4C2817D068280DD06A28A2
:104F600014D104E0742810D07A280FD10DE044F455
:104F700000140AE044F4801401E044F44014727810
:104F8000824202D104F58014761C761C30786628A3
:104F90000BD013DC582877D009DC002875D04528C1
:104FA000F6D04628F4D047281AD193E118E06328B8
:104FB00035D0642879D0652812D18BE1702873D060
:104FC00008DC6728F1D069286FD06E280DD06F28D3
:104FD00006D1ACE073282CD0752874D0782853D033
:104FE0005246179990476D1C54E1C4F302500228B1
:104FF00009D003280DD0D8F8001004280DD00D607A
:1050000008F1040846E1D8F80010EA17C1E9005297
:10501000F6E7D8F800100D80F2E70D70F0E718F809
:10502000041B8DF8001000208DF80100EB460120D4
:1050300003E058F804BB4FF0FF3061074FF0000168
:1050400002D40DE009F101018946B9420FDA814528
:10505000F8DB1BF809100029F4D108E009F101017F
:1050600089468142FADB1BF809100029F6D1039822
:105070005346A0EB090721463846179A00F080FAFC
:10508000284400EB090507E044E008E10DE01BF8C7
:10509000010B524617999047B9F10109F7D25346CF
:1050A00021463846179AF2E039E00A21C4F3025249
:1050B0004FF0000B0091022A06D058F8040BC117DC
:1050C000032A09D00AE023E008F1070020F00702D4
:1050D000F2E80201904605E000B2C117042A01D1AE
:1050E00040B2C117002906DA0A460021404261EBAE
:1050F00002012D2202E0220504D52B228DF8042086
:10510000012203E0E20701D02022F7E7914657E0B1
:105110000A2100E010214FF0000B00910BE010215C
:105120004FF0000B44F004040827009103E008202E
:105130004FF0000B0090C4F30252022A05D058F839
:10514000040B0021032A08D008E008F1070020F032
:105150000702F2E80201904603E080B2042A00D17F
:10516000C0B24FF0000922072AD53278702A07D042
:10517000DDF800C08CF0100C5CEA0B0C05D00EE0E2
:1051800040228DF80420012208E050EA010306D0F5
:1051900030238DF804308DF8052002229146009BC3
:1051A00083F0080353EA0B030AD150EA010201D14C
:1051B000620705D530228DF804204FF001097F1ECB
:1051C0003278582A04D039A20C920CAA02920BE031
:1051D0003BA2F9E75B46009AFBF766F80C9B9B5CE9
:1051E000029A521E0292137050EA0102F2D1029802
:1051F00004A9081A00F1200B600702D524F48034BA
:1052000000E001275F4502DDA7EB0B0000E0002076
:1052100000EB0B01009003984944401A0390E0030F
:1052200006D453462146179A039800F0A9F905447D
:10523000002706E001A85246C05D179990476D1CF3
:105240007F1C4F45F6DBE0030CD553462146179AE9
:10525000039800F095F9054404E030205246179970
:1052600090476D1C0099481E00900029F5DC08E06D
:105270000298029952460078491C0291179990476A
:105280006D1CBBF10001ABF1010BF1DC5BE100F047
:1052900065F90544761C307800287FF40DAE19B00E
:1052A0002846BDE8F08F0000092801003031323374
:1052B0003435363738396162636465660000000052
:1052C000303132333435363738394142434445463C
:1052D00000000000600700D4062708F1070020F056
:1052E0000700F0E80223804603F0004C5FEA0C0060
:1052F00001D097A009E0200501D596A005E0E007C0
:1053000001D095A001E0AFF24C001390307823F06B
:10531000004365280CD006DC452809D046281DD05E
:1053200047287FD13BE0662818D067287AD136E03D
:105330000021112F01DB112000E0781CCDE90001D4
:1053400004A90CA8FFF7EEFCDDE90D010C9A4FF063
:10535000000B07F10109109200914EE04FF0004060
:105360000097CDE9011004A90CA8FFF7DBFCDDE9EB
:105370000D020C9B0F994FF0000B91461093009279
:1053800011B9791C00EB0109B7EB090003D4C0F196
:10539000FF3B07F10109A9EB0700019042E0012F53
:1053A00000DA01270021112F01DD112000E038462D
:1053B000CDE9000104A90CA8FFF7B4FCDDE90D015B
:1053C0000C9A00914FF0000BB946109221070FD4B0
:1053D000009A4A4503DA914601E0A9F10109B9F1C1
:1053E000010F05DD109AA9F10101515C3029F4D0BB
:1053F000B84202DA10F1040F03DA0121CDE90110FD
:1054000010E0002803DC8344A9EB000102E0411C0A
:10541000494500DD8946A0EB0B00401C01904FF090
:1054200000400290200705D40198484502DB4FF068
:10543000FF30019000208DF84B0002980DF14B07D2
:10544000B0F1004F25D002200C902B200D90029837
:1054500000280CDA404202902D200D9007E00A212E
:105460000298FBF73EF93031029007F8011D0C99C4
:10547000481E0C900029F2DC02980028EFD1791E1A
:105480000D980870307800F0200040F0450007F8D3
:10549000020D11A8C01BC01D02901398007800B126
:1054A000012000EB0901019801EBE0710298014431
:1054B0000398401A401E0390E00306D45346214649
:1054C000179A039800F05CF805441398007818B117
:1054D0005246179990476D1CE00323D55346214649
:1054E000179A039800F04CF805441BE0BBF1000F3D
:1054F00007DB0098584504DD1098179910F80B0049
:1055000001E0179930205246904701980BF1010BAA
:10551000401E05F10105019004D12E205246179935
:1055200090476D1CB9F10001A9F10109DEDC05E02D
:1055300017F8010B5246179990476D1C0299481EA7
:1055400002900029F4DC53462146179A03989EE600
:105550002D0000002B000000200000002DE9F0418C
:10556000044600251E461746880404D405E0394643
:105570002020B0476D1C641EF9D52846BDE8F08197
:105580002DE9F041044600251E469046C80301D58A
:10559000302700E02027880404D505E0414638463E
:1055A000B0476D1C641EF9D52846BDE8F0814A68F5
:1055B000002A06D00A68531C0B6010704868401E11
:1055C00048607047D0ED000AF4EEC00AF1EE10FA20
:1055D00001DD80ED000AD0ED000AB1EE400AF4EEE4
:1055E000C00AF1EE10FA01D280ED000A704710B542
:1055F00041EC100BFEF7D4F951EC100B10BD10B5B7
:105600008AB000210E220091CDE90412019102918D
:10561000039106910121CDE90812079104466946DC
:10562000FBF726FB08B1FBF7A0FA02212046FBF7A7
:105630009EFA08B1FBF799FA2046FBF781FE002895
:1056400001D0FBF792FA0AB010BD000010B5002897
:1056500034D0002932D0002A30D0002B2ED0284C54
:105660009FED280A247854B3012C2DD0022C25D08C
:10567000032C23D11C68B4F9004004EB84046400BB
:1056800000EE104AB8EEC00A80ED000A1868B0F9C2
:10569000020000EB8000400000EE100AB8EEC00AE5
:1056A00081ED000A1868B0F9040000EB80004000AA
:1056B00000EE100AB8EEC00A82ED000A10BD80EDBF
:1056C000000A81ED000AF7E71C686489012C05D106
:1056D00080ED000A81ED000A82ED000A196849890F
:1056E000032903D19FED080A80ED000A1968498952
:1056F0000229E3D19FED050A80ED000A10BD0000EC
:10570000B80000200000000000007A450000FA45C3
:10571000F0B5044600F5026085B090EC030A20461F
:1057200000F010FB5FF0000505EB8500C0EB851075
:1057300004EB8000D0ED420A90ED410A983000F071
:10574000F3FC6D1CEDB2042DEED3002505EB4500F6
:10575000C0EB851004EB800707F5806607F57770CE
:10576000D6ED300A96ED2F0A00F0DEFCD6ED060AE3
:1057700096ED2D0A07F5896000F0D6FC6D1CEDB2A0
:10578000042DE3D35FF0000000EB8001C1EB80113A
:1057900004EB810191ED350ABDEEC00A10EE102A2E
:1057A000A1F80C2100EB4001C1EB801104EB810159
:1057B00001F58062401C92ED210AC0B20428BDEEC2
:1057C000C00A10EE102AA1F8C424DDD394F82400F6
:1057D000C0B1B4F9C40401ADB4F9A037B4F9AC2632
:1057E000B4F9B81585E80F00B4F9D0030090B4F906
:1057F000E432B4F9F821B4F90C11074801F03CF88F
:1058000005B0F0BD00200190029003900490034683
:10581000024601460090F0E71805002070B505002B
:105820002DED048B4AD000249FED268B9FED279B06
:1058300005EB84004168B1F9001000EE101A04EB8A
:105840008401C1EB8411B8EEC00A05EB810181ED42
:10585000410A4169B1F9001000EE101A04EB44014D
:10586000C1EB8411B8EEC00A05EB810606F580662F
:1058700086ED2D0A40698069FAF7F3FE53EC182B88
:10588000FAF70EFE53EC192BFAF77CFEFAF70DFF30
:10589000641CE4B2C6F8BC00042CC9D305F500654D
:1058A0009FED0C0A85ED110A85ED120A85ED0F0AB0
:1058B00085ED130A85ED140A85ED100ABDEC048B05
:1058C00070BD000000000000008076400000000075
:1058D00066A63041000000002DE9F04704002DEDE0
:1058E000048B77D0032084F8240000F05FFB0025B0
:1058F0002060284600F022FB04EB85016D1CEDB210
:105900004860082DF5D300259FED348ADFED348AF9
:105910009FED349ADFED349A4FF4FA6742F2107833
:105920004FF4FA5905EB8500C0EB851004EB8000BD
:10593000B0EE481AF0EE680AB1EE040A3B46424661
:1059400003219830FDF724FB05EB4500C0EB8510E3
:1059500004EB800606F57770B2EE041AF0EE480A02
:10596000B0EE490A3B4642460321FDF711FB06F51E
:105970008960B7EE081AF0EE690AB1EE020A3B46FA
:105980004A460321FDF704FB6D1CEDB2042DC9D37B
:10599000F0EE480A9FED151AB7EE080A3B4642465C
:1059A000032104F5F560FDF7F3FA04F50060B2EEAB
:1059B000040A80ED0B0AFAEE040AC0ED0C0A80ED31
:1059C0000D0AC0ED0E0A2046BDEC048BBDE8F04781
:1059D000FFF724BFBDEC048BBDE8F087000000009A
:1059E0000AD7233D0000C8420AD7A33D0AD7233C6B
:1059F0002DE9F0410D462DED0C8B0446F0EE608A4A
:105A0000F0EE40BA9FEDC1AB9FEDC20AB0EE6B8ADB
:105A100061EE009A9FEDC0BA09EECB8A18EE100A2B
:105A2000FAF730FE41EC100B9FEDBCDBB0EE4D1AE7
:105A3000F0EE6D1AFEF720FAB0EE689AB0EE40CAAA
:105A400009EE8B9AF0EE60CA19EE100AFAF71AFE08
:105A500041EC100BB0EE4D1AF0EE6D1AFEF70CFA99
:105A600053EC1C2B51EC100BFAF773FC41EC100BB0
:105A7000FFF72AF853EC1A2B51EC100BFAF710FD34
:105A8000FAF713FE206018EE100AFAF7FBFD41EC5E
:105A9000100BB0EE4D1AF0EE6D1AFEF7EDF949EE6F
:105AA000CB8AB0EE40CAF0EE60CA18EE900AFAF760
:105AB000E9FD41EC100BB0EE4D1AF0EE6D1AFEF759
:105AC000DBF953EC1C2B51EC100BFAF742FC41ECC8
:105AD000100BFEF7F9FF53EC1A2B51EC100BFAF7F1
